{
  "address": "0xb13F46B7489B4D602DC2fe08C80FBb06C250dC4D",
  "abi": [
    {
      "inputs": [
        {
          "internalType": "string",
          "name": "domain",
          "type": "string"
        }
      ],
      "stateMutability": "nonpayable",
      "type": "constructor"
    },
    {
      "inputs": [],
      "name": "A13e_RevokedAuthToken",
      "type": "error"
    },
    {
      "inputs": [],
      "name": "SiweAuth_AddressMismatch",
      "type": "error"
    },
    {
      "inputs": [],
      "name": "SiweAuth_ChainIdMismatch",
      "type": "error"
    },
    {
      "inputs": [],
      "name": "SiweAuth_DomainMismatch",
      "type": "error"
    },
    {
      "inputs": [],
      "name": "SiweAuth_Expired",
      "type": "error"
    },
    {
      "inputs": [],
      "name": "SiweAuth_NotBeforeInFuture",
      "type": "error"
    },
    {
      "inputs": [],
      "name": "SiweParser_InvalidAddressLength",
      "type": "error"
    },
    {
      "inputs": [],
      "name": "SiweParser_InvalidNonce",
      "type": "error"
    },
    {
      "anonymous": false,
      "inputs": [
        {
          "indexed": true,
          "internalType": "uint256",
          "name": "betId",
          "type": "uint256"
        },
        {
          "indexed": true,
          "internalType": "address",
          "name": "user",
          "type": "address"
        },
        {
          "indexed": false,
          "internalType": "uint256",
          "name": "totalAmount",
          "type": "uint256"
        },
        {
          "indexed": false,
          "internalType": "uint256",
          "name": "subBetCount",
          "type": "uint256"
        },
        {
          "indexed": false,
          "internalType": "uint256",
          "name": "index",
          "type": "uint256"
        }
      ],
      "name": "BetPlaced",
      "type": "event"
    },
    {
      "anonymous": false,
      "inputs": [
        {
          "indexed": true,
          "internalType": "uint256",
          "name": "betId",
          "type": "uint256"
        },
        {
          "indexed": false,
          "internalType": "enum SimpleBet.BetStatus",
          "name": "status",
          "type": "uint8"
        },
        {
          "indexed": false,
          "internalType": "uint256",
          "name": "payout",
          "type": "uint256"
        }
      ],
      "name": "BetResolved",
      "type": "event"
    },
    {
      "anonymous": false,
      "inputs": [
        {
          "indexed": true,
          "internalType": "address",
          "name": "user",
          "type": "address"
        },
        {
          "indexed": false,
          "internalType": "uint256",
          "name": "amount",
          "type": "uint256"
        }
      ],
      "name": "FundsWithdrawn",
      "type": "event"
    },
    {
      "anonymous": false,
      "inputs": [
        {
          "indexed": true,
          "internalType": "uint256",
          "name": "betId",
          "type": "uint256"
        },
        {
          "indexed": false,
          "internalType": "string",
          "name": "platform",
          "type": "string"
        },
        {
          "indexed": false,
          "internalType": "uint256",
          "name": "amount",
          "type": "uint256"
        },
        {
          "indexed": false,
          "internalType": "string",
          "name": "marketId",
          "type": "string"
        },
        {
          "indexed": false,
          "internalType": "enum SimpleBet.BetOutcome",
          "name": "outcome",
          "type": "uint8"
        }
      ],
      "name": "SubBetPlaced",
      "type": "event"
    },
    {
      "inputs": [
        {
          "internalType": "uint256",
          "name": "betId",
          "type": "uint256"
        },
        {
          "internalType": "bytes",
          "name": "token",
          "type": "bytes"
        }
      ],
      "name": "cancelBet",
      "outputs": [],
      "stateMutability": "nonpayable",
      "type": "function"
    },
    {
      "inputs": [],
      "name": "domain",
      "outputs": [
        {
          "internalType": "string",
          "name": "",
          "type": "string"
        }
      ],
      "stateMutability": "view",
      "type": "function"
    },
    {
      "inputs": [
        {
          "internalType": "bytes",
          "name": "token",
          "type": "bytes"
        },
        {
          "internalType": "uint256",
          "name": "offset",
          "type": "uint256"
        },
        {
          "internalType": "uint256",
          "name": "count",
          "type": "uint256"
        }
      ],
      "name": "getAllBets",
      "outputs": [
        {
          "components": [
            {
              "internalType": "uint256",
              "name": "id",
              "type": "uint256"
            },
            {
              "internalType": "address",
              "name": "user",
              "type": "address"
            },
            {
              "internalType": "uint256",
              "name": "totalAmount",
              "type": "uint256"
            },
            {
              "internalType": "enum SimpleBet.BetOutcome",
              "name": "outcome",
              "type": "uint8"
            },
            {
              "internalType": "enum SimpleBet.BetStatus",
              "name": "status",
              "type": "uint8"
            },
            {
              "internalType": "uint256",
              "name": "createdAt",
              "type": "uint256"
            },
            {
              "internalType": "string",
              "name": "description",
              "type": "string"
            },
            {
              "components": [
                {
                  "internalType": "string",
                  "name": "platform",
                  "type": "string"
                },
                {
                  "internalType": "uint256",
                  "name": "amount",
                  "type": "uint256"
                },
                {
                  "internalType": "string",
                  "name": "marketId",
                  "type": "string"
                },
                {
                  "internalType": "enum SimpleBet.BetOutcome",
                  "name": "outcome",
                  "type": "uint8"
                },
                {
                  "internalType": "enum SimpleBet.BetStatus",
                  "name": "status",
                  "type": "uint8"
                },
                {
                  "internalType": "uint256",
                  "name": "payout",
                  "type": "uint256"
                }
              ],
              "internalType": "struct SimpleBet.SubBet[]",
              "name": "subBets",
              "type": "tuple[]"
            },
            {
              "internalType": "uint256",
              "name": "totalPayout",
              "type": "uint256"
            }
          ],
          "internalType": "struct SimpleBet.Bet[]",
          "name": "",
          "type": "tuple[]"
        }
      ],
      "stateMutability": "view",
      "type": "function"
    },
    {
      "inputs": [
        {
          "internalType": "bytes",
          "name": "token",
          "type": "bytes"
        },
        {
          "internalType": "uint256",
          "name": "betIndex",
          "type": "uint256"
        }
      ],
      "name": "getBet",
      "outputs": [
        {
          "components": [
            {
              "internalType": "uint256",
              "name": "id",
              "type": "uint256"
            },
            {
              "internalType": "address",
              "name": "user",
              "type": "address"
            },
            {
              "internalType": "uint256",
              "name": "totalAmount",
              "type": "uint256"
            },
            {
              "internalType": "enum SimpleBet.BetOutcome",
              "name": "outcome",
              "type": "uint8"
            },
            {
              "internalType": "enum SimpleBet.BetStatus",
              "name": "status",
              "type": "uint8"
            },
            {
              "internalType": "uint256",
              "name": "createdAt",
              "type": "uint256"
            },
            {
              "internalType": "string",
              "name": "description",
              "type": "string"
            },
            {
              "components": [
                {
                  "internalType": "string",
                  "name": "platform",
                  "type": "string"
                },
                {
                  "internalType": "uint256",
                  "name": "amount",
                  "type": "uint256"
                },
                {
                  "internalType": "string",
                  "name": "marketId",
                  "type": "string"
                },
                {
                  "internalType": "enum SimpleBet.BetOutcome",
                  "name": "outcome",
                  "type": "uint8"
                },
                {
                  "internalType": "enum SimpleBet.BetStatus",
                  "name": "status",
                  "type": "uint8"
                },
                {
                  "internalType": "uint256",
                  "name": "payout",
                  "type": "uint256"
                }
              ],
              "internalType": "struct SimpleBet.SubBet[]",
              "name": "subBets",
              "type": "tuple[]"
            },
            {
              "internalType": "uint256",
              "name": "totalPayout",
              "type": "uint256"
            }
          ],
          "internalType": "struct SimpleBet.Bet",
          "name": "",
          "type": "tuple"
        }
      ],
      "stateMutability": "view",
      "type": "function"
    },
    {
      "inputs": [
        {
          "internalType": "bytes",
          "name": "token",
          "type": "bytes"
        },
        {
          "internalType": "uint256",
          "name": "betId",
          "type": "uint256"
        }
      ],
      "name": "getBetSummary",
      "outputs": [
        {
          "internalType": "uint256",
          "name": "id",
          "type": "uint256"
        },
        {
          "internalType": "address",
          "name": "user",
          "type": "address"
        },
        {
          "internalType": "uint256",
          "name": "totalAmount",
          "type": "uint256"
        },
        {
          "internalType": "enum SimpleBet.BetStatus",
          "name": "status",
          "type": "uint8"
        },
        {
          "internalType": "uint256",
          "name": "createdAt",
          "type": "uint256"
        },
        {
          "internalType": "string",
          "name": "description",
          "type": "string"
        },
        {
          "internalType": "uint256",
          "name": "subBetCount",
          "type": "uint256"
        },
        {
          "internalType": "uint256",
          "name": "totalPayout",
          "type": "uint256"
        }
      ],
      "stateMutability": "view",
      "type": "function"
    },
    {
      "inputs": [],
      "name": "getContractBalance",
      "outputs": [
        {
          "internalType": "uint256",
          "name": "",
          "type": "uint256"
        }
      ],
      "stateMutability": "view",
      "type": "function"
    },
    {
      "inputs": [],
      "name": "getOwner",
      "outputs": [
        {
          "internalType": "address",
          "name": "",
          "type": "address"
        }
      ],
      "stateMutability": "view",
      "type": "function"
    },
    {
      "inputs": [
        {
          "internalType": "bytes",
          "name": "token",
          "type": "bytes"
        },
        {
          "internalType": "uint256",
          "name": "betId",
          "type": "uint256"
        }
      ],
      "name": "getSubBets",
      "outputs": [
        {
          "components": [
            {
              "internalType": "string",
              "name": "platform",
              "type": "string"
            },
            {
              "internalType": "uint256",
              "name": "amount",
              "type": "uint256"
            },
            {
              "internalType": "string",
              "name": "marketId",
              "type": "string"
            },
            {
              "internalType": "enum SimpleBet.BetOutcome",
              "name": "outcome",
              "type": "uint8"
            },
            {
              "internalType": "enum SimpleBet.BetStatus",
              "name": "status",
              "type": "uint8"
            },
            {
              "internalType": "uint256",
              "name": "payout",
              "type": "uint256"
            }
          ],
          "internalType": "struct SimpleBet.SubBet[]",
          "name": "",
          "type": "tuple[]"
        }
      ],
      "stateMutability": "view",
      "type": "function"
    },
    {
      "inputs": [],
      "name": "getTotalBets",
      "outputs": [
        {
          "internalType": "uint256",
          "name": "",
          "type": "uint256"
        }
      ],
      "stateMutability": "view",
      "type": "function"
    },
    {
      "inputs": [
        {
          "internalType": "address",
          "name": "user",
          "type": "address"
        }
      ],
      "name": "getUserBetCount",
      "outputs": [
        {
          "internalType": "uint256",
          "name": "",
          "type": "uint256"
        }
      ],
      "stateMutability": "view",
      "type": "function"
    },
    {
      "inputs": [
        {
          "internalType": "bytes",
          "name": "token",
          "type": "bytes"
        },
        {
          "internalType": "uint256",
          "name": "offset",
          "type": "uint256"
        },
        {
          "internalType": "uint256",
          "name": "count",
          "type": "uint256"
        }
      ],
      "name": "getUserBets",
      "outputs": [
        {
          "components": [
            {
              "internalType": "uint256",
              "name": "id",
              "type": "uint256"
            },
            {
              "internalType": "address",
              "name": "user",
              "type": "address"
            },
            {
              "internalType": "uint256",
              "name": "totalAmount",
              "type": "uint256"
            },
            {
              "internalType": "enum SimpleBet.BetOutcome",
              "name": "outcome",
              "type": "uint8"
            },
            {
              "internalType": "enum SimpleBet.BetStatus",
              "name": "status",
              "type": "uint8"
            },
            {
              "internalType": "uint256",
              "name": "createdAt",
              "type": "uint256"
            },
            {
              "internalType": "string",
              "name": "description",
              "type": "string"
            },
            {
              "components": [
                {
                  "internalType": "string",
                  "name": "platform",
                  "type": "string"
                },
                {
                  "internalType": "uint256",
                  "name": "amount",
                  "type": "uint256"
                },
                {
                  "internalType": "string",
                  "name": "marketId",
                  "type": "string"
                },
                {
                  "internalType": "enum SimpleBet.BetOutcome",
                  "name": "outcome",
                  "type": "uint8"
                },
                {
                  "internalType": "enum SimpleBet.BetStatus",
                  "name": "status",
                  "type": "uint8"
                },
                {
                  "internalType": "uint256",
                  "name": "payout",
                  "type": "uint256"
                }
              ],
              "internalType": "struct SimpleBet.SubBet[]",
              "name": "subBets",
              "type": "tuple[]"
            },
            {
              "internalType": "uint256",
              "name": "totalPayout",
              "type": "uint256"
            }
          ],
          "internalType": "struct SimpleBet.Bet[]",
          "name": "",
          "type": "tuple[]"
        }
      ],
      "stateMutability": "view",
      "type": "function"
    },
    {
      "inputs": [
        {
          "internalType": "string",
          "name": "siweMsg",
          "type": "string"
        },
        {
          "components": [
            {
              "internalType": "bytes32",
              "name": "r",
              "type": "bytes32"
            },
            {
              "internalType": "bytes32",
              "name": "s",
              "type": "bytes32"
            },
            {
              "internalType": "uint256",
              "name": "v",
              "type": "uint256"
            }
          ],
          "internalType": "struct SignatureRSV",
          "name": "sig",
          "type": "tuple"
        }
      ],
      "name": "login",
      "outputs": [
        {
          "internalType": "bytes",
          "name": "",
          "type": "bytes"
        }
      ],
      "stateMutability": "view",
      "type": "function"
    },
    {
      "inputs": [
        {
          "internalType": "uint256",
          "name": "amount",
          "type": "uint256"
        },
        {
          "internalType": "bytes",
          "name": "token",
          "type": "bytes"
        }
      ],
      "name": "ownerWithdraw",
      "outputs": [],
      "stateMutability": "nonpayable",
      "type": "function"
    },
    {
      "inputs": [
        {
          "internalType": "string",
          "name": "description",
          "type": "string"
        },
        {
          "internalType": "enum SimpleBet.BetOutcome",
          "name": "outcome",
          "type": "uint8"
        },
        {
          "internalType": "string[]",
          "name": "platforms",
          "type": "string[]"
        },
        {
          "internalType": "uint256[]",
          "name": "amounts",
          "type": "uint256[]"
        },
        {
          "internalType": "string[]",
          "name": "marketIds",
          "type": "string[]"
        }
      ],
      "name": "placeBet",
      "outputs": [],
      "stateMutability": "payable",
      "type": "function"
    },
    {
      "inputs": [
        {
          "internalType": "uint256",
          "name": "betId",
          "type": "uint256"
        },
        {
          "internalType": "bool",
          "name": "won",
          "type": "bool"
        },
        {
          "internalType": "bytes",
          "name": "token",
          "type": "bytes"
        }
      ],
      "name": "resolveBet",
      "outputs": [],
      "stateMutability": "nonpayable",
      "type": "function"
    },
    {
      "inputs": [
        {
          "internalType": "address",
          "name": "",
          "type": "address"
        }
      ],
      "name": "userBalances",
      "outputs": [
        {
          "internalType": "uint256",
          "name": "",
          "type": "uint256"
        }
      ],
      "stateMutability": "view",
      "type": "function"
    },
    {
      "inputs": [],
      "name": "withdrawBalance",
      "outputs": [],
      "stateMutability": "nonpayable",
      "type": "function"
    }
  ],
  "transactionHash": "0xa1898e73e7728db7810bec079ca0a18128c4ade31df1598da226a5a08e11983c",
  "args": [
    "testnet.sapphire.oasis.io"
  ],
  "numDeployments": 5,
  "solcInputHash": "04a1a3c986651ce8127841799b43197f",
  "bytecode": "0x6080604081815234620003395762003cb980380380916200002182866200033e565b843982016020928381830312620003395780516001600160401b039182821162000339570191601f9281848201121562000339578051620000628162000362565b9262000071875194856200033e565b818452878284010111620003395762000090918780850191016200037e565b83519085820182811084821117620003235785818887956080948452620000f960009586958695868552620000e0825195869388850198895280850152518092816060860152858501906200037e565b601f199c8d91011681010360608101845201826200033e565b51907301000000000000000000000000000000000000015afa3d156200031a573d90620001268262000362565b9162000135895193846200033e565b82523d838a84013e5b15620002d65787815191015190888110620002c4575b506002558151938411620002b05760019485548681811c91168015620002a5575b89821014620002915784811162000249575b5087938511600114620001e45750839495965092620001d8575b5050600019600383901b1c191690821b1781555b600455600380546001600160a01b03191633179055516139159081620003a48239f35b015190503880620001a1565b8493929193169685845280842093905b88821062000231575050838596971062000217575b505050811b018155620001b5565b015160001960f88460031b161c1916905538808062000209565b808785968294968601518155019501930190620001f4565b8683528883208580880160051c8201928b891062000287575b0160051c019087905b8281106200027b57505062000187565b8481550187906200026b565b9250819262000262565b634e487b7160e01b83526022600452602483fd5b90607f169062000175565b634e487b7160e01b81526041600452602490fd5b60001990890360031b1b163862000154565b865162461bcd60e51b815260048101899052601360248201527f72616e646f6d42797465733a206661696c6564000000000000000000000000006044820152606490fd5b6060906200013e565b634e487b7160e01b600052604160045260246000fd5b600080fd5b601f909101601f19168101906001600160401b038211908210176200032357604052565b6001600160401b0381116200032357601f01601f191660200190565b60005b838110620003925750506000910152565b81810151838201526020016200038156fe608080604052600436101561001357600080fd5b60003560e01c90816320ac792e146116855750806326224c64146116475780633bec53c6146116195780634bb30b75146114f45780634c4e262d1461148557806350d6756c1461121e5780635fd8c7101461112c5780636f9fb98a146111105780637f476b6f14610479578063893d20e814610450578063a3cb679d14610432578063ad6d46161461038f578063b624010a14610351578063c2fb26a614610312578063c627348d146102f8578063c6d87da9146101095763c908bea6146100da57600080fd5b34610104576101006100f46100ee366121f2565b9161323c565b60405191829182612227565b0390f35b600080fd5b346101045761011736612138565b6003805490916001600160a01b0391821633811415929091836102e1575b5050506102aa578115158061029f575b61014e906135ff565b600091600080600554905b81811061026f575b505061016c90613664565b61017583612ea6565b5082015460ff93600891821c85169060048210156102145761019d6101a29296959615613684565b612ea6565b5093808501936103009261ff001994848688541617875560009760068101985b895481101561022a5784866101d7838d612fc4565b500154851c16906004821015610214576101f591156101fa57612469565b6101c2565b86610205828d612fc4565b5001888a825416179055612469565b634e487b7160e01b600052602160045260246000fd5b506002604092947fb4810c14f5f90d64272bdaaa79adbcd7a5593b0be3da5c9073f83a6e05169a16948a54901c1691015461026783518093612078565b6020820152a2005b8361027982612ea6565b50541461028e5761028990612469565b610159565b94506001915061016c905085610161565b506004548210610145565b60405162461bcd60e51b815260206004820152600b60248201526a1b9bdd08185b1b1bddd95960aa1b6044820152606490fd5b0390fd5b6102ed9192935061335a565b161415838080610135565b34610104576101006100f461030c366121f2565b91613833565b346101045760003660031901126101045761010060405161033d81610336816122ef565b0382611f61565b604051918291602083526020830190612046565b34610104576020366003190112610104576004356001600160a01b038116908190036101045760005260066020526020604060002054604051908152f35b34610104576103c56103a036611ff2565b91906103aa61304d565b506001600160a01b03906103bd9061335a565b161515613001565b6005548110156103f8576103e46103de61010092612ea6565b506131a7565b604051918291602083526020830190612167565b60405162461bcd60e51b815260206004820152601260248201527110995d08191bd95cc81b9bdd08195e1a5cdd60721b6044820152606490fd5b34610104576000366003190112610104576020600554604051908152f35b34610104576000366003190112610104576003546040516001600160a01b039091168152602090f35b34610104576080366003190112610104576004356001600160401b038111610104576104a9903690600401611e7c565b906060366023190112610104576104be612289565b90600083807a184f03e93ff9f4daa797ed6e38ed64bf6a1f01000000000000000080821015611101575b50600a906d04ee2d6d415b85acef8100000000808210156110f4575b50662386f26fc10000808210156110e7575b506305f5e100808210156110da575b50612710808210156110cd575b5060648110156110bf575b10156110b5575b6001820190600a602161056f61055985611f82565b946105676040519687611f61565b808652611f82565b602085019590601f19013687378401015b60001901916f181899199a1a9b1b9c1cb0b131b232b360811b8282061a835304908682156105b15750600a90610580565b86866020600060808886610619603a8d6040519384916105fd8a8401977f19457468657265756d205369676e6564204d6573736167653a0a000000000000895251809286860190612023565b8201818b8583013701878382015203601a810184520182611f61565b51902060405190815260ff60643516848201526024356040820152604435606082015282805260015afa156110a9576000516001600160a01b0381166020840190815290926106666124ee565b5061066f6124ee565b916000945b868610611006575b6032860180871161076d576034870180911161076d57605c8701811161076d576106b590605c8801906106b0368b8a611f9d565b612697565b946028865103610ff4576106cc865160011c612580565b9760005b875160011c811015610783576001600160ff1b038116810361076d576107056106fc8260011b8a6125b2565b5160f81c6125d4565b60041b610ff0811660f082160361076d57600182811b01808360011b1161076d5760ff6107376106fc60f0938d6125b2565b169116019060ff821161076d576107689160f81b6001600160f81b03191660001a610762828d6125b2565b53612469565b6106d0565b634e487b7160e01b600052601160045260246000fd5b50605c888a60208151910151906bffffffffffffffffffffffff19918281169160148110610fdf575b505060601c60208a015250605e81019101811061076d578082811080610fbc575b610f5d575b5061089b61087161086a61083d6108106107ed600896612469565b6040516107f981611f2b565b600381526255524960e81b6020820152888a612761565b9060608d015260405161082281611f2b565b60078152662b32b939b4b7b760c91b60208201528789612761565b9060808c015260405161084f81611f2b565b8581526710da185a5b88125160c21b60208201528688612761565b9190612706565b60a08a015260405161088281611f2b565b60058152644e6f6e636560d81b60208201528486612761565b91908060c08a01525110610f4b576109456109146108df610976936040516108c281611f2b565b6009815268125cdcdd595908105d60ba1b60208201528688612761565b9060e08b01526040516108f181611f2b565b600f81526e45787069726174696f6e2054696d6560881b60208201528587612761565b906101008a015260405161092781611f2b565b600a8152694e6f74204265666f726560b01b60208201528486612761565b9061012089015260405161095881611f2b565b600a81526914995c5d595cdd08125160b21b60208201528385612761565b906101408801526109aa8160405161098d81611f2b565b60098152685265736f757263657360b81b60208201528486612761565b8092915003610cbf575b50505060a08401514603610cad578351602081519101206040516109db81610336816122ef565b6020815191012003610c9b578351835260208401516001600160a01b03918216911603610c8957610120830151805115159081610c76575b50610c64576101008301515115610c4d57610a326101008401516128c0565b60408301525b60408201918251421015610c3b5761016060408501519460608301958652019283515192610a8f610a6885612435565b94610a766040519687611f61565b808652610a85601f1991612435565b016020860161244c565b6080830193845260005b85518051821015610ad55790610aca81610ab681610ad095612478565b51885190610ac48383612478565b52612478565b50612469565b610a99565b505083610b2a8760025494610aff604051976020808a01525160a060408a015260e0890190612046565b94516001600160a01b0316606088015251608087015251603f19868503810160a08801529390612046565b9051918482030160c0850152815180825260208201916020808360051b8301019401926000915b838310610c0e57600080888a610b70818b03601f198101835282611f61565b610ba560405191610b8083611f46565b848352610b9760405193849260208401968761248c565b03601f198101835282611f61565b51906003600160981b015afa610bb96124be565b9015610bd75761010090604051918291602083526020830190612046565b60405162461bcd60e51b815260206004820152600f60248201526e195b98dc9e5c1d0e8819985a5b1959608a1b6044820152606490fd5b9091929394602080610c2c600193601f198682030187528951612046565b97019301930191939290610b51565b604051630b17115560e41b8152600490fd5b62015180420180421161076d576040830152610a38565b60405163299d02f160e01b8152600490fd5b610c8091506128c0565b42111584610a13565b6040516305cc02e160e01b8152600490fd5b60405163283d62bd60e01b8152600490fd5b60405163362c833760e01b8152600490fd5b809694929593919681956000965b8960001981011161076d576000198a01811015610f3c57602d60f81b6001600160f81b0319610cfd838d8d61255a565b35161480610f0d575b15610d83576002810180911161076d57610d209097612469565b95965b89811080610d60575b15610d3f57610d3a90612469565b610d23565b610d5190999791929394959699612469565b98969895949392919095610ccd565b50600560f91b6001600160f81b0319610d7a838d8d61255a565b35161415610d2c565b509093929591949796975b610d9783612435565b95610da56040519788611f61565b838752610dc1601f19610db786612435565b016020890161244c565b936000975b6000198a018a811161076d57861080610f03575b15610eea57602d60f81b6001600160f81b0319610df8888d8f61255a565b35161480610ebb575b610ea5575b945b89811080610e82575b15610e2457610e1f90612469565b610e08565b97610e5690610e418a896106b0989e99959697988e36908c611f9d565b610e4b828b612478565b52610aca818a612478565b97898114610e73575b610e6890612469565b949993929190610dc6565b801561076d5760001901610e5f565b50600560f91b6001600160f81b0319610e9c838d8f61255a565b35161415610e11565b955060028501851161076d576002850195610e06565b5060018601861161076d57600160fd1b6001600160f81b0319610ee2600189018d8f61255a565b351614610e01565b96955096509650965050506101608501528480806109b4565b5084891415610dda565b5060018101811161076d57600160fd1b6001600160f81b0319610f34600184018d8d61255a565b351614610d06565b50909392959194979697610d8e565b604051632d2f00c360e21b8152600490fd5b828110156107d257600560f91b6001600160f81b0319610f7e83868861255a565b351614610f9357610f8e90612469565b610f5d565b9081610fa4916106b0368688611f9d565b60408801526001810180911161076d5761089b6107d2565b50600560f91b6001600160f81b0319610fd683868861255a565b351614156107cd565b8391925060140360031b1b1616808a806107ac565b60405163acf8696960e01b8152600490fd5b94600160fd1b6001600160f81b0319611020838a8961255a565b3516146110365761103090612469565b94610674565b919592611047949194368584611f9d565b9661105184612580565b9560005b8581108061109f575b1561108e57611089906001600160f81b031961107a828d6125b2565b511660001a610762828b6125b2565b611055565b50929590939691949750845261067c565b508951811061105e565b6040513d6000823e3d90fd5b9060010190610544565b60646002910493019261053d565b6004910493019287610532565b6008910493019287610525565b6010910493019287610516565b6020910493019287610504565b6040935086049050600a6104e8565b3461010457600036600319011261010457602047604051908152f35b346101045760003660031901126101045733600052600760205260406000205480156111e05733600052600760205260006040812055600080808084335af16111736124be565b50156111a7576040519081527feaff4b37086828766ad3268786972c0cd24259d4c87a80f9d3963a3c3d999b0d60203392a2005b60405162461bcd60e51b815260206004820152601160248201527015da5d1a191c985dd85b0819985a5b1959607a1b6044820152606490fd5b60405162461bcd60e51b81526020600482015260166024820152754e6f2062616c616e636520746f20776974686472617760501b6044820152606490fd5b3461010457606036600319011261010457602460043581358015158103610104576044356001600160401b0381116101045761125e903690600401611fd4565b600380546001600160a01b0392908316338114159184908361146e575b5050506102aa5783151580611463575b611294906135ff565b6000806000600554905b818110611434575b50506112b190613664565b60ff826112bd83612ea6565b50015460081c1690600482101561141f5761019d6112db9215613684565b5060009160068201835b81548110156113bb576112f88183612fc4565b5090871561137c57818401805461ff001916610100179055600180830154909681881b938215600284870414171561136757848a9261136296600461133e940155612428565b9787015416600052600760205261135b6040600020918254612428565b9055612469565b6112e5565b8c634e487b7160e01b60005260116004526000fd5b8184611362930161020061ff001982541617905560006004820155876001809201549187015416600052600760205261135b604060002091825461268a565b50506040935082600760ff937fb4810c14f5f90d64272bdaaa79adbcd7a5593b0be3da5c9073f83a6e05169a1697600014611414576114006001945b82019485612ef8565b01555460081c169061026783518093612078565b6114006002946113f7565b86634e487b7160e01b60005260216004526000fd5b8761143e82612ea6565b5054146114535761144e90612469565b61129e565b925050506112b1600190886112a6565b50600454841061128b565b61147a9192935061335a565b16141586838161127b565b34610104576114e56114cf6114a261149c36611ff2565b90613759565b959894604098929491979851998a998a5260018060a01b031660208a015260408901526060880190612078565b60808601526101008060a0870152850190612046565b9160c084015260e08301520390f35b346101045761150236612138565b6003546001600160a01b03919082169033821415908290849083611602575b5050506102aa574783116115bd57600080808581945af16115406124be565b50156115785760207feaff4b37086828766ad3268786972c0cd24259d4c87a80f9d3963a3c3d999b0d916003541692604051908152a2005b60405162461bcd60e51b815260206004820152601760248201527f4f776e6572207769746864726177616c206661696c65640000000000000000006044820152606490fd5b60405162461bcd60e51b815260206004820152601d60248201527f496e73756666696369656e7420636f6e74726163742062616c616e63650000006044820152606490fd5b61160e9192935061335a565b161415818386611521565b346101045761010061163361162d36611ff2565b906136c7565b604051918291602083526020830190612085565b34610104576020366003190112610104576004356001600160a01b038116908190036101045760005260076020526020604060002054604051908152f35b60a0366003190112610104576004356001600160401b038111610104576116b0903690600401611e7c565b909160026024351015610104576044356001600160401b038111610104576116dc903690600401611ea9565b9390916064356001600160401b038111610104576116fe903690600401611ea9565b90916084356001600160401b0381116101045761171f903690600401611ea9565b90913415611e3057508715611deb5782881480611de2575b15611d9d576000805b848110611d1057503403611cb8576004549661175b88612469565b600455600554600160401b8110156118f557600181018060055561177e82612ea6565b5050811161076d5761178f90612ea6565b508881556001810180546001600160a01b0319163317905534600282015595600387016117be60243582612ee0565b805461ff00191690554260048801556001600160401b0382116118f55781906117f7826117ee60058b01546122b5565b60058b01612f17565b600090601f8311600114611c4757600092611c3c575b50508160011b916000199060031b1c19161760058601555b6000600786015560005b88811061190b57888833600052600660205260406000206005546000199182820191821161076d57805490600160401b8210156118f557600182018082558210156118df57600052602060002001553360005260076020526040600020611897348254612428565b905560055490810190811161076d5760405192348452602084015260408301527fab2115bac1de808eb7fe2be0309085b11f1f42b1eb980de8352efefdbfc098e260603393a3005b634e487b7160e01b600052603260045260246000fd5b634e487b7160e01b600052604160045260246000fd5b8061191a61195b928b8a612f6b565b929061194d61192a84898b612e96565b3561193685888a612f6b565b9290936040519761194689611ed9565b3691611f9d565b865260208601523691611f9d565b604083015261196f60243560608401612fac565b60006080830152600060a0830152600687018054600160401b8110156118f55761199e91600182018155612fc4565b611c265782518051906001600160401b0382116118f55781906119cb826119c586546122b5565b86612f17565b602090601f8311600114611bba57600092611baf575b50508160011b916000199060031b1c19161781555b6020830151600182015560408301518051906001600160401b0382116118f5578190611a3282611a2960028701546122b5565b60028701612f17565b602090601f8311600114611b3d57600092611b32575b50508160011b916000199060031b1c19161760028201555b6060830151600281101561021457611a7b9060038301612ee0565b60808301519260048410156102145760a0600491611a9f611b2d9660038601612ef8565b0151910155887ff1e09724ef7fd9973aeb6cb8f9b0df6826740ff52c43ae1cea8d4042289b5353611ad1838d8c612f6b565b611b16611adf868b8d612e96565b35611aeb878a8c612f6b565b90611b03604051968796608088526080880191612fe0565b9260208601528483036040860152612fe0565b611b256060830160243561206b565b0390a2612469565b61182f565b015190508d80611a48565b9250600284016000526020600020906000935b601f1984168510611b94576001945083601f19811610611b7b575b505050811b016002820155611a60565b015160001960f88460031b161c191690558d8080611b6b565b81810151835560209485019460019093019290910190611b50565b015190508d806119e1565b9250836000526020600020906000935b601f1984168510611c0b576001945083601f19811610611bf2575b505050811b0181556119f6565b015160001960f88460031b161c191690558d8080611be5565b81810151835560209485019460019093019290910190611bca565b634e487b7160e01b600052600060045260246000fd5b013590508a8061180d565b909250600588016000526020600020906000935b601f1984168510611ca0576001945083601f19811610611c86575b505050811b016005860155611825565b0135600019600384901b60f8161c191690558a8080611c76565b81810135835560209485019460019093019201611c5b565b60405162461bcd60e51b815260206004820152602a60248201527f546f74616c2073756262657420616d6f756e7473206d75737420657175616c2060448201526973656e742076616c756560b01b6064820152608490fd5b90611d1c828688612e96565b3515611d4657611d3b611d4191611d3484888a612e96565b3590612428565b91612469565b611740565b60405162461bcd60e51b815260206004820152602960248201527f456163682073756262657420616d6f756e74206d75737420626520677265617460448201526806572207468616e20360bc1b6064820152608490fd5b60405162461bcd60e51b815260206004820152601860248201527f4172726179206c656e67746873206d757374206d6174636800000000000000006044820152606490fd5b50808314611737565b60405162461bcd60e51b815260206004820152601c60248201527f4174206c65617374206f6e6520737562626574207265717569726564000000006044820152606490fd5b62461bcd60e51b815260206004820152602160248201527f42657420616d6f756e74206d7573742062652067726561746572207468616e206044820152600360fc1b6064820152608490fd5b9181601f84011215610104578235916001600160401b038311610104576020838186019501011161010457565b9181601f84011215610104578235916001600160401b038311610104576020808501948460051b01011161010457565b60c081019081106001600160401b038211176118f557604052565b60a081019081106001600160401b038211176118f557604052565b61012081019081106001600160401b038211176118f557604052565b604081019081106001600160401b038211176118f557604052565b602081019081106001600160401b038211176118f557604052565b90601f801991011681019081106001600160401b038211176118f557604052565b6001600160401b0381116118f557601f01601f191660200190565b929192611fa982611f82565b91611fb76040519384611f61565b829481845281830111610104578281602093846000960137010152565b9080601f8301121561010457816020611fef93359101611f9d565b90565b604060031982011261010457600435906001600160401b0382116101045761201c91600401611fd4565b9060243590565b60005b8381106120365750506000910152565b8181015183820152602001612026565b9060209161205f81518092818552858086019101612023565b601f01601f1916010190565b9060028210156102145752565b9060048210156102145752565b908082519081815260208091019281808460051b8301019501936000915b8483106120b35750505050505090565b9091929394958480600192601f198582030186528951906120fa6120df835160c0808552840190612046565b84840151858401526040808501519084830390850152612046565b9161210d6060808301519084019061206b565b61211f60808083015190840190612078565b60a08091015191015298019301930191949392906120a3565b9060406003198301126101045760043591602435906001600160401b03821161010457611fef91600401611fd4565b908151815260018060a01b0360208301511660208201526040820151604082015261219a6060830151606083019061206b565b6121ac60808301516080830190612078565b60a082015160a08201526121e46121d260c08401516101208060c0860152840190612046565b60e084015183820360e0850152612085565b916101008091015191015290565b606060031982011261010457600435906001600160401b0382116101045761221c91600401611fd4565b906024359060443590565b602080820190808352835180925260408301928160408460051b8301019501936000915b84831061225b5750505050505090565b9091929394958480612279600193603f198682030187528a51612167565b980193019301919493929061224b565b6040519061229682611ef4565b6060608083828152600060208201526000604082015282808201520152565b90600182811c921680156122e5575b60208310146122cf57565b634e487b7160e01b600052602260045260246000fd5b91607f16916122c4565b90600091600190815491612302836122b5565b80835292818116908115612375575060011461231d57505050565b80929394506000527fb10e2d527612073b26eecdfd717e6a320cf44b4afac2b0732d9fcbe2b7fa0cf6916000925b84841061235d57505060209250010190565b8054602085850181019190915290930192810161234b565b915050602093945060ff929192191683830152151560051b010190565b90600092918054916123a3836122b5565b91828252600193848116908160001461240557506001146123c5575b50505050565b90919394506000526020928360002092846000945b8386106123f15750505050010190388080806123bf565b8054858701830152940193859082016123da565b9294505050602093945060ff191683830152151560051b010190388080806123bf565b9190820180921161076d57565b6001600160401b0381116118f55760051b60200190565b60005b82811061245b57505050565b60608282015260200161244f565b600019811461076d5760010190565b80518210156118df5760209160051b010190565b916124b090611fef9492845260006020850152608060408501526080840190612046565b916060818403910152612046565b3d156124e9573d906124cf82611f82565b916124dd6040519384611f61565b82523d6000602084013e565b606090565b6040519061018082018281106001600160401b038211176118f55760405281610160606091828152600060208201528260408201528280820152826080820152600060a08201528260c08201528260e08201528261010082015282610120820152826101408201520152565b908210156118df570190565b6040519061257382611f2b565b6002825260203681840137565b9061258a82611f82565b6125976040519182611f61565b82815280926125a8601f1991611f82565b0190602036910137565b9081518110156118df570160200190565b60ff16600a019060ff821161076d57565b60f881901b6001600160f81b031916600360fc1b8110158061267c575b61266857606160f81b8110158061265a575b61264b57604160f81b811015908161263c575b506126215750600090565b60ff61262f604019926125c3565b160160ff811161076d5790565b602360f91b1015905038612616565b5060ff61262f606019926125c3565b50603360f91b811115612603565b5060ff602f1991160160ff811161076d5790565b50603960f81b8111156125f1565b9190820391821161076d57565b9290926126ac6126a7858561268a565b612580565b91845b848110806126fc575b156126f3576126ee906001600160f81b03196126d482866125b2565b51166107626126e3898461268a565b9160001a91876125b2565b6126af565b50935050905090565b50825181106126b8565b90600091825b815184101561275c57600a9081810291818304149015171561076d5761273284836125b2565b5160f81c90602f19820191821161076d576127569161275091612428565b93612469565b9261270c565b925050565b909392919382945b8186106127f6575b505b80851061278f57916106b0859261278b943691611f9d565b9190565b9193600560f91b6001600160f81b03196127aa83868661255a565b3516146127c1576127ba90612469565b9391612773565b936106b085926127d2943691611f9d565b600183018093116127e1579190565b60246000634e487b7160e01b81526011600452fd5b94909291906001600160f81b0319601d60f91b8161281584888761255a565b351614612830575061282690612469565b9492909192612769565b9561284582856106b096949596368989611f9d565b908151602080930120918151910120036128a7575061286390612469565b93828510908161288c575b5061287c575b839182612771565b9261288690612469565b92612874565b600160fd1b915061289e86858561255a565b3516143861286e565b94505050506040516128b881611f46565b600081529190565b906040516128cd81611f2b565b60048082526020368184013760005b81811080612e26575b1561291557612910906001600160f81b031961290182886125b2565b511660001a61076282866125b2565b6128dc565b50926129269161ffff928391612706565b1692612930612566565b926005805b6007811080612e1c575b15612993576001600160f81b031961295782876125b2565b516004198301911682821161297e5790610762612979939260001a91896125b2565b612935565b60118a634e487b7160e01b6000525260246000fd5b509091946129a59460ff958691612706565b16946129af612566565b9560085b600a811080612e12575b15612a11576001600160f81b03196129d582896125b2565b51600719830191168282116129fc57906107626129f7939260001a918b6125b2565b6129b3565b60118c634e487b7160e01b6000525260246000fd5b5091939690612a21819497612706565b1690612a2b612566565b96600b5b600d811080612e08575b15612a8d576001600160f81b0319612a51828a6125b2565b51600a1983019116828211612a785790610762612a73939260001a918c6125b2565b612a2f565b60118d634e487b7160e01b6000525260246000fd5b509193612a9f81989992949699612706565b1697612aa9612566565b97600e5b6010811080612dfe575b15612b0b576001600160f81b0319612acf828b6125b2565b51600d1983019116828211612af65790610762612af1939260001a918d6125b2565b612aad565b60118e634e487b7160e01b6000525260246000fd5b50612b1d819395979a92949699612706565b1692612b27612566565b9860115b6013811080612df4575b15612b89576001600160f81b0319612b4d828c6125b2565b5160101983019116828211612b7457610762612b6f93928e9260001a926125b2565b612b2b565b60118f634e487b7160e01b6000525260246000fd5b509295999194988691949850612ba1909b979b612706565b16986000936107b25b818b821610612d9b5750604051906101808083018381106001600160401b03821117612d8657604052368337612be4601f91828452612e5d565b15612d7657601d6020830152929190925b806040850152601e6060850152806080850152601e60a08501528060c08501528060e0850152601e61010085015280610120850152601e610140850152610160840152600192839283945b612cec575b505050505060001901838111612cd757610e1091612c7591612c6e63ffffffff96879216612e43565b1690612428565b9102918216918203612cc257603c91612c8d91612428565b9202928316928303612cad5750611fef9291612ca891612428565b612428565b601190634e487b7160e01b6000525260246000fd5b601183634e487b7160e01b6000525260246000fd5b601185634e487b7160e01b6000525260246000fd5b90919293958b871682811015612d6f57600019018c8111612d5a57600c8d82161015612d4557612d3b91621fffe0612c6e612d359363ffffffff9283918a1b1688015116612e43565b96612e30565b9392919083612c40565b60328b634e487b7160e01b6000525260246000fd5b60118b634e487b7160e01b6000525260246000fd5b5095612c45565b601c602083015292919092612bf5565b60418b634e487b7160e01b6000525260246000fd5b94612da586612e5d565b15612ddc576301e285008101809111612dc757612dc29095612e30565b612baa565b601189634e487b7160e01b6000525260246000fd5b6301e133808101809111612dc757612dc29095612e30565b5089518110612b35565b5088518110612ab7565b5087518110612a39565b50865181106129bd565b508451811061293f565b50845181106128e5565b61ffff80911690811461076d5760010190565b906201518063ffffffff8093160291821691820361076d57565b60038116612e905761ffff809116816064820616612e8957610190900616612e8457600190565b600090565b5050600190565b50600090565b91908110156118df5760051b0190565b6005548110156118df57600560005260031b7f036b6384b5eca791c62761152d0c79bb0604c104a5fb6f4eb0703f3154bb3db00190600090565b9060028110156102145760ff80198354169116179055565b9060048110156102145761ff0082549160081b169061ff001916179055565b90601f8111612f2557505050565b600091825260208220906020601f850160051c83019410612f61575b601f0160051c01915b828110612f5657505050565b818155600101612f4a565b9092508290612f41565b91908110156118df5760051b81013590601e19813603018212156101045701908135916001600160401b038311610104576020018236038113610104579190565b60028210156102145752565b60048210156102145752565b80548210156118df576000526005602060002091020190600090565b908060209392818452848401376000828201840152601f01601f1916010190565b1561300857565b60405162461bcd60e51b815260206004820152601c60248201527f496e76616c69642061757468656e7469636174696f6e20746f6b656e000000006044820152606490fd5b6040519061305a82611f0f565b816101006000918281528260208201528260408201528260608201528260808201528260a0820152606060c0820152606060e08201520152565b9061309e82612435565b6130ab6040519182611f61565b82815280926130bc601f1991612435565b019060005b8281106130cd57505050565b6020906130d861304d565b828285010152016130c1565b9081546130f081612435565b9260409361310085519182611f61565b828152809460208092019260005281600020906000935b85851061312657505050505050565b600584600192845161313781611ed9565b855161314781610336818b612392565b815284870154838201528551613164816103368160028c01612392565b8682015261318f600388015460ff9061318282821660608601612fac565b60081c1660808301612fb8565b600487015460a0820152815201930194019391613117565b906040516131b481611f0f565b610100600782948054845260018060a01b0360018201541660208501526002810154604085015261320160ff60038301546131f482821660608901612fac565b60081c1660808601612fb8565b600481015460a085015260405161321f816103368160058601612392565b60c0850152613230600682016130e4565b60e08501520154910152565b6001600160a01b039061324e9061335a565b169161325b831515613001565b60009283526020926006845260408120936040518095869183825491828152019185528385209385905b8282106133405750505061329b92500385611f61565b835183101561332a57506132af9082612428565b908251808311613322575b506132cd6132c8828461268a565b613094565b92815b8381106132de575050505090565b80610aca6132f86132f261331d9486612478565b51612ea6565b5061330c613306878561268a565b916131a7565b613316828a612478565b5287612478565b6132d0565b9150386132ba565b925050506040519061333b82611f46565b815290565b855484526001958601958a95509381019390910190613285565b80516020820120600052600060205260ff6040600020541661337f57611fef90613391565b6040516313d4cf0960e31b8152600490fd5b805115612e90576133a0612289565b50610b976002546133d56040918251906133b982611f46565b60009485938385809552865192839160209a8b8401968761248c565b51906004600160981b015afa926133ea6124be565b9315613589578351840190808201818684031261358557818601516001600160401b0396878211613581579060a09101809403126135855783519061342e82611ef4565b82840151878111613581578184613447928701016135bd565b8252838501516001600160a01b0397909690888816880361357d57848401978852606086015195878501968752608081015182811161357957848761348e928401016135bd565b606086015260a08101519082821161357957019280603f850112156135725785840151916134bb83612435565b946134c88a519687611f61565b838652898887019460051b82010194838611613576578a8201945b86861061354d5750505050505050608082015251818151910120908351906135158261350e816122ef565b0383611f61565b81519101200361353c5751421161352c5750511690565b51630b17115560e41b8152600490fd5b815163283d62bd60e01b8152600490fd5b8551848111613572578a91613567878f85948801016135bd565b8152019501946134e3565b8280fd5b80fd5b8380fd5b5080fd5b8680fd5b8480fd5b606491519062461bcd60e51b82526004820152600f60248201526e191958dc9e5c1d0e8819985a5b1959608a1b6044820152fd5b81601f820112156101045780516135d381611f82565b926135e16040519485611f61565b8184526020828401011161010457611fef9160208085019101612023565b1561360657565b60405162461bcd60e51b815260206004820152600e60248201526d125b9d985b1a590818995d08125160921b6044820152606490fd5b60609060208152600d60208201526c10995d081b9bdd08199bdd5b99609a1b60408201520190565b1561366b57565b60405162461bcd60e51b8152806102dd6004820161363c565b1561368b57565b60405162461bcd60e51b815260206004820152601460248201527310995d08185b1c9958591e481c995cdbdb1d995960621b6044820152606490fd5b6136dd906001600160a01b03906103bd9061335a565b8015158061374e575b6136ef906135ff565b6005549060005b8281106137165760405162461bcd60e51b8152806102dd6004820161363c565b8161372082612ea6565b5054146137355761373090612469565b6136f6565b611fef92506006915061374790612ea6565b50016130e4565b5060045481106136e6565b6001600160a01b0391906137729083906103bd9061335a565b80151580613828575b613784906135ff565b6000916005918254935b8481106137ae5760405162461bcd60e51b8152806102dd6004820161363c565b816137b882612ea6565b5054146137cd576137c890612469565b61378e565b90506137db91929350612ea6565b50928354916001850154169360028101549360ff600383015460081c169360048301549360068401549261382360078601549399989796956103366040518094819301612392565b929190565b50600454811061377b565b90919061384c906001600160a01b03906103bd9061335a565b60055490818310156138c9576138629083612428565b908082116138c1575b506138796132c8838361268a565b91805b8281106138895750505090565b80610aca61389d61019d6138bc9486612428565b506138ab613306868561268a565b6138b58289612478565b5286612478565b61387c565b90503861386b565b5050506040516138d881611f46565b600081529056fea2646970667358221220386b39d0e3a7672d02bd38b20b213bdfbc5ce6a214b9982be52b67c328494f6564736f6c63430008140033",
  "devdoc": {
    "details": "A simple betting smart contract with SiweAuth integration for Oasis Sapphire Users can place bets, contract acts as escrow, and owner can manage funds",
    "kind": "dev",
    "methods": {
      "cancelBet(uint256,bytes)": {
        "details": "Cancel a bet and refund (only owner)",
        "params": {
          "betId": "The bet ID to cancel",
          "token": "SIWE authentication token for owner"
        }
      },
      "domain()": {
        "returns": {
          "_0": "The domain string"
        }
      },
      "getAllBets(bytes,uint256,uint256)": {
        "details": "Get all bet metadata (paginated) - requires SIWE authentication",
        "params": {
          "count": "Number of bets to return",
          "offset": "Pagination offset",
          "token": "SIWE authentication token"
        }
      },
      "getBet(bytes,uint256)": {
        "details": "Get a specific bet by index - requires SIWE authentication",
        "params": {
          "betIndex": "Index of the bet in the _betMetas array",
          "token": "SIWE authentication token"
        }
      },
      "getBetSummary(bytes,uint256)": {
        "details": "Get bet summary with subbet count (requires SIWE authentication)",
        "params": {
          "betId": "The bet ID to get summary for",
          "token": "SIWE authentication token"
        }
      },
      "getContractBalance()": {
        "details": "Get contract balance"
      },
      "getOwner()": {
        "details": "Get owner address"
      },
      "getSubBets(bytes,uint256)": {
        "details": "Get subbets for a specific bet (requires SIWE authentication)",
        "params": {
          "betId": "The bet ID to get subbets for",
          "token": "SIWE authentication token"
        }
      },
      "getTotalBets()": {
        "details": "Get total number of bets"
      },
      "getUserBetCount(address)": {
        "details": "Get user's total bet count",
        "params": {
          "user": "User address"
        }
      },
      "getUserBets(bytes,uint256,uint256)": {
        "details": "Get user's bets using SIWE authentication",
        "params": {
          "count": "Number of bets to return",
          "offset": "Pagination offset",
          "token": "SIWE authentication token"
        }
      },
      "login(string,(bytes32,bytes32,uint256))": {
        "params": {
          "sig": "The signature of the SIWE message",
          "siweMsg": "The signed SIWE message"
        },
        "returns": {
          "_0": "The encrypted authentication token"
        }
      },
      "ownerWithdraw(uint256,bytes)": {
        "details": "Owner withdraws contract funds (only owner)",
        "params": {
          "amount": "Amount to withdraw",
          "token": "SIWE authentication token for owner"
        }
      },
      "placeBet(string,uint8,string[],uint256[],string[])": {
        "details": "Place a bet with subbets across multiple platforms",
        "params": {
          "amounts": "Array of amounts for each platform",
          "description": "Description of the bet (private)",
          "marketIds": "Array of market IDs for each platform",
          "outcome": "Overall outcome for all subbets (YES/NO)",
          "platforms": "Array of platform names"
        }
      },
      "resolveBet(uint256,bool,bytes)": {
        "details": "Resolve a bet and all its subbets (only owner)",
        "params": {
          "betId": "The bet ID to resolve",
          "token": "SIWE authentication token for owner",
          "won": "Whether the bet won or lost"
        }
      },
      "withdrawBalance()": {
        "details": "Withdraw user balance"
      }
    },
    "title": "SimpleBet",
    "version": 1
  },
  "userdoc": {
    "errors": {
      "A13e_RevokedAuthToken()": [
        {
          "notice": "The authentication token was revoked"
        }
      ],
      "SiweAuth_AddressMismatch()": [
        {
          "notice": "User address in the SIWE message does not match the message signer's address"
        }
      ],
      "SiweAuth_ChainIdMismatch()": [
        {
          "notice": "Chain ID in the SIWE message does not match the actual chain ID"
        }
      ],
      "SiweAuth_DomainMismatch()": [
        {
          "notice": "Domain in the SIWE message does not match the domain of a dApp"
        }
      ],
      "SiweAuth_Expired()": [
        {
          "notice": "Validity of the authentication token or the Expires value in the SIWE message is in the past"
        }
      ],
      "SiweAuth_NotBeforeInFuture()": [
        {
          "notice": "The Not before value in the SIWE message is still in the future"
        }
      ],
      "SiweParser_InvalidAddressLength()": [
        {
          "notice": "Invalid length of the hex-encoded address"
        }
      ],
      "SiweParser_InvalidNonce()": [
        {
          "notice": "Invalid length of the nonce"
        }
      ]
    },
    "kind": "user",
    "methods": {
      "domain()": {
        "notice": "Return the domain associated with the dApp."
      },
      "login(string,(bytes32,bytes32,uint256))": {
        "notice": "Login using a SIWE message and signature"
      }
    },
    "version": 1
  },
  "storageLayout": {
    "storage": [
      {
        "astId": 2352,
        "contract": "contracts/SimpleBet.sol:SimpleBet",
        "label": "_revokedAuthTokens",
        "offset": 0,
        "slot": "0",
        "type": "t_mapping(t_bytes32,t_bool)"
      },
      {
        "astId": 2436,
        "contract": "contracts/SimpleBet.sol:SimpleBet",
        "label": "_domain",
        "offset": 0,
        "slot": "1",
        "type": "t_string_storage"
      },
      {
        "astId": 2439,
        "contract": "contracts/SimpleBet.sol:SimpleBet",
        "label": "_authTokenEncKey",
        "offset": 0,
        "slot": "2",
        "type": "t_bytes32"
      },
      {
        "astId": 4309,
        "contract": "contracts/SimpleBet.sol:SimpleBet",
        "label": "_owner",
        "offset": 0,
        "slot": "3",
        "type": "t_address"
      },
      {
        "astId": 4312,
        "contract": "contracts/SimpleBet.sol:SimpleBet",
        "label": "_nextBetId",
        "offset": 0,
        "slot": "4",
        "type": "t_uint256"
      },
      {
        "astId": 4362,
        "contract": "contracts/SimpleBet.sol:SimpleBet",
        "label": "_betMetas",
        "offset": 0,
        "slot": "5",
        "type": "t_array(t_struct(Bet)4358_storage)dyn_storage"
      },
      {
        "astId": 4367,
        "contract": "contracts/SimpleBet.sol:SimpleBet",
        "label": "_userBets",
        "offset": 0,
        "slot": "6",
        "type": "t_mapping(t_address,t_array(t_uint256)dyn_storage)"
      },
      {
        "astId": 4371,
        "contract": "contracts/SimpleBet.sol:SimpleBet",
        "label": "userBalances",
        "offset": 0,
        "slot": "7",
        "type": "t_mapping(t_address,t_uint256)"
      }
    ],
    "types": {
      "t_address": {
        "encoding": "inplace",
        "label": "address",
        "numberOfBytes": "20"
      },
      "t_array(t_struct(Bet)4358_storage)dyn_storage": {
        "base": "t_struct(Bet)4358_storage",
        "encoding": "dynamic_array",
        "label": "struct SimpleBet.Bet[]",
        "numberOfBytes": "32"
      },
      "t_array(t_struct(SubBet)4335_storage)dyn_storage": {
        "base": "t_struct(SubBet)4335_storage",
        "encoding": "dynamic_array",
        "label": "struct SimpleBet.SubBet[]",
        "numberOfBytes": "32"
      },
      "t_array(t_uint256)dyn_storage": {
        "base": "t_uint256",
        "encoding": "dynamic_array",
        "label": "uint256[]",
        "numberOfBytes": "32"
      },
      "t_bool": {
        "encoding": "inplace",
        "label": "bool",
        "numberOfBytes": "1"
      },
      "t_bytes32": {
        "encoding": "inplace",
        "label": "bytes32",
        "numberOfBytes": "32"
      },
      "t_enum(BetOutcome)4315": {
        "encoding": "inplace",
        "label": "enum SimpleBet.BetOutcome",
        "numberOfBytes": "1"
      },
      "t_enum(BetStatus)4320": {
        "encoding": "inplace",
        "label": "enum SimpleBet.BetStatus",
        "numberOfBytes": "1"
      },
      "t_mapping(t_address,t_array(t_uint256)dyn_storage)": {
        "encoding": "mapping",
        "key": "t_address",
        "label": "mapping(address => uint256[])",
        "numberOfBytes": "32",
        "value": "t_array(t_uint256)dyn_storage"
      },
      "t_mapping(t_address,t_uint256)": {
        "encoding": "mapping",
        "key": "t_address",
        "label": "mapping(address => uint256)",
        "numberOfBytes": "32",
        "value": "t_uint256"
      },
      "t_mapping(t_bytes32,t_bool)": {
        "encoding": "mapping",
        "key": "t_bytes32",
        "label": "mapping(bytes32 => bool)",
        "numberOfBytes": "32",
        "value": "t_bool"
      },
      "t_string_storage": {
        "encoding": "bytes",
        "label": "string",
        "numberOfBytes": "32"
      },
      "t_struct(Bet)4358_storage": {
        "encoding": "inplace",
        "label": "struct SimpleBet.Bet",
        "members": [
          {
            "astId": 4337,
            "contract": "contracts/SimpleBet.sol:SimpleBet",
            "label": "id",
            "offset": 0,
            "slot": "0",
            "type": "t_uint256"
          },
          {
            "astId": 4339,
            "contract": "contracts/SimpleBet.sol:SimpleBet",
            "label": "user",
            "offset": 0,
            "slot": "1",
            "type": "t_address"
          },
          {
            "astId": 4341,
            "contract": "contracts/SimpleBet.sol:SimpleBet",
            "label": "totalAmount",
            "offset": 0,
            "slot": "2",
            "type": "t_uint256"
          },
          {
            "astId": 4344,
            "contract": "contracts/SimpleBet.sol:SimpleBet",
            "label": "outcome",
            "offset": 0,
            "slot": "3",
            "type": "t_enum(BetOutcome)4315"
          },
          {
            "astId": 4347,
            "contract": "contracts/SimpleBet.sol:SimpleBet",
            "label": "status",
            "offset": 1,
            "slot": "3",
            "type": "t_enum(BetStatus)4320"
          },
          {
            "astId": 4349,
            "contract": "contracts/SimpleBet.sol:SimpleBet",
            "label": "createdAt",
            "offset": 0,
            "slot": "4",
            "type": "t_uint256"
          },
          {
            "astId": 4351,
            "contract": "contracts/SimpleBet.sol:SimpleBet",
            "label": "description",
            "offset": 0,
            "slot": "5",
            "type": "t_string_storage"
          },
          {
            "astId": 4355,
            "contract": "contracts/SimpleBet.sol:SimpleBet",
            "label": "subBets",
            "offset": 0,
            "slot": "6",
            "type": "t_array(t_struct(SubBet)4335_storage)dyn_storage"
          },
          {
            "astId": 4357,
            "contract": "contracts/SimpleBet.sol:SimpleBet",
            "label": "totalPayout",
            "offset": 0,
            "slot": "7",
            "type": "t_uint256"
          }
        ],
        "numberOfBytes": "256"
      },
      "t_struct(SubBet)4335_storage": {
        "encoding": "inplace",
        "label": "struct SimpleBet.SubBet",
        "members": [
          {
            "astId": 4322,
            "contract": "contracts/SimpleBet.sol:SimpleBet",
            "label": "platform",
            "offset": 0,
            "slot": "0",
            "type": "t_string_storage"
          },
          {
            "astId": 4324,
            "contract": "contracts/SimpleBet.sol:SimpleBet",
            "label": "amount",
            "offset": 0,
            "slot": "1",
            "type": "t_uint256"
          },
          {
            "astId": 4326,
            "contract": "contracts/SimpleBet.sol:SimpleBet",
            "label": "marketId",
            "offset": 0,
            "slot": "2",
            "type": "t_string_storage"
          },
          {
            "astId": 4329,
            "contract": "contracts/SimpleBet.sol:SimpleBet",
            "label": "outcome",
            "offset": 0,
            "slot": "3",
            "type": "t_enum(BetOutcome)4315"
          },
          {
            "astId": 4332,
            "contract": "contracts/SimpleBet.sol:SimpleBet",
            "label": "status",
            "offset": 1,
            "slot": "3",
            "type": "t_enum(BetStatus)4320"
          },
          {
            "astId": 4334,
            "contract": "contracts/SimpleBet.sol:SimpleBet",
            "label": "payout",
            "offset": 0,
            "slot": "4",
            "type": "t_uint256"
          }
        ],
        "numberOfBytes": "160"
      },
      "t_uint256": {
        "encoding": "inplace",
        "label": "uint256",
        "numberOfBytes": "32"
      }
    }
  }
}