{
  "address": "0x6E005eDE5f15b8df8c2d4dD191b27DE42dE0b0e2",
  "abi": [
    {
      "inputs": [
        {
          "internalType": "string",
          "name": "domain",
          "type": "string"
        }
      ],
      "stateMutability": "nonpayable",
      "type": "constructor"
    },
    {
      "inputs": [],
      "name": "A13e_RevokedAuthToken",
      "type": "error"
    },
    {
      "inputs": [],
      "name": "SiweAuth_AddressMismatch",
      "type": "error"
    },
    {
      "inputs": [],
      "name": "SiweAuth_ChainIdMismatch",
      "type": "error"
    },
    {
      "inputs": [],
      "name": "SiweAuth_DomainMismatch",
      "type": "error"
    },
    {
      "inputs": [],
      "name": "SiweAuth_Expired",
      "type": "error"
    },
    {
      "inputs": [],
      "name": "SiweAuth_NotBeforeInFuture",
      "type": "error"
    },
    {
      "inputs": [],
      "name": "SiweParser_InvalidAddressLength",
      "type": "error"
    },
    {
      "inputs": [],
      "name": "SiweParser_InvalidNonce",
      "type": "error"
    },
    {
      "anonymous": false,
      "inputs": [
        {
          "indexed": true,
          "internalType": "uint256",
          "name": "betId",
          "type": "uint256"
        },
        {
          "indexed": true,
          "internalType": "address",
          "name": "user",
          "type": "address"
        },
        {
          "indexed": false,
          "internalType": "uint256",
          "name": "amount",
          "type": "uint256"
        },
        {
          "indexed": false,
          "internalType": "enum SimpleBet.BetOutcome",
          "name": "outcome",
          "type": "uint8"
        },
        {
          "indexed": false,
          "internalType": "uint256",
          "name": "index",
          "type": "uint256"
        }
      ],
      "name": "BetPlaced",
      "type": "event"
    },
    {
      "anonymous": false,
      "inputs": [
        {
          "indexed": true,
          "internalType": "uint256",
          "name": "betId",
          "type": "uint256"
        },
        {
          "indexed": false,
          "internalType": "enum SimpleBet.BetStatus",
          "name": "status",
          "type": "uint8"
        },
        {
          "indexed": false,
          "internalType": "uint256",
          "name": "payout",
          "type": "uint256"
        }
      ],
      "name": "BetResolved",
      "type": "event"
    },
    {
      "anonymous": false,
      "inputs": [
        {
          "indexed": true,
          "internalType": "address",
          "name": "user",
          "type": "address"
        },
        {
          "indexed": false,
          "internalType": "uint256",
          "name": "amount",
          "type": "uint256"
        }
      ],
      "name": "FundsWithdrawn",
      "type": "event"
    },
    {
      "inputs": [
        {
          "internalType": "uint256",
          "name": "",
          "type": "uint256"
        }
      ],
      "name": "_betMetas",
      "outputs": [
        {
          "internalType": "uint256",
          "name": "id",
          "type": "uint256"
        },
        {
          "internalType": "address",
          "name": "user",
          "type": "address"
        },
        {
          "internalType": "uint256",
          "name": "amount",
          "type": "uint256"
        },
        {
          "internalType": "enum SimpleBet.BetOutcome",
          "name": "outcome",
          "type": "uint8"
        },
        {
          "internalType": "enum SimpleBet.BetStatus",
          "name": "status",
          "type": "uint8"
        },
        {
          "internalType": "uint256",
          "name": "createdAt",
          "type": "uint256"
        },
        {
          "internalType": "string",
          "name": "description",
          "type": "string"
        }
      ],
      "stateMutability": "view",
      "type": "function"
    },
    {
      "inputs": [
        {
          "internalType": "uint256",
          "name": "betId",
          "type": "uint256"
        },
        {
          "internalType": "bytes",
          "name": "token",
          "type": "bytes"
        }
      ],
      "name": "cancelBet",
      "outputs": [],
      "stateMutability": "nonpayable",
      "type": "function"
    },
    {
      "inputs": [],
      "name": "domain",
      "outputs": [
        {
          "internalType": "string",
          "name": "",
          "type": "string"
        }
      ],
      "stateMutability": "view",
      "type": "function"
    },
    {
      "inputs": [
        {
          "internalType": "uint256",
          "name": "offset",
          "type": "uint256"
        },
        {
          "internalType": "uint256",
          "name": "count",
          "type": "uint256"
        }
      ],
      "name": "getAllBets",
      "outputs": [
        {
          "components": [
            {
              "internalType": "uint256",
              "name": "id",
              "type": "uint256"
            },
            {
              "internalType": "address",
              "name": "user",
              "type": "address"
            },
            {
              "internalType": "uint256",
              "name": "amount",
              "type": "uint256"
            },
            {
              "internalType": "enum SimpleBet.BetOutcome",
              "name": "outcome",
              "type": "uint8"
            },
            {
              "internalType": "enum SimpleBet.BetStatus",
              "name": "status",
              "type": "uint8"
            },
            {
              "internalType": "uint256",
              "name": "createdAt",
              "type": "uint256"
            },
            {
              "internalType": "string",
              "name": "description",
              "type": "string"
            }
          ],
          "internalType": "struct SimpleBet.Bet[]",
          "name": "",
          "type": "tuple[]"
        }
      ],
      "stateMutability": "view",
      "type": "function"
    },
    {
      "inputs": [
        {
          "internalType": "uint256",
          "name": "betIndex",
          "type": "uint256"
        },
        {
          "internalType": "bytes",
          "name": "token",
          "type": "bytes"
        }
      ],
      "name": "getBetSecret",
      "outputs": [
        {
          "internalType": "bytes",
          "name": "",
          "type": "bytes"
        }
      ],
      "stateMutability": "view",
      "type": "function"
    },
    {
      "inputs": [],
      "name": "getContractBalance",
      "outputs": [
        {
          "internalType": "uint256",
          "name": "",
          "type": "uint256"
        }
      ],
      "stateMutability": "view",
      "type": "function"
    },
    {
      "inputs": [],
      "name": "getOwner",
      "outputs": [
        {
          "internalType": "address",
          "name": "",
          "type": "address"
        }
      ],
      "stateMutability": "view",
      "type": "function"
    },
    {
      "inputs": [],
      "name": "getTotalBets",
      "outputs": [
        {
          "internalType": "uint256",
          "name": "",
          "type": "uint256"
        }
      ],
      "stateMutability": "view",
      "type": "function"
    },
    {
      "inputs": [
        {
          "internalType": "address",
          "name": "user",
          "type": "address"
        }
      ],
      "name": "getUserBetCount",
      "outputs": [
        {
          "internalType": "uint256",
          "name": "",
          "type": "uint256"
        }
      ],
      "stateMutability": "view",
      "type": "function"
    },
    {
      "inputs": [
        {
          "internalType": "bytes",
          "name": "token",
          "type": "bytes"
        },
        {
          "internalType": "uint256",
          "name": "offset",
          "type": "uint256"
        },
        {
          "internalType": "uint256",
          "name": "count",
          "type": "uint256"
        }
      ],
      "name": "getUserBets",
      "outputs": [
        {
          "components": [
            {
              "internalType": "uint256",
              "name": "id",
              "type": "uint256"
            },
            {
              "internalType": "address",
              "name": "user",
              "type": "address"
            },
            {
              "internalType": "uint256",
              "name": "amount",
              "type": "uint256"
            },
            {
              "internalType": "enum SimpleBet.BetOutcome",
              "name": "outcome",
              "type": "uint8"
            },
            {
              "internalType": "enum SimpleBet.BetStatus",
              "name": "status",
              "type": "uint8"
            },
            {
              "internalType": "uint256",
              "name": "createdAt",
              "type": "uint256"
            },
            {
              "internalType": "string",
              "name": "description",
              "type": "string"
            }
          ],
          "internalType": "struct SimpleBet.Bet[]",
          "name": "",
          "type": "tuple[]"
        }
      ],
      "stateMutability": "view",
      "type": "function"
    },
    {
      "inputs": [
        {
          "internalType": "string",
          "name": "siweMsg",
          "type": "string"
        },
        {
          "components": [
            {
              "internalType": "bytes32",
              "name": "r",
              "type": "bytes32"
            },
            {
              "internalType": "bytes32",
              "name": "s",
              "type": "bytes32"
            },
            {
              "internalType": "uint256",
              "name": "v",
              "type": "uint256"
            }
          ],
          "internalType": "struct SignatureRSV",
          "name": "sig",
          "type": "tuple"
        }
      ],
      "name": "login",
      "outputs": [
        {
          "internalType": "bytes",
          "name": "",
          "type": "bytes"
        }
      ],
      "stateMutability": "view",
      "type": "function"
    },
    {
      "inputs": [
        {
          "internalType": "uint256",
          "name": "amount",
          "type": "uint256"
        },
        {
          "internalType": "bytes",
          "name": "token",
          "type": "bytes"
        }
      ],
      "name": "ownerWithdraw",
      "outputs": [],
      "stateMutability": "nonpayable",
      "type": "function"
    },
    {
      "inputs": [
        {
          "internalType": "enum SimpleBet.BetOutcome",
          "name": "outcome",
          "type": "uint8"
        },
        {
          "internalType": "string",
          "name": "description",
          "type": "string"
        },
        {
          "internalType": "bytes",
          "name": "secretData",
          "type": "bytes"
        }
      ],
      "name": "placeBet",
      "outputs": [],
      "stateMutability": "payable",
      "type": "function"
    },
    {
      "inputs": [
        {
          "internalType": "uint256",
          "name": "betId",
          "type": "uint256"
        },
        {
          "internalType": "bool",
          "name": "won",
          "type": "bool"
        },
        {
          "internalType": "bytes",
          "name": "token",
          "type": "bytes"
        }
      ],
      "name": "resolveBet",
      "outputs": [],
      "stateMutability": "nonpayable",
      "type": "function"
    },
    {
      "inputs": [
        {
          "internalType": "address",
          "name": "",
          "type": "address"
        }
      ],
      "name": "userBalances",
      "outputs": [
        {
          "internalType": "uint256",
          "name": "",
          "type": "uint256"
        }
      ],
      "stateMutability": "view",
      "type": "function"
    },
    {
      "inputs": [],
      "name": "withdrawBalance",
      "outputs": [],
      "stateMutability": "nonpayable",
      "type": "function"
    }
  ],
  "transactionHash": "0xd49f31ca930c16765b07d8ee323a560b33e2308937a4561f2f41de821a8c8f8e",
  "args": [
    "testnet.sapphire.oasis.io"
  ],
  "numDeployments": 1,
  "solcInputHash": "1da90d69c1bb29d92a13f70a5bf8016c",
  "bytecode": "0x608060405260016004553480156200001657600080fd5b50604051620040ed380380620040ed8339810160408190526200003991620001c4565b806200005c6020604051806020016040528060008152506200009360201b60201c565b62000067906200027c565b60025560016200007882826200032d565b5050600380546001600160a01b031916331790555062000453565b60606000807301000000000000000000000000000000000000016001600160a01b03168585604051602001620000cb929190620003f9565b60408051601f1981840301815290829052620000e79162000435565b600060405180830381855afa9150503d806000811462000124576040519150601f19603f3d011682016040523d82523d6000602084013e62000129565b606091505b509150915081620001805760405162461bcd60e51b815260206004820152601360248201527f72616e646f6d42797465733a206661696c656400000000000000000000000000604482015260640160405180910390fd5b949350505050565b634e487b7160e01b600052604160045260246000fd5b60005b83811015620001bb578181015183820152602001620001a1565b50506000910152565b600060208284031215620001d757600080fd5b81516001600160401b0380821115620001ef57600080fd5b818401915084601f8301126200020457600080fd5b81518181111562000219576200021962000188565b604051601f8201601f19908116603f0116810190838211818310171562000244576200024462000188565b816040528281528760208487010111156200025e57600080fd5b620002718360208301602088016200019e565b979650505050505050565b805160208083015191908110156200029e576000198160200360031b1b821691505b50919050565b600181811c90821680620002b957607f821691505b6020821081036200029e57634e487b7160e01b600052602260045260246000fd5b601f8211156200032857600081815260208120601f850160051c81016020861015620003035750805b601f850160051c820191505b8181101562000324578281556001016200030f565b5050505b505050565b81516001600160401b0381111562000349576200034962000188565b62000361816200035a8454620002a4565b84620002da565b602080601f831160018114620003995760008415620003805750858301515b600019600386901b1c1916600185901b17855562000324565b600085815260208120601f198616915b82811015620003ca57888601518255948401946001909101908401620003a9565b5085821015620003e95787850151600019600388901b60f8161c191681555b5050505050600190811b01905550565b8281526040602082015260008251806040840152620004208160608501602087016200019e565b601f01601f1916919091016060019392505050565b60008251620004498184602087016200019e565b9190910192915050565b613c8a80620004636000396000f3fe6080604052600436106100f35760003560e01c8063a3cb679d1161008a578063c6d87da911610059578063c6d87da91461028a578063c908bea6146102aa578063cc2942e9146102d7578063e67a2299146102f757600080fd5b8063a3cb679d14610217578063a9a902e41461022c578063b624010a1461023f578063c2fb26a61461027557600080fd5b80635fd8c710116100c65780635fd8c710146101a75780636f9fb98a146101bc5780637f476b6f146101cf578063893d20e8146101ef57600080fd5b806326224c64146100f85780634bb30b75146101385780634dae0d5a1461015a57806350d6756c14610187575b600080fd5b34801561010457600080fd5b50610125610113366004612f48565b60086020526000908152604090205481565b6040519081526020015b60405180910390f35b34801561014457600080fd5b50610158610153366004613050565b61032a565b005b34801561016657600080fd5b5061017a610175366004613050565b6104c4565b60405161012f91906130e6565b34801561019357600080fd5b506101586101a23660046130f9565b6106cf565b3480156101b357600080fd5b50610158610980565b3480156101c857600080fd5b5047610125565b3480156101db57600080fd5b5061017a6101ea36600461319e565b610aaa565b3480156101fb57600080fd5b506003546040516001600160a01b03909116815260200161012f565b34801561022357600080fd5b50600554610125565b61015861023a3660046131fc565b610db7565b34801561024b57600080fd5b5061012561025a366004612f48565b6001600160a01b031660009081526007602052604090205490565b34801561028157600080fd5b5061017a6110c0565b34801561029657600080fd5b506101586102a5366004613050565b611152565b3480156102b657600080fd5b506102ca6102c5366004613282565b6113d9565b60405161012f9190613309565b3480156102e357600080fd5b506102ca6102f23660046133d0565b611749565b34801561030357600080fd5b506103176103123660046133f2565b6119e1565b60405161012f979695949392919061340b565b60035481906001600160a01b0316331480159061036357506003546001600160a01b031661035782611acb565b6001600160a01b031614155b156103895760405162461bcd60e51b81526004016103809061345a565b60405180910390fd5b478311156103d95760405162461bcd60e51b815260206004820152601d60248201527f496e73756666696369656e7420636f6e74726163742062616c616e63650000006044820152606401610380565b6003546040516000916001600160a01b03169085908381818185875af1925050503d8060008114610426576040519150601f19603f3d011682016040523d82523d6000602084013e61042b565b606091505b505090508061047c5760405162461bcd60e51b815260206004820152601760248201527f4f776e6572207769746864726177616c206661696c65640000000000000000006044820152606401610380565b6003546040518581526001600160a01b03909116907feaff4b37086828766ad3268786972c0cd24259d4c87a80f9d3963a3c3d999b0d9060200160405180910390a250505050565b6060600583815481106104d9576104d961347f565b6000918252602090912060069091020154600554839082106105325760405162461bcd60e51b815260206004820152601260248201527110995d08191bd95cc81b9bdd08195e1a5cdd60721b6044820152606401610380565b6000600583815481106105475761054761347f565b60009182526020909120600160069092020101546001600160a01b031690503381148015906105905750806001600160a01b031661058483611acb565b6001600160a01b031614155b156105cd5760405162461bcd60e51b815260206004820152600d60248201526c3737ba103132ba1037bbb732b960991b6044820152606401610380565b600654861061061e5760405162461bcd60e51b815260206004820152601960248201527f4265742073656372657420646f6573206e6f74206578697374000000000000006044820152606401610380565b600686815481106106315761063161347f565b90600052602060002001805461064690613495565b80601f016020809104026020016040519081016040528092919081815260200182805461067290613495565b80156106bf5780601f10610694576101008083540402835291602001916106bf565b820191906000526020600020905b8154815290600101906020018083116106a257829003601f168201915b5050505050935050505092915050565b60035481906001600160a01b0316331480159061070857506003546001600160a01b03166106fc82611acb565b6001600160a01b031614155b156107255760405162461bcd60e51b81526004016103809061345a565b600084118015610736575060045484105b6107735760405162461bcd60e51b815260206004820152600e60248201526d125b9d985b1a590818995d08125160921b6044820152606401610380565b60008060005b6005548110156107cc5786600582815481106107975761079761347f565b906000526020600020906006020160000154036107ba57809250600191506107cc565b806107c4816134df565b915050610779565b508061080a5760405162461bcd60e51b815260206004820152600d60248201526c10995d081b9bdd08199bdd5b99609a1b6044820152606401610380565b60006005838154811061081f5761081f61347f565b906000526020600020906006020160030160019054906101000a900460ff16600381111561084f5761084f6132cf565b146108935760405162461bcd60e51b815260206004820152601460248201527310995d08185b1c9958591e481c995cdbdb1d995960621b6044820152606401610380565b6000600583815481106108a8576108a861347f565b906000526020600020906006020190506000861561091c5760038201805461ff0019166101001790556002808301546108e0916134f8565b60018301546001600160a01b031660009081526008602052604081208054929350839290919061091190849061350f565b9091555061092e9050565b60038201805461ff0019166102001790555b600382015460405189917fb4810c14f5f90d64272bdaaa79adbcd7a5593b0be3da5c9073f83a6e05169a169161096e91610100900460ff16908590613522565b60405180910390a25050505050505050565b33600090815260086020526040902054806109d65760405162461bcd60e51b81526020600482015260166024820152754e6f2062616c616e636520746f20776974686472617760501b6044820152606401610380565b336000818152600860205260408082208290555190919083908381818185875af1925050503d8060008114610a27576040519150601f19603f3d011682016040523d82523d6000602084013e610a2c565b606091505b5050905080610a715760405162461bcd60e51b815260206004820152601160248201527015da5d1a191c985dd85b0819985a5b1959607a1b6044820152606401610380565b60405182815233907feaff4b37086828766ad3268786972c0cd24259d4c87a80f9d3963a3c3d999b0d9060200160405180910390a25050565b6060610ab4612e32565b6000610abf85611b32565b8686604051602001610ad39392919061353d565b60408051601f19818403018152828252805160208083019190912060008086528583018086529190915260ff89850135169385019390935287356060850152870135608084015292509060019060a0016020604051602081039080840390855afa158015610b45573d6000803e3d6000fd5b5050604051601f1901516001600160a01b0381166020860152915060009050610b6e8888611bc4565b9050468160a0015114610b945760405163362c833760e01b815260040160405180910390fd5b6001604051610ba39190613591565b604051809103902081600001518051906020012014610bd55760405163283d62bd60e01b815260040160405180910390fd5b8051845260208101516001600160a01b03838116911614610c09576040516305cc02e160e01b815260040160405180910390fd5b6101208101515115801590610c2b5750610c2781610120015161202b565b4211155b15610c495760405163299d02f160e01b815260040160405180910390fd5b6101008101515115610c70576000610c6582610100015161202b565b604086015250610c83565b610c7d620151804261350f565b60408501525b83604001514210610ca757604051630b17115560e41b815260040160405180910390fd5b60408101516060850152610160810151516001600160401b03811115610ccf57610ccf612f65565b604051908082528060200260200182016040528015610d0257816020015b6060815260200190600190039081610ced5790505b50608085015260005b81610160015151811015610d6c578161016001518181518110610d3057610d3061347f565b602002602001015185608001518281518110610d4e57610d4e61347f565b60200260200101819052508080610d64906134df565b915050610d0b565b506000610da86002546000801b87604051602001610d8a9190613607565b60408051601f1981840301815260208301909152600082529061209a565b955050505050505b9392505050565b60003411610e115760405162461bcd60e51b815260206004820152602160248201527f42657420616d6f756e74206d7573742062652067726561746572207468616e206044820152600360fc1b6064820152608401610380565b6004805460009182610e22836134df565b91905055905060006040518060e00160405280838152602001336001600160a01b03168152602001348152602001886001811115610e6257610e626132cf565b81526020016000815260200142815260200187878080601f016020809104026020016040519081016040528093929190818152602001838380828437600092018290525093909452505060058054600180820183559190925283517f036b6384b5eca791c62761152d0c79bb0604c104a5fb6f4eb0703f3154bb3db0600690930292830190815560208501517f036b6384b5eca791c62761152d0c79bb0604c104a5fb6f4eb0703f3154bb3db1840180546001600160a01b0319166001600160a01b0390921691909117905560408501517f036b6384b5eca791c62761152d0c79bb0604c104a5fb6f4eb0703f3154bb3db284015560608501517f036b6384b5eca791c62761152d0c79bb0604c104a5fb6f4eb0703f3154bb3db3909301805495965086959194509160ff19909116908381811115610fa357610fa36132cf565b021790555060808201518160030160016101000a81548160ff02191690836003811115610fd257610fd26132cf565b021790555060a0820151600482015560c08201516005820190610ff59082613710565b5050600680546001810182556000919091527ff652222313e28459528d920b65115c16c04f3efc82aaedc97be59f3f377c0d3f0190506110368486836137cf565b503360009081526007602052604090206005546110559060019061388f565b815460018181018455600093845260209093200155600554339184917f7cdde6d299ea8fdc0aceb52128ad2948a1db7494031bd05ca26c6ae74b6e33b49134918c916110a09161388f565b6040516110af939291906138a2565b60405180910390a350505050505050565b6060600180546110cf90613495565b80601f01602080910402602001604051908101604052809291908181526020018280546110fb90613495565b80156111485780601f1061111d57610100808354040283529160200191611148565b820191906000526020600020905b81548152906001019060200180831161112b57829003601f168201915b5050505050905090565b60035481906001600160a01b0316331480159061118b57506003546001600160a01b031661117f82611acb565b6001600160a01b031614155b156111a85760405162461bcd60e51b81526004016103809061345a565b6000831180156111b9575060045483105b6111f65760405162461bcd60e51b815260206004820152600e60248201526d125b9d985b1a590818995d08125160921b6044820152606401610380565b60008060005b60055481101561124f57856005828154811061121a5761121a61347f565b9060005260206000209060060201600001540361123d578092506001915061124f565b80611247816134df565b9150506111fc565b508061128d5760405162461bcd60e51b815260206004820152600d60248201526c10995d081b9bdd08199bdd5b99609a1b6044820152606401610380565b6000600583815481106112a2576112a261347f565b906000526020600020906006020160030160019054906101000a900460ff1660038111156112d2576112d26132cf565b146113165760405162461bcd60e51b815260206004820152601460248201527310995d08185b1c9958591e481c995cdbdb1d995960621b6044820152606401610380565b60006005838154811061132b5761132b61347f565b60009182526020808320600360069390930201918201805461ff001916610300179055600282015460018301546001600160a01b0316845260089091526040832080549294509092909161138090849061350f565b90915550506003810154600282015460405188927fb4810c14f5f90d64272bdaaa79adbcd7a5593b0be3da5c9073f83a6e05169a16926113c99261010090920460ff1691613522565b60405180910390a2505050505050565b606060006113e685611acb565b90506001600160a01b03811661143e5760405162461bcd60e51b815260206004820152601c60248201527f496e76616c69642061757468656e7469636174696f6e20746f6b656e000000006044820152606401610380565b6001600160a01b03811660009081526007602090815260408083208054825181850281018501909352808352919290919083018282801561149e57602002820191906000526020600020905b81548152602001906001019080831161148a575b50505050509050805185106114e85760408051600080825260208201909252906114de565b6114cb612e6a565b8152602001906001900390816114c35790505b5092505050610db0565b60006114f4858761350f565b90508151811115611503575080515b600061150f878361388f565b6001600160401b0381111561152657611526612f65565b60405190808252806020026020018201604052801561155f57816020015b61154c612e6a565b8152602001906001900390816115445790505b509050865b8281101561173d5760058482815181106115805761158061347f565b6020026020010151815481106115985761159861347f565b90600052602060002090600602016040518060e0016040529081600082015481526020016001820160009054906101000a90046001600160a01b03166001600160a01b03166001600160a01b03168152602001600282015481526020016003820160009054906101000a900460ff166001811115611618576116186132cf565b6001811115611629576116296132cf565b81526020016003820160019054906101000a900460ff166003811115611651576116516132cf565b6003811115611662576116626132cf565b81526020016004820154815260200160058201805461168090613495565b80601f01602080910402602001604051908101604052809291908181526020018280546116ac90613495565b80156116f95780601f106116ce576101008083540402835291602001916116f9565b820191906000526020600020905b8154815290600101906020018083116116dc57829003601f168201915b50505050508152505082898361170f919061388f565b8151811061171f5761171f61347f565b60200260200101819052508080611735906134df565b915050611564565b50979650505050505050565b600554606090831061178e576040805160008082526020820190925290611786565b611773612e6a565b81526020019060019003908161176b5790505b5090506119db565b600061179a838561350f565b6005549091508111156117ac57506005545b60006117b8858361388f565b6001600160401b038111156117cf576117cf612f65565b60405190808252806020026020018201604052801561180857816020015b6117f5612e6a565b8152602001906001900390816117ed5790505b509050845b828110156119d6576005611821828861350f565b815481106118315761183161347f565b90600052602060002090600602016040518060e0016040529081600082015481526020016001820160009054906101000a90046001600160a01b03166001600160a01b03166001600160a01b03168152602001600282015481526020016003820160009054906101000a900460ff1660018111156118b1576118b16132cf565b60018111156118c2576118c26132cf565b81526020016003820160019054906101000a900460ff1660038111156118ea576118ea6132cf565b60038111156118fb576118fb6132cf565b81526020016004820154815260200160058201805461191990613495565b80601f016020809104026020016040519081016040528092919081815260200182805461194590613495565b80156119925780601f1061196757610100808354040283529160200191611992565b820191906000526020600020905b81548152906001019060200180831161197557829003601f168201915b5050505050815250508287836119a8919061388f565b815181106119b8576119b861347f565b602002602001018190525080806119ce906134df565b91505061180d565b509150505b92915050565b600581815481106119f157600080fd5b60009182526020909120600690910201805460018201546002830154600384015460048501546005860180549597506001600160a01b0390941695929460ff808416956101009094041693919290611a4890613495565b80601f0160208091040260200160405190810160405280929190818152602001828054611a7490613495565b8015611ac15780601f10611a9657610100808354040283529160200191611ac1565b820191906000526020600020905b815481529060010190602001808311611aa457829003601f168201915b5050505050905087565b80516020808301919091206000908152908190526040812054829060ff1615611b07576040516313d4cf0960e31b815260040160405180910390fd5b8251600003611b195760009150611b2c565b6000611b248461216f565b602001519250505b50919050565b60606000611b3f83612219565b60010190506000816001600160401b03811115611b5e57611b5e612f65565b6040519080825280601f01601f191660200182016040528015611b88576020820181803683370190505b5090508181016020015b600019016f181899199a1a9b1b9c1cb0b131b232b360811b600a86061a8153600a8504945084611b9257509392505050565b611bcc612ea7565b611bd4612ea7565b60005b83811015611c6557848482818110611bf157611bf161347f565b909101356001600160f81b031916600160fd1b039050611c5357611c4c85858080601f016020809104026020016040519081016040528093929190818152602001838380828437600092018290525092508591506122f19050565b8252611c65565b80611c5d816134df565b915050611bd7565b611c7060328261350f565b9050611cd7611cd286868080601f016020809104026020016040519081016040528093929190818152602001838380828437600092019190915250611cbc92506002915086905061350f565b935083611cca60288261350f565b9450846122f1565b6123c7565b6001600160a01b03166020830152611cf060028261350f565b90508381108015611d2a5750848482818110611d0e57611d0e61347f565b9050013560f81c60f81b6001600160f81b031916600560f91b14155b15611dd357805b84811015611dd157858582818110611d4b57611d4b61347f565b909101356001600160f81b031916600560f91b039050611dbf57611da886868080601f0160208091040260200160405190810160405280939291908181526020018383808284376000920191909152508692508591506122f19050565b6040840152611db881600161350f565b9150611dd1565b80611dc9816134df565b915050611d31565b505b80611ddd816134df565b915050611e0785856040518060400160405280600381526020016255524960e81b81525084612502565b836060018193508290525050611e3e8585604051806040016040528060078152602001662b32b939b4b7b760c91b81525084612502565b8360800181935082905250506060611e7886866040518060400160405280600881526020016710da185a5b88125160c21b81525085612502565b92509050611e858161270c565b60a08401526040805180820190915260058152644e6f6e636560d81b6020820152611eb4908790879085612502565b60c08501829052905190925060081115611ee157604051632d2f00c360e21b815260040160405180910390fd5b611f0e868660405180604001604052806009815260200168125cdcdd595908105d60ba1b81525085612502565b8460e0018194508290525050611f4d86866040518060400160405280600f81526020016e45787069726174696f6e2054696d6560881b81525085612502565b84610100018194508290525050611f8886866040518060400160405280600a8152602001694e6f74204265666f726560b01b81525085612502565b84610120018194508290525050611fc386866040518060400160405280600a81526020016914995c5d595cdd08125160b21b81525085612502565b846101400181945082905250506000611fff8787604051806040016040528060098152602001685265736f757263657360b81b81525086612502565b91505082811461202057612014878783612770565b61016086019190915292505b509195945050505050565b60006119db61204561204084600060046122f1565b61270c565b61205561204085600560076122f1565b612065612040866008600a6122f1565b61207561204087600b600d6122f1565b61208561204088600e60106122f1565b61209561204089601160136122f1565b612a60565b60606000806003600160981b016001600160a01b0316878787876040516020016120c794939291906138da565b60408051601f19818403018152908290526120e191613916565b600060405180830381855afa9150503d806000811461211c576040519150601f19603f3d011682016040523d82523d6000602084013e612121565b606091505b5091509150816121655760405162461bcd60e51b815260206004820152600f60248201526e195b98dc9e5c1d0e8819985a5b1959608a1b6044820152606401610380565b9695505050505050565b612177612e32565b60006121996002546000801b8560405180602001604052806000815250612c24565b90506000818060200190518101906121b19190613a2d565b905060016040516121c29190613591565b6040518091039020816000015180519060200120146121f45760405163283d62bd60e01b815260040160405180910390fd5b4281604001511015610db057604051630b17115560e41b815260040160405180910390fd5b60008072184f03e93ff9f4daa797ed6e38ed64bf6a1f0160401b83106122585772184f03e93ff9f4daa797ed6e38ed64bf6a1f0160401b830492506040015b6d04ee2d6d415b85acef81000000008310612284576d04ee2d6d415b85acef8100000000830492506020015b662386f26fc1000083106122a257662386f26fc10000830492506010015b6305f5e10083106122ba576305f5e100830492506008015b61271083106122ce57612710830492506004015b606483106122e0576064830492506002015b600a83106119db5760010192915050565b606060006122ff848461388f565b6001600160401b0381111561231657612316612f65565b6040519080825280601f01601f191660200182016040528015612340576020820181803683370190505b509050835b83811080156123545750855181105b156123be5785818151811061236b5761236b61347f565b01602001516001600160f81b03191682612385878461388f565b815181106123955761239561347f565b60200101906001600160f81b031916908160001a905350806123b6816134df565b915050612345565b50949350505050565b600081516028146123eb5760405163acf8696960e01b815260040160405180910390fd5b6000600283516123fb9190613afc565b6001600160401b0381111561241257612412612f65565b6040519080825280601f01601f19166020018201604052801561243c576020820181803683370190505b50905060005b600284516124509190613afc565b8110156124ee5761248e846124668360026134f8565b61247190600161350f565b815181106124815761248161347f565b016020015160f81c612cef565b61249d856124718460026134f8565b6124a8906010613b10565b6124b29190613b2c565b60f81b8282815181106124c7576124c761347f565b60200101906001600160f81b031916908160001a9053506124e7816134df565b9050612442565b506124f881613b45565b60601c9392505050565b60606000825b8581101561261d578686828181106125225761252261347f565b909101356001600160f81b031916601d60f91b03905061260b57848051906020012061258788888080601f0160208091040260200160405190810160405280939291908181526020018383808284376000920191909152508992508691506122f19050565b80519060200120146125ac575050604080516020810190915260008152905081612703565b806125b6816134df565b91505085811080156125f057508686828181106125d5576125d561347f565b9050013560f81c60f81b6001600160f81b031916600160fd1b145b1561260357806125ff816134df565b9150505b80935061261d565b80612615816134df565b915050612508565b858110156126bb578686828181106126375761263761347f565b909101356001600160f81b031916600560f91b0390506126a95761269487878080601f0160208091040260200160405190810160405280939291908181526020018383808284376000920191909152508892508591506122f19050565b61269f82600161350f565b9250925050612703565b806126b3816134df565b91505061261d565b6126fe87878080601f0160208091040260200160405190810160405280939291908181526020018383808284376000920191909152508892508591506122f19050565b925090505b94509492505050565b600080805b835181101561276957603084828151811061272e5761272e61347f565b0160200151612740919060f81c61388f565b61274b83600a6134f8565b612755919061350f565b915080612761816134df565b915050612711565b5092915050565b6060600082815b61278260018761388f565b82101561287d5786868381811061279b5761279b61347f565b9050013560f81c60f81b6001600160f81b031916602d60f81b1480156127f3575086866127c984600161350f565b8181106127d8576127d861347f565b9050013560f81c60f81b6001600160f81b031916600160fd1b145b156128175761280360028361350f565b91508061280f816134df565b91505061281c565b61287d565b858210801561285457508686838181106128385761283861347f565b9050013560f81c60f81b6001600160f81b031916600a60f81b14155b1561286b5781612863816134df565b92505061281c565b81612875816134df565b925050612777565b6000816001600160401b0381111561289757612897612f65565b6040519080825280602002602001820160405280156128ca57816020015b60608152602001906001900390816128b55790505b50905085925060005b6128de60018961388f565b841080156128ec5750828114155b15612a52578888858181106129035761290361347f565b9050013560f81c60f81b6001600160f81b031916602d60f81b14801561295b5750888861293186600161350f565b8181106129405761294061347f565b9050013560f81c60f81b6001600160f81b031916600160fd1b145b1561296e5761296b84600261350f565b96505b87841080156129a6575088888581811061298a5761298a61347f565b9050013560f81c60f81b6001600160f81b031916600a60f81b14155b156129bd57836129b5816134df565b94505061296e565b612a0089898080601f0160208091040260200160405190810160405280939291908181526020018383808284376000920191909152508b92508891506122f19050565b828281518110612a1257612a1261347f565b60200260200101819052508080612a28906134df565b915050878403612a405783612a3c81613b81565b9450505b83612a4a816134df565b9450506128d3565b509791965090945050505050565b60006107b25b8761ffff168161ffff161015612abc57612a7f81612dd3565b15612a9957612a926301e285008361350f565b9150612aaa565b612aa76301e133808361350f565b91505b80612ab481613b98565b915050612a66565b612ac4612f11565b601f8152612ad189612dd3565b15612ae257601d6020820152612aea565b601c60208201525b601f60408201819052601e606083018190526080830182905260a0830181905260c0830182905260e0830182905261010083018190526101208301829052610140830152610160820152600191505b8760ff168261ffff161015612b9e5780612b54600184613bb9565b61ffff16600c8110612b6857612b6861347f565b6020020151612b7a9062015180613bd4565b612b8a9063ffffffff168461350f565b925081612b9681613b98565b925050612b39565b612ba9600188613bfc565b612bb99060ff1662015180613bd4565b612bc99063ffffffff168461350f565b9250612bda60ff8716610e10613bd4565b612bea9063ffffffff168461350f565b9250612bfa60ff8616603c613c15565b612c089061ffff168461350f565b9250612c1760ff85168461350f565b9998505050505050505050565b60606000806004600160981b016001600160a01b031687878787604051602001612c5194939291906138da565b60408051601f1981840301815290829052612c6b91613916565b600060405180830381855afa9150503d8060008114612ca6576040519150601f19603f3d011682016040523d82523d6000602084013e612cab565b606091505b5091509150816121655760405162461bcd60e51b815260206004820152600f60248201526e191958dc9e5c1d0e8819985a5b1959608a1b6044820152606401610380565b6000600360fc1b60f883901b6001600160f81b03191610801590612d255750603960f81b60f883901b6001600160f81b03191611155b15612d35576119db603083613bfc565b606160f81b60f883901b6001600160f81b03191610801590612d695750603360f91b60f883901b6001600160f81b03191611155b15612d85576061612d7b83600a613b2c565b6119db9190613bfc565b604160f81b60f883901b6001600160f81b03191610801590612db95750602360f91b60f883901b6001600160f81b03191611155b15612dcb576041612d7b83600a613b2c565b506000919050565b6000612de0600483613c33565b61ffff1615612df157506000919050565b612dfc606483613c33565b61ffff1615612e0d57506001919050565b612e1961019083613c33565b61ffff1615612e2a57506000919050565b506001919050565b6040518060a001604052806060815260200160006001600160a01b031681526020016000815260200160608152602001606081525090565b6040805160e08101825260008082526020820181905291810182905290606082019081526020016000815260200160008152602001606081525090565b6040518061018001604052806060815260200160006001600160a01b03168152602001606081526020016060815260200160608152602001600081526020016060815260200160608152602001606081526020016060815260200160608152602001606081525090565b604051806101800160405280600c906020820280368337509192915050565b6001600160a01b0381168114612f4557600080fd5b50565b600060208284031215612f5a57600080fd5b8135610db081612f30565b634e487b7160e01b600052604160045260246000fd5b60405160a081016001600160401b0381118282101715612f9d57612f9d612f65565b60405290565b604051601f8201601f191681016001600160401b0381118282101715612fcb57612fcb612f65565b604052919050565b60006001600160401b03821115612fec57612fec612f65565b50601f01601f191660200190565b600082601f83011261300b57600080fd5b813561301e61301982612fd3565b612fa3565b81815284602083860101111561303357600080fd5b816020850160208301376000918101602001919091529392505050565b6000806040838503121561306357600080fd5b8235915060208301356001600160401b0381111561308057600080fd5b61308c85828601612ffa565b9150509250929050565b60005b838110156130b1578181015183820152602001613099565b50506000910152565b600081518084526130d2816020860160208601613096565b601f01601f19169290920160200192915050565b602081526000610db060208301846130ba565b60008060006060848603121561310e57600080fd5b833592506020840135801515811461312557600080fd5b915060408401356001600160401b0381111561314057600080fd5b61314c86828701612ffa565b9150509250925092565b60008083601f84011261316857600080fd5b5081356001600160401b0381111561317f57600080fd5b60208301915083602082850101111561319757600080fd5b9250929050565b600080600083850360808112156131b457600080fd5b84356001600160401b038111156131ca57600080fd5b6131d687828801613156565b9095509350506060601f19820112156131ee57600080fd5b506020840190509250925092565b60008060008060006060868803121561321457600080fd5b85356002811061322357600080fd5b945060208601356001600160401b038082111561323f57600080fd5b61324b89838a01613156565b9096509450604088013591508082111561326457600080fd5b5061327188828901613156565b969995985093965092949392505050565b60008060006060848603121561329757600080fd5b83356001600160401b038111156132ad57600080fd5b6132b986828701612ffa565b9660208601359650604090950135949350505050565b634e487b7160e01b600052602160045260246000fd5b600281106132f5576132f56132cf565b9052565b600481106132f5576132f56132cf565b60006020808301818452808551808352604092508286019150828160051b87010184880160005b838110156133c257888303603f19018552815180518452878101516001600160a01b031688850152868101518785015260608082015160e09190613376828801826132e5565b505060808083015161338a828801826132f9565b505060a0828101519086015260c0918201519185018190526133ae818601836130ba565b968901969450505090860190600101613330565b509098975050505050505050565b600080604083850312156133e357600080fd5b50508035926020909101359150565b60006020828403121561340457600080fd5b5035919050565b8781526001600160a01b03871660208201526040810186905261343160608201866132e5565b61343e60808201856132f9565b8260a082015260e060c08201526000612c1760e08301846130ba565b6020808252600b908201526a1b9bdd08185b1b1bddd95960aa1b604082015260600190565b634e487b7160e01b600052603260045260246000fd5b600181811c908216806134a957607f821691505b602082108103611b2c57634e487b7160e01b600052602260045260246000fd5b634e487b7160e01b600052601160045260246000fd5b6000600182016134f1576134f16134c9565b5060010190565b80820281158282048414176119db576119db6134c9565b808201808211156119db576119db6134c9565b6040810161353082856132f9565b8260208301529392505050565b7f19457468657265756d205369676e6564204d6573736167653a0a00000000000081526000845161357581601a850160208901613096565b82018385601a83013760009301601a0192835250909392505050565b600080835461359f81613495565b600182811680156135b757600181146135cc576135fb565b60ff19841687528215158302870194506135fb565b8760005260208060002060005b858110156135f25781548a8201529084019082016135d9565b50505082870194505b50929695505050505050565b60006020808352835160a08285015261362360c08501826130ba565b905060018060a01b0382860151166040850152604085015160608501526060850151601f198086840301608087015261365c83836130ba565b6080880151878203830160a089015280518083529194508501925084840190600581901b8501860160005b828110156136b357848783030184526136a18287516130ba565b95880195938801939150600101613687565b509998505050505050505050565b601f82111561370b57600081815260208120601f850160051c810160208610156136e85750805b601f850160051c820191505b81811015613707578281556001016136f4565b5050505b505050565b81516001600160401b0381111561372957613729612f65565b61373d816137378454613495565b846136c1565b602080601f831160018114613772576000841561375a5750858301515b600019600386901b1c1916600185901b178555613707565b600085815260208120601f198616915b828110156137a157888601518255948401946001909101908401613782565b50858210156137bf5787850151600019600388901b60f8161c191681555b5050505050600190811b01905550565b6001600160401b038311156137e6576137e6612f65565b6137fa836137f48354613495565b836136c1565b6000601f84116001811461382e57600085156138165750838201355b600019600387901b1c1916600186901b178355613888565b600083815260209020601f19861690835b8281101561385f578685013582556020948501946001909201910161383f565b508682101561387c5760001960f88860031b161c19848701351681555b505060018560011b0183555b5050505050565b818103818111156119db576119db6134c9565b838152606081016138b660208301856132e5565b826040830152949350505050565b634e487b7160e01b600052601260045260246000fd5b8481528360208201526080604082015260006138f960808301856130ba565b828103606084015261390b81856130ba565b979650505050505050565b60008251613928818460208701613096565b9190910192915050565b600082601f83011261394357600080fd5b815161395161301982612fd3565b81815284602083860101111561396657600080fd5b613977826020830160208701613096565b949350505050565b805161398a81612f30565b919050565b600082601f8301126139a057600080fd5b815160206001600160401b03808311156139bc576139bc612f65565b8260051b6139cb838201612fa3565b93845285810183019383810190888611156139e557600080fd5b84880192505b85831015613a2157825184811115613a035760008081fd5b613a118a87838c0101613932565b83525091840191908401906139eb565b98975050505050505050565b600060208284031215613a3f57600080fd5b81516001600160401b0380821115613a5657600080fd5b9083019060a08286031215613a6a57600080fd5b613a72612f7b565b825182811115613a8157600080fd5b613a8d87828601613932565b825250613a9c6020840161397f565b602082015260408301516040820152606083015182811115613abd57600080fd5b613ac987828601613932565b606083015250608083015182811115613ae157600080fd5b613aed8782860161398f565b60808301525095945050505050565b600082613b0b57613b0b6138c4565b500490565b60ff8181168382160290811690818114612769576127696134c9565b60ff81811683821601908111156119db576119db6134c9565b805160208201516bffffffffffffffffffffffff198082169291906014831015613b795780818460140360031b1b83161693505b505050919050565b600081613b9057613b906134c9565b506000190190565b600061ffff808316818103613baf57613baf6134c9565b6001019392505050565b61ffff828116828216039080821115612769576127696134c9565b63ffffffff818116838216028082169190828114613bf457613bf46134c9565b505092915050565b60ff82811682821603908111156119db576119db6134c9565b61ffff818116838216028082169190828114613bf457613bf46134c9565b600061ffff80841680613c4857613c486138c4565b9216919091069291505056fea264697066735822122040e4fdc8b72e285821c49b2b064a2baf5874c1b4f8a7b9eb39e6b05b2001ef3e64736f6c63430008140033",
  "devdoc": {
    "details": "A simple betting smart contract with SiweAuth integration for Oasis Sapphire Users can place bets, contract acts as escrow, and owner can manage funds",
    "kind": "dev",
    "methods": {
      "cancelBet(uint256,bytes)": {
        "details": "Cancel a bet and refund (only owner)",
        "params": {
          "betId": "The bet ID to cancel",
          "token": "SIWE authentication token for owner"
        }
      },
      "domain()": {
        "returns": {
          "_0": "The domain string"
        }
      },
      "getAllBets(uint256,uint256)": {
        "details": "Get all bet metadata (paginated)",
        "params": {
          "count": "Number of bets to return",
          "offset": "Pagination offset"
        }
      },
      "getBetSecret(uint256,bytes)": {
        "details": "Get secret data for a specific bet (only bet owner can access)",
        "params": {
          "betIndex": "Index of the bet in the _betMetas array",
          "token": "SIWE authentication token"
        }
      },
      "getContractBalance()": {
        "details": "Get contract balance"
      },
      "getOwner()": {
        "details": "Get owner address"
      },
      "getTotalBets()": {
        "details": "Get total number of bets"
      },
      "getUserBetCount(address)": {
        "details": "Get user's total bet count",
        "params": {
          "user": "User address"
        }
      },
      "getUserBets(bytes,uint256,uint256)": {
        "details": "Get user's bets using SIWE authentication",
        "params": {
          "count": "Number of bets to return",
          "offset": "Pagination offset",
          "token": "SIWE authentication token"
        }
      },
      "login(string,(bytes32,bytes32,uint256))": {
        "params": {
          "sig": "The signature of the SIWE message",
          "siweMsg": "The signed SIWE message"
        },
        "returns": {
          "_0": "The encrypted authentication token"
        }
      },
      "ownerWithdraw(uint256,bytes)": {
        "details": "Owner withdraws contract funds (only owner)",
        "params": {
          "amount": "Amount to withdraw",
          "token": "SIWE authentication token for owner"
        }
      },
      "placeBet(uint8,string,bytes)": {
        "details": "Place a bet with amount and outcome",
        "params": {
          "description": "Public description of the bet",
          "outcome": "The outcome to bet on (YES/NO)",
          "secretData": "Private data associated with the bet"
        }
      },
      "resolveBet(uint256,bool,bytes)": {
        "details": "Resolve a bet (only owner)",
        "params": {
          "betId": "The bet ID to resolve",
          "token": "SIWE authentication token for owner",
          "won": "Whether the bet won or lost"
        }
      },
      "withdrawBalance()": {
        "details": "Withdraw user balance"
      }
    },
    "title": "SimpleBet",
    "version": 1
  },
  "userdoc": {
    "errors": {
      "A13e_RevokedAuthToken()": [
        {
          "notice": "The authentication token was revoked"
        }
      ],
      "SiweAuth_AddressMismatch()": [
        {
          "notice": "User address in the SIWE message does not match the message signer's address"
        }
      ],
      "SiweAuth_ChainIdMismatch()": [
        {
          "notice": "Chain ID in the SIWE message does not match the actual chain ID"
        }
      ],
      "SiweAuth_DomainMismatch()": [
        {
          "notice": "Domain in the SIWE message does not match the domain of a dApp"
        }
      ],
      "SiweAuth_Expired()": [
        {
          "notice": "Validity of the authentication token or the Expires value in the SIWE message is in the past"
        }
      ],
      "SiweAuth_NotBeforeInFuture()": [
        {
          "notice": "The Not before value in the SIWE message is still in the future"
        }
      ],
      "SiweParser_InvalidAddressLength()": [
        {
          "notice": "Invalid length of the hex-encoded address"
        }
      ],
      "SiweParser_InvalidNonce()": [
        {
          "notice": "Invalid length of the nonce"
        }
      ]
    },
    "kind": "user",
    "methods": {
      "domain()": {
        "notice": "Return the domain associated with the dApp."
      },
      "login(string,(bytes32,bytes32,uint256))": {
        "notice": "Login using a SIWE message and signature"
      }
    },
    "version": 1
  },
  "storageLayout": {
    "storage": [
      {
        "astId": 2352,
        "contract": "contracts/SimpleBet.sol:SimpleBet",
        "label": "_revokedAuthTokens",
        "offset": 0,
        "slot": "0",
        "type": "t_mapping(t_bytes32,t_bool)"
      },
      {
        "astId": 2436,
        "contract": "contracts/SimpleBet.sol:SimpleBet",
        "label": "_domain",
        "offset": 0,
        "slot": "1",
        "type": "t_string_storage"
      },
      {
        "astId": 2439,
        "contract": "contracts/SimpleBet.sol:SimpleBet",
        "label": "_authTokenEncKey",
        "offset": 0,
        "slot": "2",
        "type": "t_bytes32"
      },
      {
        "astId": 4309,
        "contract": "contracts/SimpleBet.sol:SimpleBet",
        "label": "_owner",
        "offset": 0,
        "slot": "3",
        "type": "t_address"
      },
      {
        "astId": 4312,
        "contract": "contracts/SimpleBet.sol:SimpleBet",
        "label": "_nextBetId",
        "offset": 0,
        "slot": "4",
        "type": "t_uint256"
      },
      {
        "astId": 4341,
        "contract": "contracts/SimpleBet.sol:SimpleBet",
        "label": "_betMetas",
        "offset": 0,
        "slot": "5",
        "type": "t_array(t_struct(Bet)4337_storage)dyn_storage"
      },
      {
        "astId": 4344,
        "contract": "contracts/SimpleBet.sol:SimpleBet",
        "label": "_betSecrets",
        "offset": 0,
        "slot": "6",
        "type": "t_array(t_bytes_storage)dyn_storage"
      },
      {
        "astId": 4349,
        "contract": "contracts/SimpleBet.sol:SimpleBet",
        "label": "_userBets",
        "offset": 0,
        "slot": "7",
        "type": "t_mapping(t_address,t_array(t_uint256)dyn_storage)"
      },
      {
        "astId": 4353,
        "contract": "contracts/SimpleBet.sol:SimpleBet",
        "label": "userBalances",
        "offset": 0,
        "slot": "8",
        "type": "t_mapping(t_address,t_uint256)"
      }
    ],
    "types": {
      "t_address": {
        "encoding": "inplace",
        "label": "address",
        "numberOfBytes": "20"
      },
      "t_array(t_bytes_storage)dyn_storage": {
        "base": "t_bytes_storage",
        "encoding": "dynamic_array",
        "label": "bytes[]",
        "numberOfBytes": "32"
      },
      "t_array(t_struct(Bet)4337_storage)dyn_storage": {
        "base": "t_struct(Bet)4337_storage",
        "encoding": "dynamic_array",
        "label": "struct SimpleBet.Bet[]",
        "numberOfBytes": "32"
      },
      "t_array(t_uint256)dyn_storage": {
        "base": "t_uint256",
        "encoding": "dynamic_array",
        "label": "uint256[]",
        "numberOfBytes": "32"
      },
      "t_bool": {
        "encoding": "inplace",
        "label": "bool",
        "numberOfBytes": "1"
      },
      "t_bytes32": {
        "encoding": "inplace",
        "label": "bytes32",
        "numberOfBytes": "32"
      },
      "t_bytes_storage": {
        "encoding": "bytes",
        "label": "bytes",
        "numberOfBytes": "32"
      },
      "t_enum(BetOutcome)4315": {
        "encoding": "inplace",
        "label": "enum SimpleBet.BetOutcome",
        "numberOfBytes": "1"
      },
      "t_enum(BetStatus)4320": {
        "encoding": "inplace",
        "label": "enum SimpleBet.BetStatus",
        "numberOfBytes": "1"
      },
      "t_mapping(t_address,t_array(t_uint256)dyn_storage)": {
        "encoding": "mapping",
        "key": "t_address",
        "label": "mapping(address => uint256[])",
        "numberOfBytes": "32",
        "value": "t_array(t_uint256)dyn_storage"
      },
      "t_mapping(t_address,t_uint256)": {
        "encoding": "mapping",
        "key": "t_address",
        "label": "mapping(address => uint256)",
        "numberOfBytes": "32",
        "value": "t_uint256"
      },
      "t_mapping(t_bytes32,t_bool)": {
        "encoding": "mapping",
        "key": "t_bytes32",
        "label": "mapping(bytes32 => bool)",
        "numberOfBytes": "32",
        "value": "t_bool"
      },
      "t_string_storage": {
        "encoding": "bytes",
        "label": "string",
        "numberOfBytes": "32"
      },
      "t_struct(Bet)4337_storage": {
        "encoding": "inplace",
        "label": "struct SimpleBet.Bet",
        "members": [
          {
            "astId": 4322,
            "contract": "contracts/SimpleBet.sol:SimpleBet",
            "label": "id",
            "offset": 0,
            "slot": "0",
            "type": "t_uint256"
          },
          {
            "astId": 4324,
            "contract": "contracts/SimpleBet.sol:SimpleBet",
            "label": "user",
            "offset": 0,
            "slot": "1",
            "type": "t_address"
          },
          {
            "astId": 4326,
            "contract": "contracts/SimpleBet.sol:SimpleBet",
            "label": "amount",
            "offset": 0,
            "slot": "2",
            "type": "t_uint256"
          },
          {
            "astId": 4329,
            "contract": "contracts/SimpleBet.sol:SimpleBet",
            "label": "outcome",
            "offset": 0,
            "slot": "3",
            "type": "t_enum(BetOutcome)4315"
          },
          {
            "astId": 4332,
            "contract": "contracts/SimpleBet.sol:SimpleBet",
            "label": "status",
            "offset": 1,
            "slot": "3",
            "type": "t_enum(BetStatus)4320"
          },
          {
            "astId": 4334,
            "contract": "contracts/SimpleBet.sol:SimpleBet",
            "label": "createdAt",
            "offset": 0,
            "slot": "4",
            "type": "t_uint256"
          },
          {
            "astId": 4336,
            "contract": "contracts/SimpleBet.sol:SimpleBet",
            "label": "description",
            "offset": 0,
            "slot": "5",
            "type": "t_string_storage"
          }
        ],
        "numberOfBytes": "192"
      },
      "t_uint256": {
        "encoding": "inplace",
        "label": "uint256",
        "numberOfBytes": "32"
      }
    }
  }
}