{
  "address": "0xB427045A44230615e08A9C2ad00233425F206C74",
  "abi": [
    {
      "inputs": [
        {
          "internalType": "string",
          "name": "domain",
          "type": "string"
        }
      ],
      "stateMutability": "nonpayable",
      "type": "constructor"
    },
    {
      "inputs": [],
      "name": "A13e_RevokedAuthToken",
      "type": "error"
    },
    {
      "inputs": [],
      "name": "SiweAuth_AddressMismatch",
      "type": "error"
    },
    {
      "inputs": [],
      "name": "SiweAuth_ChainIdMismatch",
      "type": "error"
    },
    {
      "inputs": [],
      "name": "SiweAuth_DomainMismatch",
      "type": "error"
    },
    {
      "inputs": [],
      "name": "SiweAuth_Expired",
      "type": "error"
    },
    {
      "inputs": [],
      "name": "SiweAuth_NotBeforeInFuture",
      "type": "error"
    },
    {
      "inputs": [],
      "name": "SiweParser_InvalidAddressLength",
      "type": "error"
    },
    {
      "inputs": [],
      "name": "SiweParser_InvalidNonce",
      "type": "error"
    },
    {
      "anonymous": false,
      "inputs": [
        {
          "indexed": true,
          "internalType": "uint256",
          "name": "betId",
          "type": "uint256"
        },
        {
          "indexed": true,
          "internalType": "address",
          "name": "user",
          "type": "address"
        },
        {
          "indexed": false,
          "internalType": "uint256",
          "name": "totalAmount",
          "type": "uint256"
        },
        {
          "indexed": false,
          "internalType": "uint256",
          "name": "subBetCount",
          "type": "uint256"
        },
        {
          "indexed": false,
          "internalType": "uint256",
          "name": "index",
          "type": "uint256"
        }
      ],
      "name": "BetPlaced",
      "type": "event"
    },
    {
      "anonymous": false,
      "inputs": [
        {
          "indexed": true,
          "internalType": "uint256",
          "name": "betId",
          "type": "uint256"
        },
        {
          "indexed": false,
          "internalType": "enum SimpleBet.BetStatus",
          "name": "status",
          "type": "uint8"
        },
        {
          "indexed": false,
          "internalType": "uint256",
          "name": "payout",
          "type": "uint256"
        }
      ],
      "name": "BetResolved",
      "type": "event"
    },
    {
      "anonymous": false,
      "inputs": [
        {
          "indexed": true,
          "internalType": "address",
          "name": "user",
          "type": "address"
        },
        {
          "indexed": false,
          "internalType": "uint256",
          "name": "amount",
          "type": "uint256"
        }
      ],
      "name": "FundsWithdrawn",
      "type": "event"
    },
    {
      "anonymous": false,
      "inputs": [
        {
          "indexed": true,
          "internalType": "uint256",
          "name": "betId",
          "type": "uint256"
        },
        {
          "indexed": false,
          "internalType": "string",
          "name": "platform",
          "type": "string"
        },
        {
          "indexed": false,
          "internalType": "uint256",
          "name": "amount",
          "type": "uint256"
        },
        {
          "indexed": false,
          "internalType": "string",
          "name": "marketId",
          "type": "string"
        },
        {
          "indexed": false,
          "internalType": "enum SimpleBet.BetOutcome",
          "name": "outcome",
          "type": "uint8"
        }
      ],
      "name": "SubBetPlaced",
      "type": "event"
    },
    {
      "inputs": [
        {
          "internalType": "uint256",
          "name": "betId",
          "type": "uint256"
        },
        {
          "internalType": "bytes",
          "name": "token",
          "type": "bytes"
        }
      ],
      "name": "cancelBet",
      "outputs": [],
      "stateMutability": "nonpayable",
      "type": "function"
    },
    {
      "inputs": [],
      "name": "domain",
      "outputs": [
        {
          "internalType": "string",
          "name": "",
          "type": "string"
        }
      ],
      "stateMutability": "view",
      "type": "function"
    },
    {
      "inputs": [
        {
          "internalType": "bytes",
          "name": "token",
          "type": "bytes"
        },
        {
          "internalType": "uint256",
          "name": "offset",
          "type": "uint256"
        },
        {
          "internalType": "uint256",
          "name": "count",
          "type": "uint256"
        }
      ],
      "name": "getAllBets",
      "outputs": [
        {
          "components": [
            {
              "internalType": "uint256",
              "name": "id",
              "type": "uint256"
            },
            {
              "internalType": "address",
              "name": "user",
              "type": "address"
            },
            {
              "internalType": "uint256",
              "name": "totalAmount",
              "type": "uint256"
            },
            {
              "internalType": "enum SimpleBet.BetStatus",
              "name": "status",
              "type": "uint8"
            },
            {
              "internalType": "uint256",
              "name": "createdAt",
              "type": "uint256"
            },
            {
              "internalType": "string",
              "name": "description",
              "type": "string"
            },
            {
              "components": [
                {
                  "internalType": "string",
                  "name": "platform",
                  "type": "string"
                },
                {
                  "internalType": "uint256",
                  "name": "amount",
                  "type": "uint256"
                },
                {
                  "internalType": "string",
                  "name": "marketId",
                  "type": "string"
                },
                {
                  "internalType": "enum SimpleBet.BetOutcome",
                  "name": "outcome",
                  "type": "uint8"
                },
                {
                  "internalType": "enum SimpleBet.BetStatus",
                  "name": "status",
                  "type": "uint8"
                },
                {
                  "internalType": "uint256",
                  "name": "payout",
                  "type": "uint256"
                }
              ],
              "internalType": "struct SimpleBet.SubBet[]",
              "name": "subBets",
              "type": "tuple[]"
            },
            {
              "internalType": "uint256",
              "name": "totalPayout",
              "type": "uint256"
            }
          ],
          "internalType": "struct SimpleBet.Bet[]",
          "name": "",
          "type": "tuple[]"
        }
      ],
      "stateMutability": "view",
      "type": "function"
    },
    {
      "inputs": [
        {
          "internalType": "bytes",
          "name": "token",
          "type": "bytes"
        },
        {
          "internalType": "uint256",
          "name": "betIndex",
          "type": "uint256"
        }
      ],
      "name": "getBet",
      "outputs": [
        {
          "components": [
            {
              "internalType": "uint256",
              "name": "id",
              "type": "uint256"
            },
            {
              "internalType": "address",
              "name": "user",
              "type": "address"
            },
            {
              "internalType": "uint256",
              "name": "totalAmount",
              "type": "uint256"
            },
            {
              "internalType": "enum SimpleBet.BetStatus",
              "name": "status",
              "type": "uint8"
            },
            {
              "internalType": "uint256",
              "name": "createdAt",
              "type": "uint256"
            },
            {
              "internalType": "string",
              "name": "description",
              "type": "string"
            },
            {
              "components": [
                {
                  "internalType": "string",
                  "name": "platform",
                  "type": "string"
                },
                {
                  "internalType": "uint256",
                  "name": "amount",
                  "type": "uint256"
                },
                {
                  "internalType": "string",
                  "name": "marketId",
                  "type": "string"
                },
                {
                  "internalType": "enum SimpleBet.BetOutcome",
                  "name": "outcome",
                  "type": "uint8"
                },
                {
                  "internalType": "enum SimpleBet.BetStatus",
                  "name": "status",
                  "type": "uint8"
                },
                {
                  "internalType": "uint256",
                  "name": "payout",
                  "type": "uint256"
                }
              ],
              "internalType": "struct SimpleBet.SubBet[]",
              "name": "subBets",
              "type": "tuple[]"
            },
            {
              "internalType": "uint256",
              "name": "totalPayout",
              "type": "uint256"
            }
          ],
          "internalType": "struct SimpleBet.Bet",
          "name": "",
          "type": "tuple"
        }
      ],
      "stateMutability": "view",
      "type": "function"
    },
    {
      "inputs": [
        {
          "internalType": "bytes",
          "name": "token",
          "type": "bytes"
        },
        {
          "internalType": "uint256",
          "name": "betId",
          "type": "uint256"
        }
      ],
      "name": "getBetSummary",
      "outputs": [
        {
          "internalType": "uint256",
          "name": "id",
          "type": "uint256"
        },
        {
          "internalType": "address",
          "name": "user",
          "type": "address"
        },
        {
          "internalType": "uint256",
          "name": "totalAmount",
          "type": "uint256"
        },
        {
          "internalType": "enum SimpleBet.BetStatus",
          "name": "status",
          "type": "uint8"
        },
        {
          "internalType": "uint256",
          "name": "createdAt",
          "type": "uint256"
        },
        {
          "internalType": "string",
          "name": "description",
          "type": "string"
        },
        {
          "internalType": "uint256",
          "name": "subBetCount",
          "type": "uint256"
        },
        {
          "internalType": "uint256",
          "name": "totalPayout",
          "type": "uint256"
        }
      ],
      "stateMutability": "view",
      "type": "function"
    },
    {
      "inputs": [],
      "name": "getContractBalance",
      "outputs": [
        {
          "internalType": "uint256",
          "name": "",
          "type": "uint256"
        }
      ],
      "stateMutability": "view",
      "type": "function"
    },
    {
      "inputs": [],
      "name": "getOwner",
      "outputs": [
        {
          "internalType": "address",
          "name": "",
          "type": "address"
        }
      ],
      "stateMutability": "view",
      "type": "function"
    },
    {
      "inputs": [
        {
          "internalType": "bytes",
          "name": "token",
          "type": "bytes"
        },
        {
          "internalType": "uint256",
          "name": "betId",
          "type": "uint256"
        }
      ],
      "name": "getSubBets",
      "outputs": [
        {
          "components": [
            {
              "internalType": "string",
              "name": "platform",
              "type": "string"
            },
            {
              "internalType": "uint256",
              "name": "amount",
              "type": "uint256"
            },
            {
              "internalType": "string",
              "name": "marketId",
              "type": "string"
            },
            {
              "internalType": "enum SimpleBet.BetOutcome",
              "name": "outcome",
              "type": "uint8"
            },
            {
              "internalType": "enum SimpleBet.BetStatus",
              "name": "status",
              "type": "uint8"
            },
            {
              "internalType": "uint256",
              "name": "payout",
              "type": "uint256"
            }
          ],
          "internalType": "struct SimpleBet.SubBet[]",
          "name": "",
          "type": "tuple[]"
        }
      ],
      "stateMutability": "view",
      "type": "function"
    },
    {
      "inputs": [],
      "name": "getTotalBets",
      "outputs": [
        {
          "internalType": "uint256",
          "name": "",
          "type": "uint256"
        }
      ],
      "stateMutability": "view",
      "type": "function"
    },
    {
      "inputs": [
        {
          "internalType": "address",
          "name": "user",
          "type": "address"
        }
      ],
      "name": "getUserBetCount",
      "outputs": [
        {
          "internalType": "uint256",
          "name": "",
          "type": "uint256"
        }
      ],
      "stateMutability": "view",
      "type": "function"
    },
    {
      "inputs": [
        {
          "internalType": "bytes",
          "name": "token",
          "type": "bytes"
        },
        {
          "internalType": "uint256",
          "name": "offset",
          "type": "uint256"
        },
        {
          "internalType": "uint256",
          "name": "count",
          "type": "uint256"
        }
      ],
      "name": "getUserBets",
      "outputs": [
        {
          "components": [
            {
              "internalType": "uint256",
              "name": "id",
              "type": "uint256"
            },
            {
              "internalType": "address",
              "name": "user",
              "type": "address"
            },
            {
              "internalType": "uint256",
              "name": "totalAmount",
              "type": "uint256"
            },
            {
              "internalType": "enum SimpleBet.BetStatus",
              "name": "status",
              "type": "uint8"
            },
            {
              "internalType": "uint256",
              "name": "createdAt",
              "type": "uint256"
            },
            {
              "internalType": "string",
              "name": "description",
              "type": "string"
            },
            {
              "components": [
                {
                  "internalType": "string",
                  "name": "platform",
                  "type": "string"
                },
                {
                  "internalType": "uint256",
                  "name": "amount",
                  "type": "uint256"
                },
                {
                  "internalType": "string",
                  "name": "marketId",
                  "type": "string"
                },
                {
                  "internalType": "enum SimpleBet.BetOutcome",
                  "name": "outcome",
                  "type": "uint8"
                },
                {
                  "internalType": "enum SimpleBet.BetStatus",
                  "name": "status",
                  "type": "uint8"
                },
                {
                  "internalType": "uint256",
                  "name": "payout",
                  "type": "uint256"
                }
              ],
              "internalType": "struct SimpleBet.SubBet[]",
              "name": "subBets",
              "type": "tuple[]"
            },
            {
              "internalType": "uint256",
              "name": "totalPayout",
              "type": "uint256"
            }
          ],
          "internalType": "struct SimpleBet.Bet[]",
          "name": "",
          "type": "tuple[]"
        }
      ],
      "stateMutability": "view",
      "type": "function"
    },
    {
      "inputs": [
        {
          "internalType": "string",
          "name": "siweMsg",
          "type": "string"
        },
        {
          "components": [
            {
              "internalType": "bytes32",
              "name": "r",
              "type": "bytes32"
            },
            {
              "internalType": "bytes32",
              "name": "s",
              "type": "bytes32"
            },
            {
              "internalType": "uint256",
              "name": "v",
              "type": "uint256"
            }
          ],
          "internalType": "struct SignatureRSV",
          "name": "sig",
          "type": "tuple"
        }
      ],
      "name": "login",
      "outputs": [
        {
          "internalType": "bytes",
          "name": "",
          "type": "bytes"
        }
      ],
      "stateMutability": "view",
      "type": "function"
    },
    {
      "inputs": [
        {
          "internalType": "uint256",
          "name": "amount",
          "type": "uint256"
        },
        {
          "internalType": "bytes",
          "name": "token",
          "type": "bytes"
        }
      ],
      "name": "ownerWithdraw",
      "outputs": [],
      "stateMutability": "nonpayable",
      "type": "function"
    },
    {
      "inputs": [
        {
          "internalType": "string",
          "name": "description",
          "type": "string"
        },
        {
          "internalType": "string[]",
          "name": "platforms",
          "type": "string[]"
        },
        {
          "internalType": "uint256[]",
          "name": "amounts",
          "type": "uint256[]"
        },
        {
          "internalType": "string[]",
          "name": "marketIds",
          "type": "string[]"
        },
        {
          "internalType": "enum SimpleBet.BetOutcome[]",
          "name": "outcomes",
          "type": "uint8[]"
        }
      ],
      "name": "placeBet",
      "outputs": [],
      "stateMutability": "payable",
      "type": "function"
    },
    {
      "inputs": [
        {
          "internalType": "uint256",
          "name": "betId",
          "type": "uint256"
        },
        {
          "internalType": "uint256",
          "name": "subBetIndex",
          "type": "uint256"
        },
        {
          "internalType": "bool",
          "name": "won",
          "type": "bool"
        },
        {
          "internalType": "uint256",
          "name": "payout",
          "type": "uint256"
        },
        {
          "internalType": "bytes",
          "name": "token",
          "type": "bytes"
        }
      ],
      "name": "resolveSubBet",
      "outputs": [],
      "stateMutability": "nonpayable",
      "type": "function"
    },
    {
      "inputs": [
        {
          "internalType": "address",
          "name": "",
          "type": "address"
        }
      ],
      "name": "userBalances",
      "outputs": [
        {
          "internalType": "uint256",
          "name": "",
          "type": "uint256"
        }
      ],
      "stateMutability": "view",
      "type": "function"
    },
    {
      "inputs": [],
      "name": "withdrawBalance",
      "outputs": [],
      "stateMutability": "nonpayable",
      "type": "function"
    }
  ],
  "transactionHash": "0x2ccb5cf9ef256e74701203422db84cd28daa91e817fc73539de8c5a29473b804",
  "args": [
    "testnet.sapphire.oasis.io"
  ],
  "numDeployments": 4,
  "solcInputHash": "4a5a79fc6b2cd43cb27d2d6c63bd4561",
  "bytecode": "0x608060405260016004553480156200001657600080fd5b50604051620053a0380380620053a08339810160408190526200003991620001c4565b806200005c6020604051806020016040528060008152506200009360201b60201c565b62000067906200027c565b60025560016200007882826200032d565b5050600380546001600160a01b031916331790555062000453565b60606000807301000000000000000000000000000000000000016001600160a01b03168585604051602001620000cb929190620003f9565b60408051601f1981840301815290829052620000e79162000435565b600060405180830381855afa9150503d806000811462000124576040519150601f19603f3d011682016040523d82523d6000602084013e62000129565b606091505b509150915081620001805760405162461bcd60e51b815260206004820152601360248201527f72616e646f6d42797465733a206661696c656400000000000000000000000000604482015260640160405180910390fd5b949350505050565b634e487b7160e01b600052604160045260246000fd5b60005b83811015620001bb578181015183820152602001620001a1565b50506000910152565b600060208284031215620001d757600080fd5b81516001600160401b0380821115620001ef57600080fd5b818401915084601f8301126200020457600080fd5b81518181111562000219576200021962000188565b604051601f8201601f19908116603f0116810190838211818310171562000244576200024462000188565b816040528281528760208487010111156200025e57600080fd5b620002718360208301602088016200019e565b979650505050505050565b805160208083015191908110156200029e576000198160200360031b1b821691505b50919050565b600181811c90821680620002b957607f821691505b6020821081036200029e57634e487b7160e01b600052602260045260246000fd5b601f8211156200032857600081815260208120601f850160051c81016020861015620003035750805b601f850160051c820191505b8181101562000324578281556001016200030f565b5050505b505050565b81516001600160401b0381111562000349576200034962000188565b62000361816200035a8454620002a4565b84620002da565b602080601f831160018114620003995760008415620003805750858301515b600019600386901b1c1916600185901b17855562000324565b600085815260208120601f198616915b82811015620003ca57888601518255948401946001909101908401620003a9565b5085821015620003e95787850151600019600388901b60f8161c191681555b5050505050600190811b01905550565b8281526040602082015260008251806040840152620004208160608501602087016200019e565b601f01601f1916919091016060019392505050565b60008251620004498184602087016200019e565b9190910192915050565b614f3d80620004636000396000f3fe6080604052600436106100fe5760003560e01c80637f476b6f11610095578063b624010a11610064578063b624010a146102b8578063c2fb26a6146102ee578063c627348d14610303578063c6d87da914610330578063c908bea61461035057600080fd5b80637f476b6f14610221578063893d20e81461024e578063a3cb679d14610276578063ad6d46161461028b57600080fd5b8063524acf91116100d1578063524acf91146101c65780635fd8c710146101d957806369ea5829146101ee5780636f9fb98a1461020e57600080fd5b806326224c64146101035780633bec53c6146101435780634bb30b75146101705780634c4e262d14610192575b600080fd5b34801561010f57600080fd5b5061013061011e366004613e5b565b60076020526000908152604090205481565b6040519081526020015b60405180910390f35b34801561014f57600080fd5b5061016361015e366004613f63565b610370565b60405161013a9190614031565b34801561017c57600080fd5b5061019061018b3660046140f5565b61066b565b005b34801561019e57600080fd5b506101b26101ad366004613f63565b6107fc565b60405161013a98979695949392919061413b565b6101906101d4366004614222565b6109c9565b3480156101e557600080fd5b5061019061109a565b3480156101fa57600080fd5b50610190610209366004614312565b6111c4565b34801561021a57600080fd5b5047610130565b34801561022d57600080fd5b5061024161023c366004614383565b61151e565b60405161013a91906143e1565b34801561025a57600080fd5b506003546040516001600160a01b03909116815260200161013a565b34801561028257600080fd5b50600554610130565b34801561029757600080fd5b506102ab6102a6366004613f63565b61182b565b60405161013a919061451a565b3480156102c457600080fd5b506101306102d3366004613e5b565b6001600160a01b031660009081526006602052604090205490565b3480156102fa57600080fd5b50610241611be9565b34801561030f57600080fd5b5061032361031e36600461452d565b611c7b565b60405161013a919061457a565b34801561033c57600080fd5b5061019061034b3660046140f5565b6120fd565b34801561035c57600080fd5b5061032361036b36600461452d565b6123b9565b6060600061037d846128b0565b90506001600160a01b0381166103ae5760405162461bcd60e51b81526004016103a5906145dc565b60405180910390fd5b6000831180156103bf575060045483105b6103db5760405162461bcd60e51b81526004016103a590614613565b60005b60055481101561064c5783600582815481106103fc576103fc61463b565b9060005260206000209060080201600001540361063a57600581815481106104265761042661463b565b9060005260206000209060080201600601805480602002602001604051908101604052809291908181526020016000905b8282101561062d57838290600052602060002090600502016040518060c001604052908160008201805461048a90614651565b80601f01602080910402602001604051908101604052809291908181526020018280546104b690614651565b80156105035780601f106104d857610100808354040283529160200191610503565b820191906000526020600020905b8154815290600101906020018083116104e657829003601f168201915b505050505081526020016001820154815260200160028201805461052690614651565b80601f016020809104026020016040519081016040528092919081815260200182805461055290614651565b801561059f5780601f106105745761010080835404028352916020019161059f565b820191906000526020600020905b81548152906001019060200180831161058257829003601f168201915b5050509183525050600382015460209091019060ff1660018111156105c6576105c6613ff7565b60018111156105d7576105d7613ff7565b81526020016003820160019054906101000a900460ff1660038111156105ff576105ff613ff7565b600381111561061057610610613ff7565b815260200160048201548152505081526020019060010190610457565b5050505092505050610665565b806106448161469b565b9150506103de565b5060405162461bcd60e51b81526004016103a5906146b4565b92915050565b60035481906001600160a01b031633148015906106a457506003546001600160a01b0316610698826128b0565b6001600160a01b031614155b156106c15760405162461bcd60e51b81526004016103a5906146db565b478311156107115760405162461bcd60e51b815260206004820152601d60248201527f496e73756666696369656e7420636f6e74726163742062616c616e636500000060448201526064016103a5565b6003546040516000916001600160a01b03169085908381818185875af1925050503d806000811461075e576040519150601f19603f3d011682016040523d82523d6000602084013e610763565b606091505b50509050806107b45760405162461bcd60e51b815260206004820152601760248201527f4f776e6572207769746864726177616c206661696c656400000000000000000060448201526064016103a5565b6003546040518581526001600160a01b03909116907feaff4b37086828766ad3268786972c0cd24259d4c87a80f9d3963a3c3d999b0d9060200160405180910390a250505050565b6000806000806000606060008060006108148b6128b0565b90506001600160a01b03811661083c5760405162461bcd60e51b81526004016103a5906145dc565b60008a11801561084d57506004548a105b6108695760405162461bcd60e51b81526004016103a590614613565b60005b60055481101561064c578a6005828154811061088a5761088a61463b565b906000526020600020906008020160000154036109aa576000600582815481106108b6576108b661463b565b60009182526020909120600890910201805460018201546002830154600384015460048501546006860154600787015460058801805498995096976001600160a01b0390961696949560ff909416949293839061091290614651565b80601f016020809104026020016040519081016040528092919081815260200182805461093e90614651565b801561098b5780601f106109605761010080835404028352916020019161098b565b820191906000526020600020905b81548152906001019060200180831161096e57829003601f168201915b505050505092509a509a509a509a509a509a509a509a505050506109bc565b806109b48161469b565b91505061086c565b9295985092959890939650565b60003411610a235760405162461bcd60e51b815260206004820152602160248201527f42657420616d6f756e74206d7573742062652067726561746572207468616e206044820152600360fc1b60648201526084016103a5565b86610a705760405162461bcd60e51b815260206004820152601c60248201527f4174206c65617374206f6e65207375626265742072657175697265640000000060448201526064016103a5565b8685148015610a7e57508483145b8015610a8957508281145b610ad55760405162461bcd60e51b815260206004820152601860248201527f4172726179206c656e67746873206d757374206d61746368000000000000000060448201526064016103a5565b6000805b86811015610b93576000888883818110610af557610af561463b565b9050602002013511610b5b5760405162461bcd60e51b815260206004820152602960248201527f456163682073756262657420616d6f756e74206d75737420626520677265617460448201526806572207468616e20360bc1b60648201526084016103a5565b878782818110610b6d57610b6d61463b565b9050602002013582610b7f9190614700565b915080610b8b8161469b565b915050610ad9565b50348114610bf65760405162461bcd60e51b815260206004820152602a60248201527f546f74616c2073756262657420616d6f756e7473206d75737420657175616c2060448201526973656e742076616c756560b01b60648201526084016103a5565b6004805460009182610c078361469b565b90915550600580546001810182556000919091526008027f036b6384b5eca791c62761152d0c79bb0604c104a5fb6f4eb0703f3154bb3db081018281557f036b6384b5eca791c62761152d0c79bb0604c104a5fb6f4eb0703f3154bb3db1820180546001600160a01b03191633179055347f036b6384b5eca791c62761152d0c79bb0604c104a5fb6f4eb0703f3154bb3db28301557f036b6384b5eca791c62761152d0c79bb0604c104a5fb6f4eb0703f3154bb3db38201805460ff19169055427f036b6384b5eca791c62761152d0c79bb0604c104a5fb6f4eb0703f3154bb3db48301559192507f036b6384b5eca791c62761152d0c79bb0604c104a5fb6f4eb0703f3154bb3db501610d1c8d8f83614762565b506000600782018190555b8a811015610fdc57816006016040518060c001604052808e8e85818110610d5057610d5061463b565b9050602002810190610d629190614822565b8080601f0160208091040260200160405190810160405280939291908181526020018383808284376000920191909152505050908252506020018c8c85818110610dae57610dae61463b565b9050602002013581526020018a8a85818110610dcc57610dcc61463b565b9050602002810190610dde9190614822565b8080601f016020809104026020016040519081016040528093929190818152602001838380828437600092019190915250505090825250602001888885818110610e2a57610e2a61463b565b9050602002016020810190610e3f9190614868565b6001811115610e5057610e50613ff7565b815260200160008152600060209182018190528354600181018555938152208151919260050201908190610e849082614889565b506020820151600182015560408201516002820190610ea39082614889565b50606082015160038201805460ff191660018381811115610ec657610ec6613ff7565b021790555060808201518160030160016101000a81548160ff02191690836003811115610ef557610ef5613ff7565b021790555060a082015181600401555050827ff1e09724ef7fd9973aeb6cb8f9b0df6826740ff52c43ae1cea8d4042289b53538d8d84818110610f3a57610f3a61463b565b9050602002810190610f4c9190614822565b8d8d86818110610f5e57610f5e61463b565b905060200201358c8c87818110610f7757610f7761463b565b9050602002810190610f899190614822565b8c8c89818110610f9b57610f9b61463b565b9050602002016020810190610fb09190614868565b604051610fc296959493929190614971565b60405180910390a280610fd48161469b565b915050610d27565b50336000908152600660205260409020600554610ffb906001906149b9565b815460018101835560009283526020808420909101919091553382526007905260408120805434929061102f908490614700565b9091555050600554339083907fab2115bac1de808eb7fe2be0309085b11f1f42b1eb980de8352efefdbfc098e29034908e9061106d906001906149b9565b6040805193845260208401929092529082015260600160405180910390a350505050505050505050505050565b33600090815260076020526040902054806110f05760405162461bcd60e51b81526020600482015260166024820152754e6f2062616c616e636520746f20776974686472617760501b60448201526064016103a5565b336000818152600760205260408082208290555190919083908381818185875af1925050503d8060008114611141576040519150601f19603f3d011682016040523d82523d6000602084013e611146565b606091505b505090508061118b5760405162461bcd60e51b815260206004820152601160248201527015da5d1a191c985dd85b0819985a5b1959607a1b60448201526064016103a5565b60405182815233907feaff4b37086828766ad3268786972c0cd24259d4c87a80f9d3963a3c3d999b0d9060200160405180910390a25050565b60035481906001600160a01b031633148015906111fd57506003546001600160a01b03166111f1826128b0565b6001600160a01b031614155b1561121a5760405162461bcd60e51b81526004016103a5906146db565b60008611801561122b575060045486105b6112475760405162461bcd60e51b81526004016103a590614613565b60008060005b6005548110156112a057886005828154811061126b5761126b61463b565b9060005260206000209060080201600001540361128e57809250600191506112a0565b806112988161469b565b91505061124d565b50806112be5760405162461bcd60e51b81526004016103a5906146b4565b6000600583815481106112d3576112d361463b565b90600052602060002090600802019050806006018054905088106113305760405162461bcd60e51b8152602060048201526014602482015273092dcecc2d8d2c840e6eac4c4cae840d2dcc8caf60631b60448201526064016103a5565b60008160060189815481106113475761134761463b565b906000526020600020906005020160030160019054906101000a900460ff16600381111561137757611377613ff7565b146113c45760405162461bcd60e51b815260206004820152601760248201527f53756242657420616c7265616479207265736f6c76656400000000000000000060448201526064016103a5565b60008160060189815481106113db576113db61463b565b90600052602060002090600502019050871561146b5760038101805461ff00191661010017905560048101879055600782018054889190600090611420908490614700565b9091555050600181015461143490886149b9565b60018301546001600160a01b031660009081526007602052604081208054909190611460908490614700565b909155506114ba9050565b60038101805461ff001916610200179055600060048201819055600180830154908401546001600160a01b031682526007602052604082208054919290916114b49084906149b9565b90915550505b6114c384612917565b897fb4810c14f5f90d64272bdaaa79adbcd7a5593b0be3da5c9073f83a6e05169a168260030160019054906101000a900460ff16836004015460405161150a9291906149cc565b60405180910390a250505050505050505050565b6060611528613d3d565b600061153385612a3d565b8686604051602001611547939291906149e7565b60408051601f19818403018152828252805160208083019190912060008086528583018086529190915260ff89850135169385019390935287356060850152870135608084015292509060019060a0016020604051602081039080840390855afa1580156115b9573d6000803e3d6000fd5b5050604051601f1901516001600160a01b03811660208601529150600090506115e28888612acf565b9050468160a00151146116085760405163362c833760e01b815260040160405180910390fd5b60016040516116179190614a3b565b6040518091039020816000015180519060200120146116495760405163283d62bd60e01b815260040160405180910390fd5b8051845260208101516001600160a01b0383811691161461167d576040516305cc02e160e01b815260040160405180910390fd5b610120810151511580159061169f575061169b816101200151612f36565b4211155b156116bd5760405163299d02f160e01b815260040160405180910390fd5b61010081015151156116e45760006116d9826101000151612f36565b6040860152506116f7565b6116f16201518042614700565b60408501525b8360400151421061171b57604051630b17115560e41b815260040160405180910390fd5b60408101516060850152610160810151516001600160401b0381111561174357611743613e78565b60405190808252806020026020018201604052801561177657816020015b60608152602001906001900390816117615790505b50608085015260005b816101600151518110156117e05781610160015181815181106117a4576117a461463b565b6020026020010151856080015182815181106117c2576117c261463b565b602002602001018190525080806117d89061469b565b91505061177f565b50600061181c6002546000801b876040516020016117fe9190614ab1565b60408051601f19818403018152602083019091526000825290612fa5565b955050505050505b9392505050565b611833613d75565b600061183e846128b0565b90506001600160a01b0381166118665760405162461bcd60e51b81526004016103a5906145dc565b60055483106118ac5760405162461bcd60e51b815260206004820152601260248201527110995d08191bd95cc81b9bdd08195e1a5cdd60721b60448201526064016103a5565b600583815481106118bf576118bf61463b565b6000918252602091829020604080516101008101825260089093029091018054835260018101546001600160a01b031693830193909352600283015490820152600380830154919291606084019160ff9091169081111561192257611922613ff7565b600381111561193357611933613ff7565b81526020016004820154815260200160058201805461195190614651565b80601f016020809104026020016040519081016040528092919081815260200182805461197d90614651565b80156119ca5780601f1061199f576101008083540402835291602001916119ca565b820191906000526020600020905b8154815290600101906020018083116119ad57829003601f168201915b5050505050815260200160068201805480602002602001604051908101604052809291908181526020016000905b82821015611bce57838290600052602060002090600502016040518060c0016040529081600082018054611a2b90614651565b80601f0160208091040260200160405190810160405280929190818152602001828054611a5790614651565b8015611aa45780601f10611a7957610100808354040283529160200191611aa4565b820191906000526020600020905b815481529060010190602001808311611a8757829003601f168201915b5050505050815260200160018201548152602001600282018054611ac790614651565b80601f0160208091040260200160405190810160405280929190818152602001828054611af390614651565b8015611b405780601f10611b1557610100808354040283529160200191611b40565b820191906000526020600020905b815481529060010190602001808311611b2357829003601f168201915b5050509183525050600382015460209091019060ff166001811115611b6757611b67613ff7565b6001811115611b7857611b78613ff7565b81526020016003820160019054906101000a900460ff166003811115611ba057611ba0613ff7565b6003811115611bb157611bb1613ff7565b8152602001600482015481525050815260200190600101906119f8565b50505050815260200160078201548152505091505092915050565b606060018054611bf890614651565b80601f0160208091040260200160405190810160405280929190818152602001828054611c2490614651565b8015611c715780601f10611c4657610100808354040283529160200191611c71565b820191906000526020600020905b815481529060010190602001808311611c5457829003601f168201915b5050505050905090565b60606000611c88856128b0565b90506001600160a01b038116611cb05760405162461bcd60e51b81526004016103a5906145dc565b6005548410611cf3576040805160008082526020820190925290611cea565b611cd7613d75565b815260200190600190039081611ccf5790505b50915050611824565b6000611cff8486614700565b600554909150811115611d1157506005545b6000611d1d86836149b9565b6001600160401b03811115611d3457611d34613e78565b604051908082528060200260200182016040528015611d6d57816020015b611d5a613d75565b815260200190600190039081611d525790505b509050855b828110156120f2576005611d868289614700565b81548110611d9657611d9661463b565b6000918252602091829020604080516101008101825260089093029091018054835260018101546001600160a01b031693830193909352600283015490820152600380830154919291606084019160ff90911690811115611df957611df9613ff7565b6003811115611e0a57611e0a613ff7565b815260200160048201548152602001600582018054611e2890614651565b80601f0160208091040260200160405190810160405280929190818152602001828054611e5490614651565b8015611ea15780601f10611e7657610100808354040283529160200191611ea1565b820191906000526020600020905b815481529060010190602001808311611e8457829003601f168201915b5050505050815260200160068201805480602002602001604051908101604052809291908181526020016000905b828210156120a557838290600052602060002090600502016040518060c0016040529081600082018054611f0290614651565b80601f0160208091040260200160405190810160405280929190818152602001828054611f2e90614651565b8015611f7b5780601f10611f5057610100808354040283529160200191611f7b565b820191906000526020600020905b815481529060010190602001808311611f5e57829003601f168201915b5050505050815260200160018201548152602001600282018054611f9e90614651565b80601f0160208091040260200160405190810160405280929190818152602001828054611fca90614651565b80156120175780601f10611fec57610100808354040283529160200191612017565b820191906000526020600020905b815481529060010190602001808311611ffa57829003601f168201915b5050509183525050600382015460209091019060ff16600181111561203e5761203e613ff7565b600181111561204f5761204f613ff7565b81526020016003820160019054906101000a900460ff16600381111561207757612077613ff7565b600381111561208857612088613ff7565b815260200160048201548152505081526020019060010190611ecf565b5050505081526020016007820154815250508288836120c491906149b9565b815181106120d4576120d461463b565b602002602001018190525080806120ea9061469b565b915050611d72565b509695505050505050565b60035481906001600160a01b0316331480159061213657506003546001600160a01b031661212a826128b0565b6001600160a01b031614155b156121535760405162461bcd60e51b81526004016103a5906146db565b600083118015612164575060045483105b6121805760405162461bcd60e51b81526004016103a590614613565b60008060005b6005548110156121d95785600582815481106121a4576121a461463b565b906000526020600020906008020160000154036121c757809250600191506121d9565b806121d18161469b565b915050612186565b50806121f75760405162461bcd60e51b81526004016103a5906146b4565b60006005838154811061220c5761220c61463b565b60009182526020909120600360089092020181015460ff169081111561223457612234613ff7565b146122785760405162461bcd60e51b815260206004820152601460248201527310995d08185b1c9958591e481c995cdbdb1d995960621b60448201526064016103a5565b60006005838154811061228d5761228d61463b565b6000918252602082206008909102016003818101805460ff1916909117905591505b60068201548110156123685760008260060182815481106122d2576122d261463b565b906000526020600020906005020160030160019054906101000a900460ff16600381111561230257612302613ff7565b0361235657600382600601828154811061231e5761231e61463b565b906000526020600020906005020160030160016101000a81548160ff0219169083600381111561235057612350613ff7565b02179055505b806123608161469b565b9150506122af565b506003810154600282015460405188927fb4810c14f5f90d64272bdaaa79adbcd7a5593b0be3da5c9073f83a6e05169a16926123a99260ff909216916149cc565b60405180910390a2505050505050565b606060006123c6856128b0565b90506001600160a01b0381166123ee5760405162461bcd60e51b81526004016103a5906145dc565b6001600160a01b03811660009081526006602090815260408083208054825181850281018501909352808352919290919083018282801561244e57602002820191906000526020600020905b81548152602001906001019080831161243a575b505050505090508051851061249857604080516000808252602082019092529061248e565b61247b613d75565b8152602001906001900390816124735790505b5092505050611824565b60006124a48587614700565b905081518111156124b3575080515b60006124bf87836149b9565b6001600160401b038111156124d6576124d6613e78565b60405190808252806020026020018201604052801561250f57816020015b6124fc613d75565b8152602001906001900390816124f45790505b509050865b828110156128a45760058482815181106125305761253061463b565b6020026020010151815481106125485761254861463b565b6000918252602091829020604080516101008101825260089093029091018054835260018101546001600160a01b031693830193909352600283015490820152600380830154919291606084019160ff909116908111156125ab576125ab613ff7565b60038111156125bc576125bc613ff7565b8152602001600482015481526020016005820180546125da90614651565b80601f016020809104026020016040519081016040528092919081815260200182805461260690614651565b80156126535780601f1061262857610100808354040283529160200191612653565b820191906000526020600020905b81548152906001019060200180831161263657829003601f168201915b5050505050815260200160068201805480602002602001604051908101604052809291908181526020016000905b8282101561285757838290600052602060002090600502016040518060c00160405290816000820180546126b490614651565b80601f01602080910402602001604051908101604052809291908181526020018280546126e090614651565b801561272d5780601f106127025761010080835404028352916020019161272d565b820191906000526020600020905b81548152906001019060200180831161271057829003601f168201915b505050505081526020016001820154815260200160028201805461275090614651565b80601f016020809104026020016040519081016040528092919081815260200182805461277c90614651565b80156127c95780601f1061279e576101008083540402835291602001916127c9565b820191906000526020600020905b8154815290600101906020018083116127ac57829003601f168201915b5050509183525050600382015460209091019060ff1660018111156127f0576127f0613ff7565b600181111561280157612801613ff7565b81526020016003820160019054906101000a900460ff16600381111561282957612829613ff7565b600381111561283a5761283a613ff7565b815260200160048201548152505081526020019060010190612681565b50505050815260200160078201548152505082898361287691906149b9565b815181106128865761288661463b565b6020026020010181905250808061289c9061469b565b915050612514565b50979650505050505050565b80516020808301919091206000908152908190526040812054829060ff16156128ec576040516313d4cf0960e31b815260040160405180910390fd5b82516000036128fe5760009150612911565b60006129098461307a565b602001519250505b50919050565b60006005828154811061292c5761292c61463b565b6000918252602082206008909102019150600190805b6006840154811015612a065760008460060182815481106129655761296561463b565b906000526020600020906005020160030160019054906101000a900460ff16600381111561299557612995613ff7565b036129a35760009250612a06565b60018460060182815481106129ba576129ba61463b565b906000526020600020906005020160030160019054906101000a900460ff1660038111156129ea576129ea613ff7565b036129f457600191505b806129fe8161469b565b915050612942565b508115612a37578015612a275760038301805460ff19166001179055612a37565b60038301805460ff191660021790555b50505050565b60606000612a4a83613124565b60010190506000816001600160401b03811115612a6957612a69613e78565b6040519080825280601f01601f191660200182016040528015612a93576020820181803683370190505b5090508181016020015b600019016f181899199a1a9b1b9c1cb0b131b232b360811b600a86061a8153600a8504945084612a9d57509392505050565b612ad7613dba565b612adf613dba565b60005b83811015612b7057848482818110612afc57612afc61463b565b909101356001600160f81b031916600160fd1b039050612b5e57612b5785858080601f016020809104026020016040519081016040528093929190818152602001838380828437600092018290525092508591506131fc9050565b8252612b70565b80612b688161469b565b915050612ae2565b612b7b603282614700565b9050612be2612bdd86868080601f016020809104026020016040519081016040528093929190818152602001838380828437600092019190915250612bc7925060029150869050614700565b935083612bd5602882614700565b9450846131fc565b6132d2565b6001600160a01b03166020830152612bfb600282614700565b90508381108015612c355750848482818110612c1957612c1961463b565b9050013560f81c60f81b6001600160f81b031916600560f91b14155b15612cde57805b84811015612cdc57858582818110612c5657612c5661463b565b909101356001600160f81b031916600560f91b039050612cca57612cb386868080601f0160208091040260200160405190810160405280939291908181526020018383808284376000920191909152508692508591506131fc9050565b6040840152612cc3816001614700565b9150612cdc565b80612cd48161469b565b915050612c3c565b505b80612ce88161469b565b915050612d1285856040518060400160405280600381526020016255524960e81b8152508461340d565b836060018193508290525050612d498585604051806040016040528060078152602001662b32b939b4b7b760c91b8152508461340d565b8360800181935082905250506060612d8386866040518060400160405280600881526020016710da185a5b88125160c21b8152508561340d565b92509050612d9081613617565b60a08401526040805180820190915260058152644e6f6e636560d81b6020820152612dbf90879087908561340d565b60c08501829052905190925060081115612dec57604051632d2f00c360e21b815260040160405180910390fd5b612e19868660405180604001604052806009815260200168125cdcdd595908105d60ba1b8152508561340d565b8460e0018194508290525050612e5886866040518060400160405280600f81526020016e45787069726174696f6e2054696d6560881b8152508561340d565b84610100018194508290525050612e9386866040518060400160405280600a8152602001694e6f74204265666f726560b01b8152508561340d565b84610120018194508290525050612ece86866040518060400160405280600a81526020016914995c5d595cdd08125160b21b8152508561340d565b846101400181945082905250506000612f0a8787604051806040016040528060098152602001685265736f757263657360b81b8152508661340d565b915050828114612f2b57612f1f87878361367b565b61016086019190915292505b509195945050505050565b6000610665612f50612f4b84600060046131fc565b613617565b612f60612f4b85600560076131fc565b612f70612f4b866008600a6131fc565b612f80612f4b87600b600d6131fc565b612f90612f4b88600e60106131fc565b612fa0612f4b89601160136131fc565b61396b565b60606000806003600160981b016001600160a01b031687878787604051602001612fd29493929190614b81565b60408051601f1981840301815290829052612fec91614bb2565b600060405180830381855afa9150503d8060008114613027576040519150601f19603f3d011682016040523d82523d6000602084013e61302c565b606091505b5091509150816130705760405162461bcd60e51b815260206004820152600f60248201526e195b98dc9e5c1d0e8819985a5b1959608a1b60448201526064016103a5565b9695505050505050565b613082613d3d565b60006130a46002546000801b8560405180602001604052806000815250613b2f565b90506000818060200190518101906130bc9190614cc9565b905060016040516130cd9190614a3b565b6040518091039020816000015180519060200120146130ff5760405163283d62bd60e01b815260040160405180910390fd5b428160400151101561182457604051630b17115560e41b815260040160405180910390fd5b60008072184f03e93ff9f4daa797ed6e38ed64bf6a1f0160401b83106131635772184f03e93ff9f4daa797ed6e38ed64bf6a1f0160401b830492506040015b6d04ee2d6d415b85acef8100000000831061318f576d04ee2d6d415b85acef8100000000830492506020015b662386f26fc1000083106131ad57662386f26fc10000830492506010015b6305f5e10083106131c5576305f5e100830492506008015b61271083106131d957612710830492506004015b606483106131eb576064830492506002015b600a83106106655760010192915050565b6060600061320a84846149b9565b6001600160401b0381111561322157613221613e78565b6040519080825280601f01601f19166020018201604052801561324b576020820181803683370190505b509050835b838110801561325f5750855181105b156132c9578581815181106132765761327661463b565b01602001516001600160f81b0319168261329087846149b9565b815181106132a0576132a061463b565b60200101906001600160f81b031916908160001a905350806132c18161469b565b915050613250565b50949350505050565b600081516028146132f65760405163acf8696960e01b815260040160405180910390fd5b6000600283516133069190614d98565b6001600160401b0381111561331d5761331d613e78565b6040519080825280601f01601f191660200182016040528015613347576020820181803683370190505b50905060005b6002845161335b9190614d98565b8110156133f95761339984613371836002614dac565b61337c906001614700565b8151811061338c5761338c61463b565b016020015160f81c613bfa565b6133a88561337c846002614dac565b6133b3906010614dc3565b6133bd9190614ddf565b60f81b8282815181106133d2576133d261463b565b60200101906001600160f81b031916908160001a9053506133f28161469b565b905061334d565b5061340381614df8565b60601c9392505050565b60606000825b858110156135285786868281811061342d5761342d61463b565b909101356001600160f81b031916601d60f91b03905061351657848051906020012061349288888080601f0160208091040260200160405190810160405280939291908181526020018383808284376000920191909152508992508691506131fc9050565b80519060200120146134b757505060408051602081019091526000815290508161360e565b806134c18161469b565b91505085811080156134fb57508686828181106134e0576134e061463b565b9050013560f81c60f81b6001600160f81b031916600160fd1b145b1561350e578061350a8161469b565b9150505b809350613528565b806135208161469b565b915050613413565b858110156135c6578686828181106135425761354261463b565b909101356001600160f81b031916600560f91b0390506135b45761359f87878080601f0160208091040260200160405190810160405280939291908181526020018383808284376000920191909152508892508591506131fc9050565b6135aa826001614700565b925092505061360e565b806135be8161469b565b915050613528565b61360987878080601f0160208091040260200160405190810160405280939291908181526020018383808284376000920191909152508892508591506131fc9050565b925090505b94509492505050565b600080805b83518110156136745760308482815181106136395761363961463b565b016020015161364b919060f81c6149b9565b61365683600a614dac565b6136609190614700565b91508061366c8161469b565b91505061361c565b5092915050565b6060600082815b61368d6001876149b9565b821015613788578686838181106136a6576136a661463b565b9050013560f81c60f81b6001600160f81b031916602d60f81b1480156136fe575086866136d4846001614700565b8181106136e3576136e361463b565b9050013560f81c60f81b6001600160f81b031916600160fd1b145b156137225761370e600283614700565b91508061371a8161469b565b915050613727565b613788565b858210801561375f57508686838181106137435761374361463b565b9050013560f81c60f81b6001600160f81b031916600a60f81b14155b15613776578161376e8161469b565b925050613727565b816137808161469b565b925050613682565b6000816001600160401b038111156137a2576137a2613e78565b6040519080825280602002602001820160405280156137d557816020015b60608152602001906001900390816137c05790505b50905085925060005b6137e96001896149b9565b841080156137f75750828114155b1561395d5788888581811061380e5761380e61463b565b9050013560f81c60f81b6001600160f81b031916602d60f81b1480156138665750888861383c866001614700565b81811061384b5761384b61463b565b9050013560f81c60f81b6001600160f81b031916600160fd1b145b1561387957613876846002614700565b96505b87841080156138b157508888858181106138955761389561463b565b9050013560f81c60f81b6001600160f81b031916600a60f81b14155b156138c857836138c08161469b565b945050613879565b61390b89898080601f0160208091040260200160405190810160405280939291908181526020018383808284376000920191909152508b92508891506131fc9050565b82828151811061391d5761391d61463b565b602002602001018190525080806139339061469b565b91505087840361394b578361394781614e34565b9450505b836139558161469b565b9450506137de565b509791965090945050505050565b60006107b25b8761ffff168161ffff1610156139c75761398a81613cde565b156139a45761399d6301e2850083614700565b91506139b5565b6139b26301e1338083614700565b91505b806139bf81614e4b565b915050613971565b6139cf613e24565b601f81526139dc89613cde565b156139ed57601d60208201526139f5565b601c60208201525b601f60408201819052601e606083018190526080830182905260a0830181905260c0830182905260e0830182905261010083018190526101208301829052610140830152610160820152600191505b8760ff168261ffff161015613aa95780613a5f600184614e6c565b61ffff16600c8110613a7357613a7361463b565b6020020151613a859062015180614e87565b613a959063ffffffff1684614700565b925081613aa181614e4b565b925050613a44565b613ab4600188614eaf565b613ac49060ff1662015180614e87565b613ad49063ffffffff1684614700565b9250613ae560ff8716610e10614e87565b613af59063ffffffff1684614700565b9250613b0560ff8616603c614ec8565b613b139061ffff1684614700565b9250613b2260ff851684614700565b9998505050505050505050565b60606000806004600160981b016001600160a01b031687878787604051602001613b5c9493929190614b81565b60408051601f1981840301815290829052613b7691614bb2565b600060405180830381855afa9150503d8060008114613bb1576040519150601f19603f3d011682016040523d82523d6000602084013e613bb6565b606091505b5091509150816130705760405162461bcd60e51b815260206004820152600f60248201526e191958dc9e5c1d0e8819985a5b1959608a1b60448201526064016103a5565b6000600360fc1b60f883901b6001600160f81b03191610801590613c305750603960f81b60f883901b6001600160f81b03191611155b15613c4057610665603083614eaf565b606160f81b60f883901b6001600160f81b03191610801590613c745750603360f91b60f883901b6001600160f81b03191611155b15613c90576061613c8683600a614ddf565b6106659190614eaf565b604160f81b60f883901b6001600160f81b03191610801590613cc45750602360f91b60f883901b6001600160f81b03191611155b15613cd6576041613c8683600a614ddf565b506000919050565b6000613ceb600483614ee6565b61ffff1615613cfc57506000919050565b613d07606483614ee6565b61ffff1615613d1857506001919050565b613d2461019083614ee6565b61ffff1615613d3557506000919050565b506001919050565b6040518060a001604052806060815260200160006001600160a01b031681526020016000815260200160608152602001606081525090565b60408051610100810182526000808252602082018190529181018290529060608201908152602001600081526020016060815260200160608152602001600081525090565b6040518061018001604052806060815260200160006001600160a01b03168152602001606081526020016060815260200160608152602001600081526020016060815260200160608152602001606081526020016060815260200160608152602001606081525090565b604051806101800160405280600c906020820280368337509192915050565b6001600160a01b0381168114613e5857600080fd5b50565b600060208284031215613e6d57600080fd5b813561182481613e43565b634e487b7160e01b600052604160045260246000fd5b60405160a081016001600160401b0381118282101715613eb057613eb0613e78565b60405290565b604051601f8201601f191681016001600160401b0381118282101715613ede57613ede613e78565b604052919050565b60006001600160401b03821115613eff57613eff613e78565b50601f01601f191660200190565b600082601f830112613f1e57600080fd5b8135613f31613f2c82613ee6565b613eb6565b818152846020838601011115613f4657600080fd5b816020850160208301376000918101602001919091529392505050565b60008060408385031215613f7657600080fd5b82356001600160401b03811115613f8c57600080fd5b613f9885828601613f0d565b95602094909401359450505050565b60005b83811015613fc2578181015183820152602001613faa565b50506000910152565b60008151808452613fe3816020860160208601613fa7565b601f01601f19169290920160200192915050565b634e487b7160e01b600052602160045260246000fd5b6002811061401d5761401d613ff7565b9052565b6004811061401d5761401d613ff7565b60006020808301818452808551808352604092508286019150828160051b87010184880160005b838110156140e757603f19898403018552815160c0815181865261407e82870182613fcb565b9150508882015189860152878201518582038987015261409e8282613fcb565b9150506060808301516140b38288018261400d565b50506080808301516140c782880182614021565b505060a09182015194909101939093529386019390860190600101614058565b509098975050505050505050565b6000806040838503121561410857600080fd5b8235915060208301356001600160401b0381111561412557600080fd5b61413185828601613f0d565b9150509250929050565b8881526001600160a01b03881660208201526040810187905260006101006141666060840189614021565b8660808401528060a084015261417e81840187613fcb565b60c0840195909552505060e001529695505050505050565b60008083601f8401126141a857600080fd5b5081356001600160401b038111156141bf57600080fd5b6020830191508360208285010111156141d757600080fd5b9250929050565b60008083601f8401126141f057600080fd5b5081356001600160401b0381111561420757600080fd5b6020830191508360208260051b85010111156141d757600080fd5b60008060008060008060008060008060a08b8d03121561424157600080fd5b8a356001600160401b038082111561425857600080fd5b6142648e838f01614196565b909c509a5060208d013591508082111561427d57600080fd5b6142898e838f016141de565b909a50985060408d01359150808211156142a257600080fd5b6142ae8e838f016141de565b909850965060608d01359150808211156142c757600080fd5b6142d38e838f016141de565b909650945060808d01359150808211156142ec57600080fd5b506142f98d828e016141de565b915080935050809150509295989b9194979a5092959850565b600080600080600060a0868803121561432a57600080fd5b85359450602086013593506040860135801515811461434857600080fd5b92506060860135915060808601356001600160401b0381111561436a57600080fd5b61437688828901613f0d565b9150509295509295909350565b6000806000838503608081121561439957600080fd5b84356001600160401b038111156143af57600080fd5b6143bb87828801614196565b9095509350506060601f19820112156143d357600080fd5b506020840190509250925092565b6020815260006118246020830184613fcb565b600061010082518452602060018060a01b038185015116818601526040808501518187015260608086015161442b82890182614021565b506080808701518189015260a08088015186828b015261444d878b0182613fcb565b96505060c0808901518a8803828c0152878151808a52888a019150888160051b8b0101898401935060005b828110156144fb578b8203601f190184528451805187845261449c88850182613fcb565b90508c8201518d8501528b8201518482038d8601526144bb8282613fcb565b9150508a8201516144ce8c86018261400d565b50898201516144df8b860182614021565b509088015192880192909252938a0193928a0192600101614478565b5060e08d015160e08f0152809b50505050505050505050505092915050565b60208152600061182460208301846143f4565b60008060006060848603121561454257600080fd5b83356001600160401b0381111561455857600080fd5b61456486828701613f0d565b9660208601359650604090950135949350505050565b6000602080830181845280855180835260408601915060408160051b870101925083870160005b828110156145cf57603f198886030184526145bd8583516143f4565b945092850192908501906001016145a1565b5092979650505050505050565b6020808252601c908201527f496e76616c69642061757468656e7469636174696f6e20746f6b656e00000000604082015260600190565b6020808252600e908201526d125b9d985b1a590818995d08125160921b604082015260600190565b634e487b7160e01b600052603260045260246000fd5b600181811c9082168061466557607f821691505b60208210810361291157634e487b7160e01b600052602260045260246000fd5b634e487b7160e01b600052601160045260246000fd5b6000600182016146ad576146ad614685565b5060010190565b6020808252600d908201526c10995d081b9bdd08199bdd5b99609a1b604082015260600190565b6020808252600b908201526a1b9bdd08185b1b1bddd95960aa1b604082015260600190565b8082018082111561066557610665614685565b601f82111561475d57600081815260208120601f850160051c8101602086101561473a5750805b601f850160051c820191505b8181101561475957828155600101614746565b5050505b505050565b6001600160401b0383111561477957614779613e78565b61478d836147878354614651565b83614713565b6000601f8411600181146147c157600085156147a95750838201355b600019600387901b1c1916600186901b17835561481b565b600083815260209020601f19861690835b828110156147f257868501358255602094850194600190920191016147d2565b508682101561480f5760001960f88860031b161c19848701351681555b505060018560011b0183555b5050505050565b6000808335601e1984360301811261483957600080fd5b8301803591506001600160401b0382111561485357600080fd5b6020019150368190038213156141d757600080fd5b60006020828403121561487a57600080fd5b81356002811061182457600080fd5b81516001600160401b038111156148a2576148a2613e78565b6148b6816148b08454614651565b84614713565b602080601f8311600181146148eb57600084156148d35750858301515b600019600386901b1c1916600185901b178555614759565b600085815260208120601f198616915b8281101561491a578886015182559484019460019091019084016148fb565b50858210156149385787850151600019600388901b60f8161c191681555b5050505050600190811b01905550565b81835281816020850137506000828201602090810191909152601f909101601f19169091010190565b60808152600061498560808301888a614948565b866020840152828103604084015261499e818688614948565b9150506149ae606083018461400d565b979650505050505050565b8181038181111561066557610665614685565b604081016149da8285614021565b8260208301529392505050565b7f19457468657265756d205369676e6564204d6573736167653a0a000000000000815260008451614a1f81601a850160208901613fa7565b82018385601a83013760009301601a0192835250909392505050565b6000808354614a4981614651565b60018281168015614a615760018114614a7657614aa5565b60ff1984168752821515830287019450614aa5565b8760005260208060002060005b85811015614a9c5781548a820152908401908201614a83565b50505082870194505b50929695505050505050565b60006020808352835160a082850152614acd60c0850182613fcb565b905060018060a01b0382860151166040850152604085015160608501526060850151601f1980868403016080870152614b068383613fcb565b6080880151878203830160a089015280518083529194508501925084840190600581901b8501860160005b82811015614b5d5784878303018452614b4b828751613fcb565b95880195938801939150600101614b31565b509998505050505050505050565b634e487b7160e01b600052601260045260246000fd5b848152836020820152608060408201526000614ba06080830185613fcb565b82810360608401526149ae8185613fcb565b60008251614bc4818460208701613fa7565b9190910192915050565b600082601f830112614bdf57600080fd5b8151614bed613f2c82613ee6565b818152846020838601011115614c0257600080fd5b614c13826020830160208701613fa7565b949350505050565b8051614c2681613e43565b919050565b600082601f830112614c3c57600080fd5b815160206001600160401b0380831115614c5857614c58613e78565b8260051b614c67838201613eb6565b9384528581018301938381019088861115614c8157600080fd5b84880192505b85831015614cbd57825184811115614c9f5760008081fd5b614cad8a87838c0101614bce565b8352509184019190840190614c87565b98975050505050505050565b600060208284031215614cdb57600080fd5b81516001600160401b0380821115614cf257600080fd5b9083019060a08286031215614d0657600080fd5b614d0e613e8e565b825182811115614d1d57600080fd5b614d2987828601614bce565b825250614d3860208401614c1b565b602082015260408301516040820152606083015182811115614d5957600080fd5b614d6587828601614bce565b606083015250608083015182811115614d7d57600080fd5b614d8987828601614c2b565b60808301525095945050505050565b600082614da757614da7614b6b565b500490565b808202811582820484141761066557610665614685565b60ff818116838216029081169081811461367457613674614685565b60ff818116838216019081111561066557610665614685565b805160208201516bffffffffffffffffffffffff198082169291906014831015614e2c5780818460140360031b1b83161693505b505050919050565b600081614e4357614e43614685565b506000190190565b600061ffff808316818103614e6257614e62614685565b6001019392505050565b61ffff82811682821603908082111561367457613674614685565b63ffffffff818116838216028082169190828114614ea757614ea7614685565b505092915050565b60ff828116828216039081111561066557610665614685565b61ffff818116838216028082169190828114614ea757614ea7614685565b600061ffff80841680614efb57614efb614b6b565b9216919091069291505056fea2646970667358221220f60e79eb6917f7fff82458d34006bbae584f6abc49bece62da7d6b8314a9974864736f6c63430008140033",
  "devdoc": {
    "details": "A simple betting smart contract with SiweAuth integration for Oasis Sapphire Users can place bets, contract acts as escrow, and owner can manage funds",
    "kind": "dev",
    "methods": {
      "cancelBet(uint256,bytes)": {
        "details": "Cancel a bet and refund (only owner)",
        "params": {
          "betId": "The bet ID to cancel",
          "token": "SIWE authentication token for owner"
        }
      },
      "domain()": {
        "returns": {
          "_0": "The domain string"
        }
      },
      "getAllBets(bytes,uint256,uint256)": {
        "details": "Get all bet metadata (paginated) - requires SIWE authentication",
        "params": {
          "count": "Number of bets to return",
          "offset": "Pagination offset",
          "token": "SIWE authentication token"
        }
      },
      "getBet(bytes,uint256)": {
        "details": "Get a specific bet by index - requires SIWE authentication",
        "params": {
          "betIndex": "Index of the bet in the _betMetas array",
          "token": "SIWE authentication token"
        }
      },
      "getBetSummary(bytes,uint256)": {
        "details": "Get bet summary with subbet count (requires SIWE authentication)",
        "params": {
          "betId": "The bet ID to get summary for",
          "token": "SIWE authentication token"
        }
      },
      "getContractBalance()": {
        "details": "Get contract balance"
      },
      "getOwner()": {
        "details": "Get owner address"
      },
      "getSubBets(bytes,uint256)": {
        "details": "Get subbets for a specific bet (requires SIWE authentication)",
        "params": {
          "betId": "The bet ID to get subbets for",
          "token": "SIWE authentication token"
        }
      },
      "getTotalBets()": {
        "details": "Get total number of bets"
      },
      "getUserBetCount(address)": {
        "details": "Get user's total bet count",
        "params": {
          "user": "User address"
        }
      },
      "getUserBets(bytes,uint256,uint256)": {
        "details": "Get user's bets using SIWE authentication",
        "params": {
          "count": "Number of bets to return",
          "offset": "Pagination offset",
          "token": "SIWE authentication token"
        }
      },
      "login(string,(bytes32,bytes32,uint256))": {
        "params": {
          "sig": "The signature of the SIWE message",
          "siweMsg": "The signed SIWE message"
        },
        "returns": {
          "_0": "The encrypted authentication token"
        }
      },
      "ownerWithdraw(uint256,bytes)": {
        "details": "Owner withdraws contract funds (only owner)",
        "params": {
          "amount": "Amount to withdraw",
          "token": "SIWE authentication token for owner"
        }
      },
      "placeBet(string,string[],uint256[],string[],uint8[])": {
        "details": "Place a bet with subbets across multiple platforms",
        "params": {
          "amounts": "Array of amounts for each platform",
          "description": "Description of the bet (private)",
          "marketIds": "Array of market IDs for each platform",
          "outcomes": "Array of outcomes for each platform",
          "platforms": "Array of platform names"
        }
      },
      "resolveSubBet(uint256,uint256,bool,uint256,bytes)": {
        "details": "Resolve a specific subbet (only owner)",
        "params": {
          "betId": "The bet ID containing the subbet",
          "payout": "Payout amount from the platform",
          "subBetIndex": "Index of the subbet to resolve",
          "token": "SIWE authentication token for owner",
          "won": "Whether the subbet won or lost"
        }
      },
      "withdrawBalance()": {
        "details": "Withdraw user balance"
      }
    },
    "title": "SimpleBet",
    "version": 1
  },
  "userdoc": {
    "errors": {
      "A13e_RevokedAuthToken()": [
        {
          "notice": "The authentication token was revoked"
        }
      ],
      "SiweAuth_AddressMismatch()": [
        {
          "notice": "User address in the SIWE message does not match the message signer's address"
        }
      ],
      "SiweAuth_ChainIdMismatch()": [
        {
          "notice": "Chain ID in the SIWE message does not match the actual chain ID"
        }
      ],
      "SiweAuth_DomainMismatch()": [
        {
          "notice": "Domain in the SIWE message does not match the domain of a dApp"
        }
      ],
      "SiweAuth_Expired()": [
        {
          "notice": "Validity of the authentication token or the Expires value in the SIWE message is in the past"
        }
      ],
      "SiweAuth_NotBeforeInFuture()": [
        {
          "notice": "The Not before value in the SIWE message is still in the future"
        }
      ],
      "SiweParser_InvalidAddressLength()": [
        {
          "notice": "Invalid length of the hex-encoded address"
        }
      ],
      "SiweParser_InvalidNonce()": [
        {
          "notice": "Invalid length of the nonce"
        }
      ]
    },
    "kind": "user",
    "methods": {
      "domain()": {
        "notice": "Return the domain associated with the dApp."
      },
      "login(string,(bytes32,bytes32,uint256))": {
        "notice": "Login using a SIWE message and signature"
      }
    },
    "version": 1
  },
  "storageLayout": {
    "storage": [
      {
        "astId": 2352,
        "contract": "contracts/SimpleBet.sol:SimpleBet",
        "label": "_revokedAuthTokens",
        "offset": 0,
        "slot": "0",
        "type": "t_mapping(t_bytes32,t_bool)"
      },
      {
        "astId": 2436,
        "contract": "contracts/SimpleBet.sol:SimpleBet",
        "label": "_domain",
        "offset": 0,
        "slot": "1",
        "type": "t_string_storage"
      },
      {
        "astId": 2439,
        "contract": "contracts/SimpleBet.sol:SimpleBet",
        "label": "_authTokenEncKey",
        "offset": 0,
        "slot": "2",
        "type": "t_bytes32"
      },
      {
        "astId": 4309,
        "contract": "contracts/SimpleBet.sol:SimpleBet",
        "label": "_owner",
        "offset": 0,
        "slot": "3",
        "type": "t_address"
      },
      {
        "astId": 4312,
        "contract": "contracts/SimpleBet.sol:SimpleBet",
        "label": "_nextBetId",
        "offset": 0,
        "slot": "4",
        "type": "t_uint256"
      },
      {
        "astId": 4359,
        "contract": "contracts/SimpleBet.sol:SimpleBet",
        "label": "_betMetas",
        "offset": 0,
        "slot": "5",
        "type": "t_array(t_struct(Bet)4355_storage)dyn_storage"
      },
      {
        "astId": 4364,
        "contract": "contracts/SimpleBet.sol:SimpleBet",
        "label": "_userBets",
        "offset": 0,
        "slot": "6",
        "type": "t_mapping(t_address,t_array(t_uint256)dyn_storage)"
      },
      {
        "astId": 4368,
        "contract": "contracts/SimpleBet.sol:SimpleBet",
        "label": "userBalances",
        "offset": 0,
        "slot": "7",
        "type": "t_mapping(t_address,t_uint256)"
      }
    ],
    "types": {
      "t_address": {
        "encoding": "inplace",
        "label": "address",
        "numberOfBytes": "20"
      },
      "t_array(t_struct(Bet)4355_storage)dyn_storage": {
        "base": "t_struct(Bet)4355_storage",
        "encoding": "dynamic_array",
        "label": "struct SimpleBet.Bet[]",
        "numberOfBytes": "32"
      },
      "t_array(t_struct(SubBet)4335_storage)dyn_storage": {
        "base": "t_struct(SubBet)4335_storage",
        "encoding": "dynamic_array",
        "label": "struct SimpleBet.SubBet[]",
        "numberOfBytes": "32"
      },
      "t_array(t_uint256)dyn_storage": {
        "base": "t_uint256",
        "encoding": "dynamic_array",
        "label": "uint256[]",
        "numberOfBytes": "32"
      },
      "t_bool": {
        "encoding": "inplace",
        "label": "bool",
        "numberOfBytes": "1"
      },
      "t_bytes32": {
        "encoding": "inplace",
        "label": "bytes32",
        "numberOfBytes": "32"
      },
      "t_enum(BetOutcome)4315": {
        "encoding": "inplace",
        "label": "enum SimpleBet.BetOutcome",
        "numberOfBytes": "1"
      },
      "t_enum(BetStatus)4320": {
        "encoding": "inplace",
        "label": "enum SimpleBet.BetStatus",
        "numberOfBytes": "1"
      },
      "t_mapping(t_address,t_array(t_uint256)dyn_storage)": {
        "encoding": "mapping",
        "key": "t_address",
        "label": "mapping(address => uint256[])",
        "numberOfBytes": "32",
        "value": "t_array(t_uint256)dyn_storage"
      },
      "t_mapping(t_address,t_uint256)": {
        "encoding": "mapping",
        "key": "t_address",
        "label": "mapping(address => uint256)",
        "numberOfBytes": "32",
        "value": "t_uint256"
      },
      "t_mapping(t_bytes32,t_bool)": {
        "encoding": "mapping",
        "key": "t_bytes32",
        "label": "mapping(bytes32 => bool)",
        "numberOfBytes": "32",
        "value": "t_bool"
      },
      "t_string_storage": {
        "encoding": "bytes",
        "label": "string",
        "numberOfBytes": "32"
      },
      "t_struct(Bet)4355_storage": {
        "encoding": "inplace",
        "label": "struct SimpleBet.Bet",
        "members": [
          {
            "astId": 4337,
            "contract": "contracts/SimpleBet.sol:SimpleBet",
            "label": "id",
            "offset": 0,
            "slot": "0",
            "type": "t_uint256"
          },
          {
            "astId": 4339,
            "contract": "contracts/SimpleBet.sol:SimpleBet",
            "label": "user",
            "offset": 0,
            "slot": "1",
            "type": "t_address"
          },
          {
            "astId": 4341,
            "contract": "contracts/SimpleBet.sol:SimpleBet",
            "label": "totalAmount",
            "offset": 0,
            "slot": "2",
            "type": "t_uint256"
          },
          {
            "astId": 4344,
            "contract": "contracts/SimpleBet.sol:SimpleBet",
            "label": "status",
            "offset": 0,
            "slot": "3",
            "type": "t_enum(BetStatus)4320"
          },
          {
            "astId": 4346,
            "contract": "contracts/SimpleBet.sol:SimpleBet",
            "label": "createdAt",
            "offset": 0,
            "slot": "4",
            "type": "t_uint256"
          },
          {
            "astId": 4348,
            "contract": "contracts/SimpleBet.sol:SimpleBet",
            "label": "description",
            "offset": 0,
            "slot": "5",
            "type": "t_string_storage"
          },
          {
            "astId": 4352,
            "contract": "contracts/SimpleBet.sol:SimpleBet",
            "label": "subBets",
            "offset": 0,
            "slot": "6",
            "type": "t_array(t_struct(SubBet)4335_storage)dyn_storage"
          },
          {
            "astId": 4354,
            "contract": "contracts/SimpleBet.sol:SimpleBet",
            "label": "totalPayout",
            "offset": 0,
            "slot": "7",
            "type": "t_uint256"
          }
        ],
        "numberOfBytes": "256"
      },
      "t_struct(SubBet)4335_storage": {
        "encoding": "inplace",
        "label": "struct SimpleBet.SubBet",
        "members": [
          {
            "astId": 4322,
            "contract": "contracts/SimpleBet.sol:SimpleBet",
            "label": "platform",
            "offset": 0,
            "slot": "0",
            "type": "t_string_storage"
          },
          {
            "astId": 4324,
            "contract": "contracts/SimpleBet.sol:SimpleBet",
            "label": "amount",
            "offset": 0,
            "slot": "1",
            "type": "t_uint256"
          },
          {
            "astId": 4326,
            "contract": "contracts/SimpleBet.sol:SimpleBet",
            "label": "marketId",
            "offset": 0,
            "slot": "2",
            "type": "t_string_storage"
          },
          {
            "astId": 4329,
            "contract": "contracts/SimpleBet.sol:SimpleBet",
            "label": "outcome",
            "offset": 0,
            "slot": "3",
            "type": "t_enum(BetOutcome)4315"
          },
          {
            "astId": 4332,
            "contract": "contracts/SimpleBet.sol:SimpleBet",
            "label": "status",
            "offset": 1,
            "slot": "3",
            "type": "t_enum(BetStatus)4320"
          },
          {
            "astId": 4334,
            "contract": "contracts/SimpleBet.sol:SimpleBet",
            "label": "payout",
            "offset": 0,
            "slot": "4",
            "type": "t_uint256"
          }
        ],
        "numberOfBytes": "160"
      },
      "t_uint256": {
        "encoding": "inplace",
        "label": "uint256",
        "numberOfBytes": "32"
      }
    }
  }
}