{
  "address": "0x0E877Cce98831a4237A35717c1FE75E9c8510778",
  "abi": [
    {
      "inputs": [
        {
          "internalType": "string",
          "name": "domain",
          "type": "string"
        }
      ],
      "stateMutability": "nonpayable",
      "type": "constructor"
    },
    {
      "inputs": [],
      "name": "A13e_RevokedAuthToken",
      "type": "error"
    },
    {
      "inputs": [],
      "name": "SiweAuth_AddressMismatch",
      "type": "error"
    },
    {
      "inputs": [],
      "name": "SiweAuth_ChainIdMismatch",
      "type": "error"
    },
    {
      "inputs": [],
      "name": "SiweAuth_DomainMismatch",
      "type": "error"
    },
    {
      "inputs": [],
      "name": "SiweAuth_Expired",
      "type": "error"
    },
    {
      "inputs": [],
      "name": "SiweAuth_NotBeforeInFuture",
      "type": "error"
    },
    {
      "inputs": [],
      "name": "SiweParser_InvalidAddressLength",
      "type": "error"
    },
    {
      "inputs": [],
      "name": "SiweParser_InvalidNonce",
      "type": "error"
    },
    {
      "anonymous": false,
      "inputs": [
        {
          "indexed": true,
          "internalType": "uint256",
          "name": "betId",
          "type": "uint256"
        },
        {
          "indexed": true,
          "internalType": "address",
          "name": "user",
          "type": "address"
        },
        {
          "indexed": false,
          "internalType": "uint256",
          "name": "amount",
          "type": "uint256"
        },
        {
          "indexed": false,
          "internalType": "enum SimpleBet.BetOutcome",
          "name": "outcome",
          "type": "uint8"
        },
        {
          "indexed": false,
          "internalType": "uint256",
          "name": "index",
          "type": "uint256"
        }
      ],
      "name": "BetPlaced",
      "type": "event"
    },
    {
      "anonymous": false,
      "inputs": [
        {
          "indexed": true,
          "internalType": "uint256",
          "name": "betId",
          "type": "uint256"
        },
        {
          "indexed": false,
          "internalType": "enum SimpleBet.BetStatus",
          "name": "status",
          "type": "uint8"
        },
        {
          "indexed": false,
          "internalType": "uint256",
          "name": "payout",
          "type": "uint256"
        }
      ],
      "name": "BetResolved",
      "type": "event"
    },
    {
      "anonymous": false,
      "inputs": [
        {
          "indexed": true,
          "internalType": "address",
          "name": "user",
          "type": "address"
        },
        {
          "indexed": false,
          "internalType": "uint256",
          "name": "amount",
          "type": "uint256"
        }
      ],
      "name": "FundsWithdrawn",
      "type": "event"
    },
    {
      "inputs": [
        {
          "internalType": "uint256",
          "name": "betId",
          "type": "uint256"
        },
        {
          "internalType": "bytes",
          "name": "token",
          "type": "bytes"
        }
      ],
      "name": "cancelBet",
      "outputs": [],
      "stateMutability": "nonpayable",
      "type": "function"
    },
    {
      "inputs": [],
      "name": "domain",
      "outputs": [
        {
          "internalType": "string",
          "name": "",
          "type": "string"
        }
      ],
      "stateMutability": "view",
      "type": "function"
    },
    {
      "inputs": [
        {
          "internalType": "bytes",
          "name": "token",
          "type": "bytes"
        },
        {
          "internalType": "uint256",
          "name": "offset",
          "type": "uint256"
        },
        {
          "internalType": "uint256",
          "name": "count",
          "type": "uint256"
        }
      ],
      "name": "getAllBets",
      "outputs": [
        {
          "components": [
            {
              "internalType": "uint256",
              "name": "id",
              "type": "uint256"
            },
            {
              "internalType": "address",
              "name": "user",
              "type": "address"
            },
            {
              "internalType": "uint256",
              "name": "amount",
              "type": "uint256"
            },
            {
              "internalType": "enum SimpleBet.BetOutcome",
              "name": "outcome",
              "type": "uint8"
            },
            {
              "internalType": "enum SimpleBet.BetStatus",
              "name": "status",
              "type": "uint8"
            },
            {
              "internalType": "uint256",
              "name": "createdAt",
              "type": "uint256"
            },
            {
              "internalType": "string",
              "name": "description",
              "type": "string"
            }
          ],
          "internalType": "struct SimpleBet.Bet[]",
          "name": "",
          "type": "tuple[]"
        }
      ],
      "stateMutability": "view",
      "type": "function"
    },
    {
      "inputs": [
        {
          "internalType": "bytes",
          "name": "token",
          "type": "bytes"
        },
        {
          "internalType": "uint256",
          "name": "betIndex",
          "type": "uint256"
        }
      ],
      "name": "getBet",
      "outputs": [
        {
          "components": [
            {
              "internalType": "uint256",
              "name": "id",
              "type": "uint256"
            },
            {
              "internalType": "address",
              "name": "user",
              "type": "address"
            },
            {
              "internalType": "uint256",
              "name": "amount",
              "type": "uint256"
            },
            {
              "internalType": "enum SimpleBet.BetOutcome",
              "name": "outcome",
              "type": "uint8"
            },
            {
              "internalType": "enum SimpleBet.BetStatus",
              "name": "status",
              "type": "uint8"
            },
            {
              "internalType": "uint256",
              "name": "createdAt",
              "type": "uint256"
            },
            {
              "internalType": "string",
              "name": "description",
              "type": "string"
            }
          ],
          "internalType": "struct SimpleBet.Bet",
          "name": "",
          "type": "tuple"
        }
      ],
      "stateMutability": "view",
      "type": "function"
    },
    {
      "inputs": [],
      "name": "getContractBalance",
      "outputs": [
        {
          "internalType": "uint256",
          "name": "",
          "type": "uint256"
        }
      ],
      "stateMutability": "view",
      "type": "function"
    },
    {
      "inputs": [],
      "name": "getOwner",
      "outputs": [
        {
          "internalType": "address",
          "name": "",
          "type": "address"
        }
      ],
      "stateMutability": "view",
      "type": "function"
    },
    {
      "inputs": [],
      "name": "getTotalBets",
      "outputs": [
        {
          "internalType": "uint256",
          "name": "",
          "type": "uint256"
        }
      ],
      "stateMutability": "view",
      "type": "function"
    },
    {
      "inputs": [
        {
          "internalType": "address",
          "name": "user",
          "type": "address"
        }
      ],
      "name": "getUserBetCount",
      "outputs": [
        {
          "internalType": "uint256",
          "name": "",
          "type": "uint256"
        }
      ],
      "stateMutability": "view",
      "type": "function"
    },
    {
      "inputs": [
        {
          "internalType": "bytes",
          "name": "token",
          "type": "bytes"
        },
        {
          "internalType": "uint256",
          "name": "offset",
          "type": "uint256"
        },
        {
          "internalType": "uint256",
          "name": "count",
          "type": "uint256"
        }
      ],
      "name": "getUserBets",
      "outputs": [
        {
          "components": [
            {
              "internalType": "uint256",
              "name": "id",
              "type": "uint256"
            },
            {
              "internalType": "address",
              "name": "user",
              "type": "address"
            },
            {
              "internalType": "uint256",
              "name": "amount",
              "type": "uint256"
            },
            {
              "internalType": "enum SimpleBet.BetOutcome",
              "name": "outcome",
              "type": "uint8"
            },
            {
              "internalType": "enum SimpleBet.BetStatus",
              "name": "status",
              "type": "uint8"
            },
            {
              "internalType": "uint256",
              "name": "createdAt",
              "type": "uint256"
            },
            {
              "internalType": "string",
              "name": "description",
              "type": "string"
            }
          ],
          "internalType": "struct SimpleBet.Bet[]",
          "name": "",
          "type": "tuple[]"
        }
      ],
      "stateMutability": "view",
      "type": "function"
    },
    {
      "inputs": [
        {
          "internalType": "string",
          "name": "siweMsg",
          "type": "string"
        },
        {
          "components": [
            {
              "internalType": "bytes32",
              "name": "r",
              "type": "bytes32"
            },
            {
              "internalType": "bytes32",
              "name": "s",
              "type": "bytes32"
            },
            {
              "internalType": "uint256",
              "name": "v",
              "type": "uint256"
            }
          ],
          "internalType": "struct SignatureRSV",
          "name": "sig",
          "type": "tuple"
        }
      ],
      "name": "login",
      "outputs": [
        {
          "internalType": "bytes",
          "name": "",
          "type": "bytes"
        }
      ],
      "stateMutability": "view",
      "type": "function"
    },
    {
      "inputs": [
        {
          "internalType": "uint256",
          "name": "amount",
          "type": "uint256"
        },
        {
          "internalType": "bytes",
          "name": "token",
          "type": "bytes"
        }
      ],
      "name": "ownerWithdraw",
      "outputs": [],
      "stateMutability": "nonpayable",
      "type": "function"
    },
    {
      "inputs": [
        {
          "internalType": "enum SimpleBet.BetOutcome",
          "name": "outcome",
          "type": "uint8"
        },
        {
          "internalType": "string",
          "name": "description",
          "type": "string"
        }
      ],
      "name": "placeBet",
      "outputs": [],
      "stateMutability": "payable",
      "type": "function"
    },
    {
      "inputs": [
        {
          "internalType": "uint256",
          "name": "betId",
          "type": "uint256"
        },
        {
          "internalType": "bool",
          "name": "won",
          "type": "bool"
        },
        {
          "internalType": "bytes",
          "name": "token",
          "type": "bytes"
        }
      ],
      "name": "resolveBet",
      "outputs": [],
      "stateMutability": "nonpayable",
      "type": "function"
    },
    {
      "inputs": [
        {
          "internalType": "address",
          "name": "",
          "type": "address"
        }
      ],
      "name": "userBalances",
      "outputs": [
        {
          "internalType": "uint256",
          "name": "",
          "type": "uint256"
        }
      ],
      "stateMutability": "view",
      "type": "function"
    },
    {
      "inputs": [],
      "name": "withdrawBalance",
      "outputs": [],
      "stateMutability": "nonpayable",
      "type": "function"
    }
  ],
  "transactionHash": "0x6288bac0fb25abf14b79ec26adebc86959dd2980163a27aa59fa13edc89df5f9",
  "args": [
    "testnet.sapphire.oasis.io"
  ],
  "numDeployments": 3,
  "solcInputHash": "6487cf38e995dcc44e812e01983c5fdf",
  "bytecode": "0x608060405260016004553480156200001657600080fd5b5060405162003ed238038062003ed28339810160408190526200003991620001c4565b806200005c6020604051806020016040528060008152506200009360201b60201c565b62000067906200027c565b60025560016200007882826200032d565b5050600380546001600160a01b031916331790555062000453565b60606000807301000000000000000000000000000000000000016001600160a01b03168585604051602001620000cb929190620003f9565b60408051601f1981840301815290829052620000e79162000435565b600060405180830381855afa9150503d806000811462000124576040519150601f19603f3d011682016040523d82523d6000602084013e62000129565b606091505b509150915081620001805760405162461bcd60e51b815260206004820152601360248201527f72616e646f6d42797465733a206661696c656400000000000000000000000000604482015260640160405180910390fd5b949350505050565b634e487b7160e01b600052604160045260246000fd5b60005b83811015620001bb578181015183820152602001620001a1565b50506000910152565b600060208284031215620001d757600080fd5b81516001600160401b0380821115620001ef57600080fd5b818401915084601f8301126200020457600080fd5b81518181111562000219576200021962000188565b604051601f8201601f19908116603f0116810190838211818310171562000244576200024462000188565b816040528281528760208487010111156200025e57600080fd5b620002718360208301602088016200019e565b979650505050505050565b805160208083015191908110156200029e576000198160200360031b1b821691505b50919050565b600181811c90821680620002b957607f821691505b6020821081036200029e57634e487b7160e01b600052602260045260246000fd5b601f8211156200032857600081815260208120601f850160051c81016020861015620003035750805b601f850160051c820191505b8181101562000324578281556001016200030f565b5050505b505050565b81516001600160401b0381111562000349576200034962000188565b62000361816200035a8454620002a4565b84620002da565b602080601f831160018114620003995760008415620003805750858301515b600019600386901b1c1916600185901b17855562000324565b600085815260208120601f198616915b82811015620003ca57888601518255948401946001909101908401620003a9565b5085821015620003e95787850151600019600388901b60f8161c191681555b5050505050600190811b01905550565b8281526040602082015260008251806040840152620004208160608501602087016200019e565b601f01601f1916919091016060019392505050565b60008251620004498184602087016200019e565b9190910192915050565b613a6f80620004636000396000f3fe6080604052600436106100e85760003560e01c8063893d20e81161008a578063c2fb26a611610059578063c2fb26a614610277578063c627348d1461028c578063c6d87da9146102b9578063c908bea6146102d957600080fd5b8063893d20e8146101d7578063a3cb679d146101ff578063ad6d461614610214578063b624010a1461024157600080fd5b806350d6756c116100c657806350d6756c146101625780635fd8c710146101825780636f9fb98a146101975780637f476b6f146101aa57600080fd5b806326224c64146100ed5780633dd953661461012d5780634bb30b7514610142575b600080fd5b3480156100f957600080fd5b5061011a610108366004612e11565b60076020526000908152604090205481565b6040519081526020015b60405180910390f35b61014061013b366004612e76565b6102f9565b005b34801561014e57600080fd5b5061014061015d366004612fb9565b6105ef565b34801561016e57600080fd5b5061014061017d366004612fff565b610780565b34801561018e57600080fd5b50610140610a69565b3480156101a357600080fd5b504761011a565b3480156101b657600080fd5b506101ca6101c536600461305c565b610b93565b604051610124919061310a565b3480156101e357600080fd5b506003546040516001600160a01b039091168152602001610124565b34801561020b57600080fd5b5060055461011a565b34801561022057600080fd5b5061023461022f36600461311d565b610ea0565b604051610124919061320e565b34801561024d57600080fd5b5061011a61025c366004612e11565b6001600160a01b031660009081526006602052604090205490565b34801561028357600080fd5b506101ca6110a8565b34801561029857600080fd5b506102ac6102a7366004613221565b61113a565b604051610124919061326e565b3480156102c557600080fd5b506101406102d4366004612fb9565b611405565b3480156102e557600080fd5b506102ac6102f4366004613221565b611654565b600034116103585760405162461bcd60e51b815260206004820152602160248201527f42657420616d6f756e74206d7573742062652067726561746572207468616e206044820152600360fc1b60648201526084015b60405180910390fd5b6004805460009182610369836132e6565b91905055905060006040518060e00160405280838152602001336001600160a01b031681526020013481526020018660018111156103a9576103a9613161565b81526020016000815260200142815260200185858080601f016020809104026020016040519081016040528093929190818152602001838380828437600092018290525093909452505060058054600180820183559190925283517f036b6384b5eca791c62761152d0c79bb0604c104a5fb6f4eb0703f3154bb3db0600690930292830190815560208501517f036b6384b5eca791c62761152d0c79bb0604c104a5fb6f4eb0703f3154bb3db1840180546001600160a01b0319166001600160a01b0390921691909117905560408501517f036b6384b5eca791c62761152d0c79bb0604c104a5fb6f4eb0703f3154bb3db284015560608501517f036b6384b5eca791c62761152d0c79bb0604c104a5fb6f4eb0703f3154bb3db3909301805495965086959194509160ff199091169083818111156104ea576104ea613161565b021790555060808201518160030160016101000a81548160ff0219169083600381111561051957610519613161565b021790555060a0820151600482015560c0820151600582019061053c9082613382565b505033600090815260066020526040902060055490915061055f90600190613441565b8154600181018355600092835260208084209091019190915533825260079052604081208054349290610593908490613454565b9091555050600554339083907f7cdde6d299ea8fdc0aceb52128ad2948a1db7494031bd05ca26c6ae74b6e33b490349089906105d190600190613441565b6040516105e093929190613467565b60405180910390a35050505050565b60035481906001600160a01b0316331480159061062857506003546001600160a01b031661061c82611994565b6001600160a01b031614155b156106455760405162461bcd60e51b815260040161034f90613489565b478311156106955760405162461bcd60e51b815260206004820152601d60248201527f496e73756666696369656e7420636f6e74726163742062616c616e6365000000604482015260640161034f565b6003546040516000916001600160a01b03169085908381818185875af1925050503d80600081146106e2576040519150601f19603f3d011682016040523d82523d6000602084013e6106e7565b606091505b50509050806107385760405162461bcd60e51b815260206004820152601760248201527f4f776e6572207769746864726177616c206661696c6564000000000000000000604482015260640161034f565b6003546040518581526001600160a01b03909116907feaff4b37086828766ad3268786972c0cd24259d4c87a80f9d3963a3c3d999b0d9060200160405180910390a250505050565b60035481906001600160a01b031633148015906107b957506003546001600160a01b03166107ad82611994565b6001600160a01b031614155b156107d65760405162461bcd60e51b815260040161034f90613489565b6000841180156107e7575060045484105b6108245760405162461bcd60e51b815260206004820152600e60248201526d125b9d985b1a590818995d08125160921b604482015260640161034f565b60008060005b60055481101561087d578660058281548110610848576108486134ae565b9060005260206000209060060201600001540361086b578092506001915061087d565b80610875816132e6565b91505061082a565b50806108bb5760405162461bcd60e51b815260206004820152600d60248201526c10995d081b9bdd08199bdd5b99609a1b604482015260640161034f565b6000600583815481106108d0576108d06134ae565b906000526020600020906006020160030160019054906101000a900460ff16600381111561090057610900613161565b146109445760405162461bcd60e51b815260206004820152601460248201527310995d08185b1c9958591e481c995cdbdb1d995960621b604482015260640161034f565b600060058381548110610959576109596134ae565b90600052602060002090600602019050600086156109cf5760038201805461ff001916610100179055600280830154610991916134c4565b600283015460018401546001600160a01b03166000908152600760205260408120805493945091926109c4908490613454565b90915550610a179050565b60038201805461ff001916610200179055600282015460018301546001600160a01b031660009081526007602052604081208054909190610a11908490613441565b90915550505b600382015460405189917fb4810c14f5f90d64272bdaaa79adbcd7a5593b0be3da5c9073f83a6e05169a1691610a5791610100900460ff169085906134db565b60405180910390a25050505050505050565b3360009081526007602052604090205480610abf5760405162461bcd60e51b81526020600482015260166024820152754e6f2062616c616e636520746f20776974686472617760501b604482015260640161034f565b336000818152600760205260408082208290555190919083908381818185875af1925050503d8060008114610b10576040519150601f19603f3d011682016040523d82523d6000602084013e610b15565b606091505b5050905080610b5a5760405162461bcd60e51b815260206004820152601160248201527015da5d1a191c985dd85b0819985a5b1959607a1b604482015260640161034f565b60405182815233907feaff4b37086828766ad3268786972c0cd24259d4c87a80f9d3963a3c3d999b0d9060200160405180910390a25050565b6060610b9d612cfb565b6000610ba8856119fb565b8686604051602001610bbc939291906134f6565b60408051601f19818403018152828252805160208083019190912060008086528583018086529190915260ff89850135169385019390935287356060850152870135608084015292509060019060a0016020604051602081039080840390855afa158015610c2e573d6000803e3d6000fd5b5050604051601f1901516001600160a01b0381166020860152915060009050610c578888611a8d565b9050468160a0015114610c7d5760405163362c833760e01b815260040160405180910390fd5b6001604051610c8c919061354a565b604051809103902081600001518051906020012014610cbe5760405163283d62bd60e01b815260040160405180910390fd5b8051845260208101516001600160a01b03838116911614610cf2576040516305cc02e160e01b815260040160405180910390fd5b6101208101515115801590610d145750610d10816101200151611ef4565b4211155b15610d325760405163299d02f160e01b815260040160405180910390fd5b6101008101515115610d59576000610d4e826101000151611ef4565b604086015250610d6c565b610d666201518042613454565b60408501525b83604001514210610d9057604051630b17115560e41b815260040160405180910390fd5b60408101516060850152610160810151516001600160401b03811115610db857610db8612ece565b604051908082528060200260200182016040528015610deb57816020015b6060815260200190600190039081610dd65790505b50608085015260005b81610160015151811015610e55578161016001518181518110610e1957610e196134ae565b602002602001015185608001518281518110610e3757610e376134ae565b60200260200101819052508080610e4d906132e6565b915050610df4565b506000610e916002546000801b87604051602001610e7391906135c0565b60408051601f19818403018152602083019091526000825290611f63565b955050505050505b9392505050565b610ea8612d33565b6000610eb384611994565b90506001600160a01b038116610edb5760405162461bcd60e51b815260040161034f9061367a565b6005548310610f215760405162461bcd60e51b815260206004820152601260248201527110995d08191bd95cc81b9bdd08195e1a5cdd60721b604482015260640161034f565b60058381548110610f3457610f346134ae565b90600052602060002090600602016040518060e0016040529081600082015481526020016001820160009054906101000a90046001600160a01b03166001600160a01b03166001600160a01b03168152602001600282015481526020016003820160009054906101000a900460ff166001811115610fb457610fb4613161565b6001811115610fc557610fc5613161565b81526020016003820160019054906101000a900460ff166003811115610fed57610fed613161565b6003811115610ffe57610ffe613161565b81526020016004820154815260200160058201805461101c906132ff565b80601f0160208091040260200160405190810160405280929190818152602001828054611048906132ff565b80156110955780601f1061106a57610100808354040283529160200191611095565b820191906000526020600020905b81548152906001019060200180831161107857829003601f168201915b5050505050815250509150505b92915050565b6060600180546110b7906132ff565b80601f01602080910402602001604051908101604052809291908181526020018280546110e3906132ff565b80156111305780601f1061110557610100808354040283529160200191611130565b820191906000526020600020905b81548152906001019060200180831161111357829003601f168201915b5050505050905090565b6060600061114785611994565b90506001600160a01b03811661116f5760405162461bcd60e51b815260040161034f9061367a565b60055484106111b25760408051600080825260208201909252906111a9565b611196612d33565b81526020019060019003908161118e5790505b50915050610e99565b60006111be8486613454565b6005549091508111156111d057506005545b60006111dc8683613441565b6001600160401b038111156111f3576111f3612ece565b60405190808252806020026020018201604052801561122c57816020015b611219612d33565b8152602001906001900390816112115790505b509050855b828110156113fa5760056112458289613454565b81548110611255576112556134ae565b90600052602060002090600602016040518060e0016040529081600082015481526020016001820160009054906101000a90046001600160a01b03166001600160a01b03166001600160a01b03168152602001600282015481526020016003820160009054906101000a900460ff1660018111156112d5576112d5613161565b60018111156112e6576112e6613161565b81526020016003820160019054906101000a900460ff16600381111561130e5761130e613161565b600381111561131f5761131f613161565b81526020016004820154815260200160058201805461133d906132ff565b80601f0160208091040260200160405190810160405280929190818152602001828054611369906132ff565b80156113b65780601f1061138b576101008083540402835291602001916113b6565b820191906000526020600020905b81548152906001019060200180831161139957829003601f168201915b5050505050815250508288836113cc9190613441565b815181106113dc576113dc6134ae565b602002602001018190525080806113f2906132e6565b915050611231565b509695505050505050565b60035481906001600160a01b0316331480159061143e57506003546001600160a01b031661143282611994565b6001600160a01b031614155b1561145b5760405162461bcd60e51b815260040161034f90613489565b60008311801561146c575060045483105b6114a95760405162461bcd60e51b815260206004820152600e60248201526d125b9d985b1a590818995d08125160921b604482015260640161034f565b60008060005b6005548110156115025785600582815481106114cd576114cd6134ae565b906000526020600020906006020160000154036114f05780925060019150611502565b806114fa816132e6565b9150506114af565b50806115405760405162461bcd60e51b815260206004820152600d60248201526c10995d081b9bdd08199bdd5b99609a1b604482015260640161034f565b600060058381548110611555576115556134ae565b906000526020600020906006020160030160019054906101000a900460ff16600381111561158557611585613161565b146115c95760405162461bcd60e51b815260206004820152601460248201527310995d08185b1c9958591e481c995cdbdb1d995960621b604482015260640161034f565b6000600583815481106115de576115de6134ae565b600091825260209091206003600690920201908101805461ff0019166103001790819055600282015460405192935088927fb4810c14f5f90d64272bdaaa79adbcd7a5593b0be3da5c9073f83a6e05169a16926116449261010090910460ff16916134db565b60405180910390a2505050505050565b6060600061166185611994565b90506001600160a01b0381166116895760405162461bcd60e51b815260040161034f9061367a565b6001600160a01b0381166000908152600660209081526040808320805482518185028101850190935280835291929091908301828280156116e957602002820191906000526020600020905b8154815260200190600101908083116116d5575b5050505050905080518510611733576040805160008082526020820190925290611729565b611716612d33565b81526020019060019003908161170e5790505b5092505050610e99565b600061173f8587613454565b9050815181111561174e575080515b600061175a8783613441565b6001600160401b0381111561177157611771612ece565b6040519080825280602002602001820160405280156117aa57816020015b611797612d33565b81526020019060019003908161178f5790505b509050865b828110156119885760058482815181106117cb576117cb6134ae565b6020026020010151815481106117e3576117e36134ae565b90600052602060002090600602016040518060e0016040529081600082015481526020016001820160009054906101000a90046001600160a01b03166001600160a01b03166001600160a01b03168152602001600282015481526020016003820160009054906101000a900460ff16600181111561186357611863613161565b600181111561187457611874613161565b81526020016003820160019054906101000a900460ff16600381111561189c5761189c613161565b60038111156118ad576118ad613161565b8152602001600482015481526020016005820180546118cb906132ff565b80601f01602080910402602001604051908101604052809291908181526020018280546118f7906132ff565b80156119445780601f1061191957610100808354040283529160200191611944565b820191906000526020600020905b81548152906001019060200180831161192757829003601f168201915b50505050508152505082898361195a9190613441565b8151811061196a5761196a6134ae565b60200260200101819052508080611980906132e6565b9150506117af565b50979650505050505050565b80516020808301919091206000908152908190526040812054829060ff16156119d0576040516313d4cf0960e31b815260040160405180910390fd5b82516000036119e257600091506119f5565b60006119ed84612038565b602001519250505b50919050565b60606000611a08836120e2565b60010190506000816001600160401b03811115611a2757611a27612ece565b6040519080825280601f01601f191660200182016040528015611a51576020820181803683370190505b5090508181016020015b600019016f181899199a1a9b1b9c1cb0b131b232b360811b600a86061a8153600a8504945084611a5b57509392505050565b611a95612d70565b611a9d612d70565b60005b83811015611b2e57848482818110611aba57611aba6134ae565b909101356001600160f81b031916600160fd1b039050611b1c57611b1585858080601f016020809104026020016040519081016040528093929190818152602001838380828437600092018290525092508591506121ba9050565b8252611b2e565b80611b26816132e6565b915050611aa0565b611b39603282613454565b9050611ba0611b9b86868080601f016020809104026020016040519081016040528093929190818152602001838380828437600092019190915250611b85925060029150869050613454565b935083611b93602882613454565b9450846121ba565b612290565b6001600160a01b03166020830152611bb9600282613454565b90508381108015611bf35750848482818110611bd757611bd76134ae565b9050013560f81c60f81b6001600160f81b031916600560f91b14155b15611c9c57805b84811015611c9a57858582818110611c1457611c146134ae565b909101356001600160f81b031916600560f91b039050611c8857611c7186868080601f0160208091040260200160405190810160405280939291908181526020018383808284376000920191909152508692508591506121ba9050565b6040840152611c81816001613454565b9150611c9a565b80611c92816132e6565b915050611bfa565b505b80611ca6816132e6565b915050611cd085856040518060400160405280600381526020016255524960e81b815250846123cb565b836060018193508290525050611d078585604051806040016040528060078152602001662b32b939b4b7b760c91b815250846123cb565b8360800181935082905250506060611d4186866040518060400160405280600881526020016710da185a5b88125160c21b815250856123cb565b92509050611d4e816125d5565b60a08401526040805180820190915260058152644e6f6e636560d81b6020820152611d7d9087908790856123cb565b60c08501829052905190925060081115611daa57604051632d2f00c360e21b815260040160405180910390fd5b611dd7868660405180604001604052806009815260200168125cdcdd595908105d60ba1b815250856123cb565b8460e0018194508290525050611e1686866040518060400160405280600f81526020016e45787069726174696f6e2054696d6560881b815250856123cb565b84610100018194508290525050611e5186866040518060400160405280600a8152602001694e6f74204265666f726560b01b815250856123cb565b84610120018194508290525050611e8c86866040518060400160405280600a81526020016914995c5d595cdd08125160b21b815250856123cb565b846101400181945082905250506000611ec88787604051806040016040528060098152602001685265736f757263657360b81b815250866123cb565b915050828114611ee957611edd878783612639565b61016086019190915292505b509195945050505050565b60006110a2611f0e611f0984600060046121ba565b6125d5565b611f1e611f0985600560076121ba565b611f2e611f09866008600a6121ba565b611f3e611f0987600b600d6121ba565b611f4e611f0988600e60106121ba565b611f5e611f0989601160136121ba565b612929565b60606000806003600160981b016001600160a01b031687878787604051602001611f9094939291906136c7565b60408051601f1981840301815290829052611faa91613703565b600060405180830381855afa9150503d8060008114611fe5576040519150601f19603f3d011682016040523d82523d6000602084013e611fea565b606091505b50915091508161202e5760405162461bcd60e51b815260206004820152600f60248201526e195b98dc9e5c1d0e8819985a5b1959608a1b604482015260640161034f565b9695505050505050565b612040612cfb565b60006120626002546000801b8560405180602001604052806000815250612aed565b905060008180602001905181019061207a9190613812565b9050600160405161208b919061354a565b6040518091039020816000015180519060200120146120bd5760405163283d62bd60e01b815260040160405180910390fd5b4281604001511015610e9957604051630b17115560e41b815260040160405180910390fd5b60008072184f03e93ff9f4daa797ed6e38ed64bf6a1f0160401b83106121215772184f03e93ff9f4daa797ed6e38ed64bf6a1f0160401b830492506040015b6d04ee2d6d415b85acef8100000000831061214d576d04ee2d6d415b85acef8100000000830492506020015b662386f26fc10000831061216b57662386f26fc10000830492506010015b6305f5e1008310612183576305f5e100830492506008015b612710831061219757612710830492506004015b606483106121a9576064830492506002015b600a83106110a25760010192915050565b606060006121c88484613441565b6001600160401b038111156121df576121df612ece565b6040519080825280601f01601f191660200182016040528015612209576020820181803683370190505b509050835b838110801561221d5750855181105b1561228757858181518110612234576122346134ae565b01602001516001600160f81b0319168261224e8784613441565b8151811061225e5761225e6134ae565b60200101906001600160f81b031916908160001a9053508061227f816132e6565b91505061220e565b50949350505050565b600081516028146122b45760405163acf8696960e01b815260040160405180910390fd5b6000600283516122c491906138e1565b6001600160401b038111156122db576122db612ece565b6040519080825280601f01601f191660200182016040528015612305576020820181803683370190505b50905060005b6002845161231991906138e1565b8110156123b7576123578461232f8360026134c4565b61233a906001613454565b8151811061234a5761234a6134ae565b016020015160f81c612bb8565b6123668561233a8460026134c4565b6123719060106138f5565b61237b9190613911565b60f81b828281518110612390576123906134ae565b60200101906001600160f81b031916908160001a9053506123b0816132e6565b905061230b565b506123c18161392a565b60601c9392505050565b60606000825b858110156124e6578686828181106123eb576123eb6134ae565b909101356001600160f81b031916601d60f91b0390506124d457848051906020012061245088888080601f0160208091040260200160405190810160405280939291908181526020018383808284376000920191909152508992508691506121ba9050565b80519060200120146124755750506040805160208101909152600081529050816125cc565b8061247f816132e6565b91505085811080156124b9575086868281811061249e5761249e6134ae565b9050013560f81c60f81b6001600160f81b031916600160fd1b145b156124cc57806124c8816132e6565b9150505b8093506124e6565b806124de816132e6565b9150506123d1565b8581101561258457868682818110612500576125006134ae565b909101356001600160f81b031916600560f91b0390506125725761255d87878080601f0160208091040260200160405190810160405280939291908181526020018383808284376000920191909152508892508591506121ba9050565b612568826001613454565b92509250506125cc565b8061257c816132e6565b9150506124e6565b6125c787878080601f0160208091040260200160405190810160405280939291908181526020018383808284376000920191909152508892508591506121ba9050565b925090505b94509492505050565b600080805b83518110156126325760308482815181106125f7576125f76134ae565b0160200151612609919060f81c613441565b61261483600a6134c4565b61261e9190613454565b91508061262a816132e6565b9150506125da565b5092915050565b6060600082815b61264b600187613441565b82101561274657868683818110612664576126646134ae565b9050013560f81c60f81b6001600160f81b031916602d60f81b1480156126bc57508686612692846001613454565b8181106126a1576126a16134ae565b9050013560f81c60f81b6001600160f81b031916600160fd1b145b156126e0576126cc600283613454565b9150806126d8816132e6565b9150506126e5565b612746565b858210801561271d5750868683818110612701576127016134ae565b9050013560f81c60f81b6001600160f81b031916600a60f81b14155b15612734578161272c816132e6565b9250506126e5565b8161273e816132e6565b925050612640565b6000816001600160401b0381111561276057612760612ece565b60405190808252806020026020018201604052801561279357816020015b606081526020019060019003908161277e5790505b50905085925060005b6127a7600189613441565b841080156127b55750828114155b1561291b578888858181106127cc576127cc6134ae565b9050013560f81c60f81b6001600160f81b031916602d60f81b148015612824575088886127fa866001613454565b818110612809576128096134ae565b9050013560f81c60f81b6001600160f81b031916600160fd1b145b1561283757612834846002613454565b96505b878410801561286f5750888885818110612853576128536134ae565b9050013560f81c60f81b6001600160f81b031916600a60f81b14155b15612886578361287e816132e6565b945050612837565b6128c989898080601f0160208091040260200160405190810160405280939291908181526020018383808284376000920191909152508b92508891506121ba9050565b8282815181106128db576128db6134ae565b602002602001018190525080806128f1906132e6565b915050878403612909578361290581613966565b9450505b83612913816132e6565b94505061279c565b509791965090945050505050565b60006107b25b8761ffff168161ffff1610156129855761294881612c9c565b156129625761295b6301e2850083613454565b9150612973565b6129706301e1338083613454565b91505b8061297d8161397d565b91505061292f565b61298d612dda565b601f815261299a89612c9c565b156129ab57601d60208201526129b3565b601c60208201525b601f60408201819052601e606083018190526080830182905260a0830181905260c0830182905260e0830182905261010083018190526101208301829052610140830152610160820152600191505b8760ff168261ffff161015612a675780612a1d60018461399e565b61ffff16600c8110612a3157612a316134ae565b6020020151612a4390620151806139b9565b612a539063ffffffff1684613454565b925081612a5f8161397d565b925050612a02565b612a726001886139e1565b612a829060ff16620151806139b9565b612a929063ffffffff1684613454565b9250612aa360ff8716610e106139b9565b612ab39063ffffffff1684613454565b9250612ac360ff8616603c6139fa565b612ad19061ffff1684613454565b9250612ae060ff851684613454565b9998505050505050505050565b60606000806004600160981b016001600160a01b031687878787604051602001612b1a94939291906136c7565b60408051601f1981840301815290829052612b3491613703565b600060405180830381855afa9150503d8060008114612b6f576040519150601f19603f3d011682016040523d82523d6000602084013e612b74565b606091505b50915091508161202e5760405162461bcd60e51b815260206004820152600f60248201526e191958dc9e5c1d0e8819985a5b1959608a1b604482015260640161034f565b6000600360fc1b60f883901b6001600160f81b03191610801590612bee5750603960f81b60f883901b6001600160f81b03191611155b15612bfe576110a26030836139e1565b606160f81b60f883901b6001600160f81b03191610801590612c325750603360f91b60f883901b6001600160f81b03191611155b15612c4e576061612c4483600a613911565b6110a291906139e1565b604160f81b60f883901b6001600160f81b03191610801590612c825750602360f91b60f883901b6001600160f81b03191611155b15612c94576041612c4483600a613911565b506000919050565b6000612ca9600483613a18565b61ffff1615612cba57506000919050565b612cc5606483613a18565b61ffff1615612cd657506001919050565b612ce261019083613a18565b61ffff1615612cf357506000919050565b506001919050565b6040518060a001604052806060815260200160006001600160a01b031681526020016000815260200160608152602001606081525090565b6040805160e08101825260008082526020820181905291810182905290606082019081526020016000815260200160008152602001606081525090565b6040518061018001604052806060815260200160006001600160a01b03168152602001606081526020016060815260200160608152602001600081526020016060815260200160608152602001606081526020016060815260200160608152602001606081525090565b604051806101800160405280600c906020820280368337509192915050565b6001600160a01b0381168114612e0e57600080fd5b50565b600060208284031215612e2357600080fd5b8135610e9981612df9565b60008083601f840112612e4057600080fd5b5081356001600160401b03811115612e5757600080fd5b602083019150836020828501011115612e6f57600080fd5b9250929050565b600080600060408486031215612e8b57600080fd5b833560028110612e9a57600080fd5b925060208401356001600160401b03811115612eb557600080fd5b612ec186828701612e2e565b9497909650939450505050565b634e487b7160e01b600052604160045260246000fd5b60405160a081016001600160401b0381118282101715612f0657612f06612ece565b60405290565b604051601f8201601f191681016001600160401b0381118282101715612f3457612f34612ece565b604052919050565b60006001600160401b03821115612f5557612f55612ece565b50601f01601f191660200190565b600082601f830112612f7457600080fd5b8135612f87612f8282612f3c565b612f0c565b818152846020838601011115612f9c57600080fd5b816020850160208301376000918101602001919091529392505050565b60008060408385031215612fcc57600080fd5b8235915060208301356001600160401b03811115612fe957600080fd5b612ff585828601612f63565b9150509250929050565b60008060006060848603121561301457600080fd5b833592506020840135801515811461302b57600080fd5b915060408401356001600160401b0381111561304657600080fd5b61305286828701612f63565b9150509250925092565b6000806000838503608081121561307257600080fd5b84356001600160401b0381111561308857600080fd5b61309487828801612e2e565b9095509350506060601f19820112156130ac57600080fd5b506020840190509250925092565b60005b838110156130d55781810151838201526020016130bd565b50506000910152565b600081518084526130f68160208601602086016130ba565b601f01601f19169290920160200192915050565b602081526000610e9960208301846130de565b6000806040838503121561313057600080fd5b82356001600160401b0381111561314657600080fd5b61315285828601612f63565b95602094909401359450505050565b634e487b7160e01b600052602160045260246000fd5b6002811061318757613187613161565b9052565b6004811061318757613187613161565b8051825260018060a01b03602082015116602083015260408101516040830152600060608201516131cf6060850182613177565b5060808201516131e2608085018261318b565b5060a082015160a084015260c082015160e060c085015261320660e08501826130de565b949350505050565b602081526000610e99602083018461319b565b60008060006060848603121561323657600080fd5b83356001600160401b0381111561324c57600080fd5b61325886828701612f63565b9660208601359650604090950135949350505050565b6000602080830181845280855180835260408601915060408160051b870101925083870160005b828110156132c357603f198886030184526132b185835161319b565b94509285019290850190600101613295565b5092979650505050505050565b634e487b7160e01b600052601160045260246000fd5b6000600182016132f8576132f86132d0565b5060010190565b600181811c9082168061331357607f821691505b6020821081036119f557634e487b7160e01b600052602260045260246000fd5b601f82111561337d57600081815260208120601f850160051c8101602086101561335a5750805b601f850160051c820191505b8181101561337957828155600101613366565b5050505b505050565b81516001600160401b0381111561339b5761339b612ece565b6133af816133a984546132ff565b84613333565b602080601f8311600181146133e457600084156133cc5750858301515b600019600386901b1c1916600185901b178555613379565b600085815260208120601f198616915b82811015613413578886015182559484019460019091019084016133f4565b50858210156134315787850151600019600388901b60f8161c191681555b5050505050600190811b01905550565b818103818111156110a2576110a26132d0565b808201808211156110a2576110a26132d0565b8381526060810161347b6020830185613177565b826040830152949350505050565b6020808252600b908201526a1b9bdd08185b1b1bddd95960aa1b604082015260600190565b634e487b7160e01b600052603260045260246000fd5b80820281158282048414176110a2576110a26132d0565b604081016134e9828561318b565b8260208301529392505050565b7f19457468657265756d205369676e6564204d6573736167653a0a00000000000081526000845161352e81601a8501602089016130ba565b82018385601a83013760009301601a0192835250909392505050565b6000808354613558816132ff565b600182811680156135705760018114613585576135b4565b60ff19841687528215158302870194506135b4565b8760005260208060002060005b858110156135ab5781548a820152908401908201613592565b50505082870194505b50929695505050505050565b60006020808352835160a0828501526135dc60c08501826130de565b905060018060a01b0382860151166040850152604085015160608501526060850151601f198086840301608087015261361583836130de565b6080880151878203830160a089015280518083529194508501925084840190600581901b8501860160005b8281101561366c578487830301845261365a8287516130de565b95880195938801939150600101613640565b509998505050505050505050565b6020808252601c908201527f496e76616c69642061757468656e7469636174696f6e20746f6b656e00000000604082015260600190565b634e487b7160e01b600052601260045260246000fd5b8481528360208201526080604082015260006136e660808301856130de565b82810360608401526136f881856130de565b979650505050505050565b600082516137158184602087016130ba565b9190910192915050565b600082601f83011261373057600080fd5b815161373e612f8282612f3c565b81815284602083860101111561375357600080fd5b6132068260208301602087016130ba565b805161376f81612df9565b919050565b600082601f83011261378557600080fd5b815160206001600160401b03808311156137a1576137a1612ece565b8260051b6137b0838201612f0c565b93845285810183019383810190888611156137ca57600080fd5b84880192505b85831015613806578251848111156137e85760008081fd5b6137f68a87838c010161371f565b83525091840191908401906137d0565b98975050505050505050565b60006020828403121561382457600080fd5b81516001600160401b038082111561383b57600080fd5b9083019060a0828603121561384f57600080fd5b613857612ee4565b82518281111561386657600080fd5b6138728782860161371f565b82525061388160208401613764565b6020820152604083015160408201526060830151828111156138a257600080fd5b6138ae8782860161371f565b6060830152506080830151828111156138c657600080fd5b6138d287828601613774565b60808301525095945050505050565b6000826138f0576138f06136b1565b500490565b60ff8181168382160290811690818114612632576126326132d0565b60ff81811683821601908111156110a2576110a26132d0565b805160208201516bffffffffffffffffffffffff19808216929190601483101561395e5780818460140360031b1b83161693505b505050919050565b600081613975576139756132d0565b506000190190565b600061ffff808316818103613994576139946132d0565b6001019392505050565b61ffff828116828216039080821115612632576126326132d0565b63ffffffff8181168382160280821691908281146139d9576139d96132d0565b505092915050565b60ff82811682821603908111156110a2576110a26132d0565b61ffff8181168382160280821691908281146139d9576139d96132d0565b600061ffff80841680613a2d57613a2d6136b1565b9216919091069291505056fea26469706673582212206de43b1f54ddc45721d737eda4567204cbea8bdcf4a55be0f9f2f2ba0ef017b664736f6c63430008140033",
  "devdoc": {
    "details": "A simple betting smart contract with SiweAuth integration for Oasis Sapphire Users can place bets, contract acts as escrow, and owner can manage funds",
    "kind": "dev",
    "methods": {
      "cancelBet(uint256,bytes)": {
        "details": "Cancel a bet and refund (only owner)",
        "params": {
          "betId": "The bet ID to cancel",
          "token": "SIWE authentication token for owner"
        }
      },
      "domain()": {
        "returns": {
          "_0": "The domain string"
        }
      },
      "getAllBets(bytes,uint256,uint256)": {
        "details": "Get all bet metadata (paginated) - requires SIWE authentication",
        "params": {
          "count": "Number of bets to return",
          "offset": "Pagination offset",
          "token": "SIWE authentication token"
        }
      },
      "getBet(bytes,uint256)": {
        "details": "Get a specific bet by index - requires SIWE authentication",
        "params": {
          "betIndex": "Index of the bet in the _betMetas array",
          "token": "SIWE authentication token"
        }
      },
      "getContractBalance()": {
        "details": "Get contract balance"
      },
      "getOwner()": {
        "details": "Get owner address"
      },
      "getTotalBets()": {
        "details": "Get total number of bets"
      },
      "getUserBetCount(address)": {
        "details": "Get user's total bet count",
        "params": {
          "user": "User address"
        }
      },
      "getUserBets(bytes,uint256,uint256)": {
        "details": "Get user's bets using SIWE authentication",
        "params": {
          "count": "Number of bets to return",
          "offset": "Pagination offset",
          "token": "SIWE authentication token"
        }
      },
      "login(string,(bytes32,bytes32,uint256))": {
        "params": {
          "sig": "The signature of the SIWE message",
          "siweMsg": "The signed SIWE message"
        },
        "returns": {
          "_0": "The encrypted authentication token"
        }
      },
      "ownerWithdraw(uint256,bytes)": {
        "details": "Owner withdraws contract funds (only owner)",
        "params": {
          "amount": "Amount to withdraw",
          "token": "SIWE authentication token for owner"
        }
      },
      "placeBet(uint8,string)": {
        "details": "Place a bet with amount and outcome",
        "params": {
          "description": "Description of the bet (now private)",
          "outcome": "The outcome to bet on (YES/NO)"
        }
      },
      "resolveBet(uint256,bool,bytes)": {
        "details": "Resolve a bet (only owner)",
        "params": {
          "betId": "The bet ID to resolve",
          "token": "SIWE authentication token for owner",
          "won": "Whether the bet won or lost"
        }
      },
      "withdrawBalance()": {
        "details": "Withdraw user balance"
      }
    },
    "title": "SimpleBet",
    "version": 1
  },
  "userdoc": {
    "errors": {
      "A13e_RevokedAuthToken()": [
        {
          "notice": "The authentication token was revoked"
        }
      ],
      "SiweAuth_AddressMismatch()": [
        {
          "notice": "User address in the SIWE message does not match the message signer's address"
        }
      ],
      "SiweAuth_ChainIdMismatch()": [
        {
          "notice": "Chain ID in the SIWE message does not match the actual chain ID"
        }
      ],
      "SiweAuth_DomainMismatch()": [
        {
          "notice": "Domain in the SIWE message does not match the domain of a dApp"
        }
      ],
      "SiweAuth_Expired()": [
        {
          "notice": "Validity of the authentication token or the Expires value in the SIWE message is in the past"
        }
      ],
      "SiweAuth_NotBeforeInFuture()": [
        {
          "notice": "The Not before value in the SIWE message is still in the future"
        }
      ],
      "SiweParser_InvalidAddressLength()": [
        {
          "notice": "Invalid length of the hex-encoded address"
        }
      ],
      "SiweParser_InvalidNonce()": [
        {
          "notice": "Invalid length of the nonce"
        }
      ]
    },
    "kind": "user",
    "methods": {
      "domain()": {
        "notice": "Return the domain associated with the dApp."
      },
      "login(string,(bytes32,bytes32,uint256))": {
        "notice": "Login using a SIWE message and signature"
      }
    },
    "version": 1
  },
  "storageLayout": {
    "storage": [
      {
        "astId": 2352,
        "contract": "contracts/SimpleBet.sol:SimpleBet",
        "label": "_revokedAuthTokens",
        "offset": 0,
        "slot": "0",
        "type": "t_mapping(t_bytes32,t_bool)"
      },
      {
        "astId": 2436,
        "contract": "contracts/SimpleBet.sol:SimpleBet",
        "label": "_domain",
        "offset": 0,
        "slot": "1",
        "type": "t_string_storage"
      },
      {
        "astId": 2439,
        "contract": "contracts/SimpleBet.sol:SimpleBet",
        "label": "_authTokenEncKey",
        "offset": 0,
        "slot": "2",
        "type": "t_bytes32"
      },
      {
        "astId": 4309,
        "contract": "contracts/SimpleBet.sol:SimpleBet",
        "label": "_owner",
        "offset": 0,
        "slot": "3",
        "type": "t_address"
      },
      {
        "astId": 4312,
        "contract": "contracts/SimpleBet.sol:SimpleBet",
        "label": "_nextBetId",
        "offset": 0,
        "slot": "4",
        "type": "t_uint256"
      },
      {
        "astId": 4341,
        "contract": "contracts/SimpleBet.sol:SimpleBet",
        "label": "_betMetas",
        "offset": 0,
        "slot": "5",
        "type": "t_array(t_struct(Bet)4337_storage)dyn_storage"
      },
      {
        "astId": 4346,
        "contract": "contracts/SimpleBet.sol:SimpleBet",
        "label": "_userBets",
        "offset": 0,
        "slot": "6",
        "type": "t_mapping(t_address,t_array(t_uint256)dyn_storage)"
      },
      {
        "astId": 4350,
        "contract": "contracts/SimpleBet.sol:SimpleBet",
        "label": "userBalances",
        "offset": 0,
        "slot": "7",
        "type": "t_mapping(t_address,t_uint256)"
      }
    ],
    "types": {
      "t_address": {
        "encoding": "inplace",
        "label": "address",
        "numberOfBytes": "20"
      },
      "t_array(t_struct(Bet)4337_storage)dyn_storage": {
        "base": "t_struct(Bet)4337_storage",
        "encoding": "dynamic_array",
        "label": "struct SimpleBet.Bet[]",
        "numberOfBytes": "32"
      },
      "t_array(t_uint256)dyn_storage": {
        "base": "t_uint256",
        "encoding": "dynamic_array",
        "label": "uint256[]",
        "numberOfBytes": "32"
      },
      "t_bool": {
        "encoding": "inplace",
        "label": "bool",
        "numberOfBytes": "1"
      },
      "t_bytes32": {
        "encoding": "inplace",
        "label": "bytes32",
        "numberOfBytes": "32"
      },
      "t_enum(BetOutcome)4315": {
        "encoding": "inplace",
        "label": "enum SimpleBet.BetOutcome",
        "numberOfBytes": "1"
      },
      "t_enum(BetStatus)4320": {
        "encoding": "inplace",
        "label": "enum SimpleBet.BetStatus",
        "numberOfBytes": "1"
      },
      "t_mapping(t_address,t_array(t_uint256)dyn_storage)": {
        "encoding": "mapping",
        "key": "t_address",
        "label": "mapping(address => uint256[])",
        "numberOfBytes": "32",
        "value": "t_array(t_uint256)dyn_storage"
      },
      "t_mapping(t_address,t_uint256)": {
        "encoding": "mapping",
        "key": "t_address",
        "label": "mapping(address => uint256)",
        "numberOfBytes": "32",
        "value": "t_uint256"
      },
      "t_mapping(t_bytes32,t_bool)": {
        "encoding": "mapping",
        "key": "t_bytes32",
        "label": "mapping(bytes32 => bool)",
        "numberOfBytes": "32",
        "value": "t_bool"
      },
      "t_string_storage": {
        "encoding": "bytes",
        "label": "string",
        "numberOfBytes": "32"
      },
      "t_struct(Bet)4337_storage": {
        "encoding": "inplace",
        "label": "struct SimpleBet.Bet",
        "members": [
          {
            "astId": 4322,
            "contract": "contracts/SimpleBet.sol:SimpleBet",
            "label": "id",
            "offset": 0,
            "slot": "0",
            "type": "t_uint256"
          },
          {
            "astId": 4324,
            "contract": "contracts/SimpleBet.sol:SimpleBet",
            "label": "user",
            "offset": 0,
            "slot": "1",
            "type": "t_address"
          },
          {
            "astId": 4326,
            "contract": "contracts/SimpleBet.sol:SimpleBet",
            "label": "amount",
            "offset": 0,
            "slot": "2",
            "type": "t_uint256"
          },
          {
            "astId": 4329,
            "contract": "contracts/SimpleBet.sol:SimpleBet",
            "label": "outcome",
            "offset": 0,
            "slot": "3",
            "type": "t_enum(BetOutcome)4315"
          },
          {
            "astId": 4332,
            "contract": "contracts/SimpleBet.sol:SimpleBet",
            "label": "status",
            "offset": 1,
            "slot": "3",
            "type": "t_enum(BetStatus)4320"
          },
          {
            "astId": 4334,
            "contract": "contracts/SimpleBet.sol:SimpleBet",
            "label": "createdAt",
            "offset": 0,
            "slot": "4",
            "type": "t_uint256"
          },
          {
            "astId": 4336,
            "contract": "contracts/SimpleBet.sol:SimpleBet",
            "label": "description",
            "offset": 0,
            "slot": "5",
            "type": "t_string_storage"
          }
        ],
        "numberOfBytes": "192"
      },
      "t_uint256": {
        "encoding": "inplace",
        "label": "uint256",
        "numberOfBytes": "32"
      }
    }
  }
}