{
  "address": "0x39861297E8DC38A3155165B4b0Fe903A7e479da7",
  "abi": [
    {
      "inputs": [
        {
          "internalType": "string",
          "name": "domain",
          "type": "string"
        }
      ],
      "stateMutability": "nonpayable",
      "type": "constructor"
    },
    {
      "inputs": [],
      "name": "A13e_RevokedAuthToken",
      "type": "error"
    },
    {
      "inputs": [],
      "name": "SiweAuth_AddressMismatch",
      "type": "error"
    },
    {
      "inputs": [],
      "name": "SiweAuth_ChainIdMismatch",
      "type": "error"
    },
    {
      "inputs": [],
      "name": "SiweAuth_DomainMismatch",
      "type": "error"
    },
    {
      "inputs": [],
      "name": "SiweAuth_Expired",
      "type": "error"
    },
    {
      "inputs": [],
      "name": "SiweAuth_NotBeforeInFuture",
      "type": "error"
    },
    {
      "inputs": [],
      "name": "SiweParser_InvalidAddressLength",
      "type": "error"
    },
    {
      "inputs": [],
      "name": "SiweParser_InvalidNonce",
      "type": "error"
    },
    {
      "anonymous": false,
      "inputs": [
        {
          "indexed": true,
          "internalType": "uint256",
          "name": "betId",
          "type": "uint256"
        },
        {
          "indexed": true,
          "internalType": "address",
          "name": "user",
          "type": "address"
        },
        {
          "indexed": false,
          "internalType": "uint256",
          "name": "amount",
          "type": "uint256"
        },
        {
          "indexed": false,
          "internalType": "enum SimpleBet.BetOutcome",
          "name": "outcome",
          "type": "uint8"
        },
        {
          "indexed": false,
          "internalType": "uint256",
          "name": "index",
          "type": "uint256"
        }
      ],
      "name": "BetPlaced",
      "type": "event"
    },
    {
      "anonymous": false,
      "inputs": [
        {
          "indexed": true,
          "internalType": "uint256",
          "name": "betId",
          "type": "uint256"
        },
        {
          "indexed": false,
          "internalType": "enum SimpleBet.BetStatus",
          "name": "status",
          "type": "uint8"
        },
        {
          "indexed": false,
          "internalType": "uint256",
          "name": "payout",
          "type": "uint256"
        }
      ],
      "name": "BetResolved",
      "type": "event"
    },
    {
      "anonymous": false,
      "inputs": [
        {
          "indexed": true,
          "internalType": "address",
          "name": "user",
          "type": "address"
        },
        {
          "indexed": false,
          "internalType": "uint256",
          "name": "amount",
          "type": "uint256"
        }
      ],
      "name": "FundsWithdrawn",
      "type": "event"
    },
    {
      "inputs": [
        {
          "internalType": "uint256",
          "name": "",
          "type": "uint256"
        }
      ],
      "name": "_betMetas",
      "outputs": [
        {
          "internalType": "uint256",
          "name": "id",
          "type": "uint256"
        },
        {
          "internalType": "address",
          "name": "user",
          "type": "address"
        },
        {
          "internalType": "uint256",
          "name": "amount",
          "type": "uint256"
        },
        {
          "internalType": "enum SimpleBet.BetOutcome",
          "name": "outcome",
          "type": "uint8"
        },
        {
          "internalType": "enum SimpleBet.BetStatus",
          "name": "status",
          "type": "uint8"
        },
        {
          "internalType": "uint256",
          "name": "createdAt",
          "type": "uint256"
        },
        {
          "internalType": "string",
          "name": "description",
          "type": "string"
        }
      ],
      "stateMutability": "view",
      "type": "function"
    },
    {
      "inputs": [
        {
          "internalType": "uint256",
          "name": "betId",
          "type": "uint256"
        },
        {
          "internalType": "bytes",
          "name": "token",
          "type": "bytes"
        }
      ],
      "name": "cancelBet",
      "outputs": [],
      "stateMutability": "nonpayable",
      "type": "function"
    },
    {
      "inputs": [],
      "name": "domain",
      "outputs": [
        {
          "internalType": "string",
          "name": "",
          "type": "string"
        }
      ],
      "stateMutability": "view",
      "type": "function"
    },
    {
      "inputs": [
        {
          "internalType": "uint256",
          "name": "offset",
          "type": "uint256"
        },
        {
          "internalType": "uint256",
          "name": "count",
          "type": "uint256"
        }
      ],
      "name": "getAllBets",
      "outputs": [
        {
          "components": [
            {
              "internalType": "uint256",
              "name": "id",
              "type": "uint256"
            },
            {
              "internalType": "address",
              "name": "user",
              "type": "address"
            },
            {
              "internalType": "uint256",
              "name": "amount",
              "type": "uint256"
            },
            {
              "internalType": "enum SimpleBet.BetOutcome",
              "name": "outcome",
              "type": "uint8"
            },
            {
              "internalType": "enum SimpleBet.BetStatus",
              "name": "status",
              "type": "uint8"
            },
            {
              "internalType": "uint256",
              "name": "createdAt",
              "type": "uint256"
            },
            {
              "internalType": "string",
              "name": "description",
              "type": "string"
            }
          ],
          "internalType": "struct SimpleBet.Bet[]",
          "name": "",
          "type": "tuple[]"
        }
      ],
      "stateMutability": "view",
      "type": "function"
    },
    {
      "inputs": [
        {
          "internalType": "uint256",
          "name": "betIndex",
          "type": "uint256"
        },
        {
          "internalType": "bytes",
          "name": "token",
          "type": "bytes"
        }
      ],
      "name": "getBetSecret",
      "outputs": [
        {
          "internalType": "bytes",
          "name": "",
          "type": "bytes"
        }
      ],
      "stateMutability": "view",
      "type": "function"
    },
    {
      "inputs": [],
      "name": "getContractBalance",
      "outputs": [
        {
          "internalType": "uint256",
          "name": "",
          "type": "uint256"
        }
      ],
      "stateMutability": "view",
      "type": "function"
    },
    {
      "inputs": [],
      "name": "getOwner",
      "outputs": [
        {
          "internalType": "address",
          "name": "",
          "type": "address"
        }
      ],
      "stateMutability": "view",
      "type": "function"
    },
    {
      "inputs": [],
      "name": "getTotalBets",
      "outputs": [
        {
          "internalType": "uint256",
          "name": "",
          "type": "uint256"
        }
      ],
      "stateMutability": "view",
      "type": "function"
    },
    {
      "inputs": [
        {
          "internalType": "address",
          "name": "user",
          "type": "address"
        }
      ],
      "name": "getUserBetCount",
      "outputs": [
        {
          "internalType": "uint256",
          "name": "",
          "type": "uint256"
        }
      ],
      "stateMutability": "view",
      "type": "function"
    },
    {
      "inputs": [
        {
          "internalType": "bytes",
          "name": "token",
          "type": "bytes"
        },
        {
          "internalType": "uint256",
          "name": "offset",
          "type": "uint256"
        },
        {
          "internalType": "uint256",
          "name": "count",
          "type": "uint256"
        }
      ],
      "name": "getUserBets",
      "outputs": [
        {
          "components": [
            {
              "internalType": "uint256",
              "name": "id",
              "type": "uint256"
            },
            {
              "internalType": "address",
              "name": "user",
              "type": "address"
            },
            {
              "internalType": "uint256",
              "name": "amount",
              "type": "uint256"
            },
            {
              "internalType": "enum SimpleBet.BetOutcome",
              "name": "outcome",
              "type": "uint8"
            },
            {
              "internalType": "enum SimpleBet.BetStatus",
              "name": "status",
              "type": "uint8"
            },
            {
              "internalType": "uint256",
              "name": "createdAt",
              "type": "uint256"
            },
            {
              "internalType": "string",
              "name": "description",
              "type": "string"
            }
          ],
          "internalType": "struct SimpleBet.Bet[]",
          "name": "",
          "type": "tuple[]"
        }
      ],
      "stateMutability": "view",
      "type": "function"
    },
    {
      "inputs": [
        {
          "internalType": "string",
          "name": "siweMsg",
          "type": "string"
        },
        {
          "components": [
            {
              "internalType": "bytes32",
              "name": "r",
              "type": "bytes32"
            },
            {
              "internalType": "bytes32",
              "name": "s",
              "type": "bytes32"
            },
            {
              "internalType": "uint256",
              "name": "v",
              "type": "uint256"
            }
          ],
          "internalType": "struct SignatureRSV",
          "name": "sig",
          "type": "tuple"
        }
      ],
      "name": "login",
      "outputs": [
        {
          "internalType": "bytes",
          "name": "",
          "type": "bytes"
        }
      ],
      "stateMutability": "view",
      "type": "function"
    },
    {
      "inputs": [
        {
          "internalType": "uint256",
          "name": "amount",
          "type": "uint256"
        },
        {
          "internalType": "bytes",
          "name": "token",
          "type": "bytes"
        }
      ],
      "name": "ownerWithdraw",
      "outputs": [],
      "stateMutability": "nonpayable",
      "type": "function"
    },
    {
      "inputs": [
        {
          "internalType": "enum SimpleBet.BetOutcome",
          "name": "outcome",
          "type": "uint8"
        },
        {
          "internalType": "string",
          "name": "description",
          "type": "string"
        },
        {
          "internalType": "bytes",
          "name": "secretData",
          "type": "bytes"
        }
      ],
      "name": "placeBet",
      "outputs": [],
      "stateMutability": "payable",
      "type": "function"
    },
    {
      "inputs": [
        {
          "internalType": "uint256",
          "name": "betId",
          "type": "uint256"
        },
        {
          "internalType": "bool",
          "name": "won",
          "type": "bool"
        },
        {
          "internalType": "bytes",
          "name": "token",
          "type": "bytes"
        }
      ],
      "name": "resolveBet",
      "outputs": [],
      "stateMutability": "nonpayable",
      "type": "function"
    },
    {
      "inputs": [
        {
          "internalType": "address",
          "name": "",
          "type": "address"
        }
      ],
      "name": "userBalances",
      "outputs": [
        {
          "internalType": "uint256",
          "name": "",
          "type": "uint256"
        }
      ],
      "stateMutability": "view",
      "type": "function"
    },
    {
      "inputs": [],
      "name": "withdrawBalance",
      "outputs": [],
      "stateMutability": "nonpayable",
      "type": "function"
    }
  ],
  "transactionHash": "0x08f48ed9527eaac0b333304a1d49cd01e1b8a7fda510ecb279de2b48b500adc9",
  "args": [
    "testnet.sapphire.oasis.io"
  ],
  "numDeployments": 2,
  "solcInputHash": "2e65f1970236e5caa89eee54e075fc47",
  "bytecode": "0x608060405260016004553480156200001657600080fd5b5060405162004114380380620041148339810160408190526200003991620001c4565b806200005c6020604051806020016040528060008152506200009360201b60201c565b62000067906200027c565b60025560016200007882826200032d565b5050600380546001600160a01b031916331790555062000453565b60606000807301000000000000000000000000000000000000016001600160a01b03168585604051602001620000cb929190620003f9565b60408051601f1981840301815290829052620000e79162000435565b600060405180830381855afa9150503d806000811462000124576040519150601f19603f3d011682016040523d82523d6000602084013e62000129565b606091505b509150915081620001805760405162461bcd60e51b815260206004820152601360248201527f72616e646f6d42797465733a206661696c656400000000000000000000000000604482015260640160405180910390fd5b949350505050565b634e487b7160e01b600052604160045260246000fd5b60005b83811015620001bb578181015183820152602001620001a1565b50506000910152565b600060208284031215620001d757600080fd5b81516001600160401b0380821115620001ef57600080fd5b818401915084601f8301126200020457600080fd5b81518181111562000219576200021962000188565b604051601f8201601f19908116603f0116810190838211818310171562000244576200024462000188565b816040528281528760208487010111156200025e57600080fd5b620002718360208301602088016200019e565b979650505050505050565b805160208083015191908110156200029e576000198160200360031b1b821691505b50919050565b600181811c90821680620002b957607f821691505b6020821081036200029e57634e487b7160e01b600052602260045260246000fd5b601f8211156200032857600081815260208120601f850160051c81016020861015620003035750805b601f850160051c820191505b8181101562000324578281556001016200030f565b5050505b505050565b81516001600160401b0381111562000349576200034962000188565b62000361816200035a8454620002a4565b84620002da565b602080601f831160018114620003995760008415620003805750858301515b600019600386901b1c1916600185901b17855562000324565b600085815260208120601f198616915b82811015620003ca57888601518255948401946001909101908401620003a9565b5085821015620003e95787850151600019600388901b60f8161c191681555b5050505050600190811b01905550565b8281526040602082015260008251806040840152620004208160608501602087016200019e565b601f01601f1916919091016060019392505050565b60008251620004498184602087016200019e565b9190910192915050565b613cb180620004636000396000f3fe6080604052600436106100f35760003560e01c8063a3cb679d1161008a578063c6d87da911610059578063c6d87da91461028a578063c908bea6146102aa578063cc2942e9146102d7578063e67a2299146102f757600080fd5b8063a3cb679d14610217578063a9a902e41461022c578063b624010a1461023f578063c2fb26a61461027557600080fd5b80635fd8c710116100c65780635fd8c710146101a75780636f9fb98a146101bc5780637f476b6f146101cf578063893d20e8146101ef57600080fd5b806326224c64146100f85780634bb30b75146101385780634dae0d5a1461015a57806350d6756c14610187575b600080fd5b34801561010457600080fd5b50610125610113366004612f6f565b60086020526000908152604090205481565b6040519081526020015b60405180910390f35b34801561014457600080fd5b50610158610153366004613077565b61032a565b005b34801561016657600080fd5b5061017a610175366004613077565b6104c4565b60405161012f919061310d565b34801561019357600080fd5b506101586101a2366004613120565b6106cf565b3480156101b357600080fd5b506101586109b8565b3480156101c857600080fd5b5047610125565b3480156101db57600080fd5b5061017a6101ea3660046131c5565b610ae2565b3480156101fb57600080fd5b506003546040516001600160a01b03909116815260200161012f565b34801561022357600080fd5b50600554610125565b61015861023a366004613223565b610def565b34801561024b57600080fd5b5061012561025a366004612f6f565b6001600160a01b031660009081526007602052604090205490565b34801561028157600080fd5b5061017a61111f565b34801561029657600080fd5b506101586102a5366004613077565b6111b1565b3480156102b657600080fd5b506102ca6102c53660046132a9565b611400565b60405161012f9190613330565b3480156102e357600080fd5b506102ca6102f23660046133f7565b611770565b34801561030357600080fd5b50610317610312366004613419565b611a08565b60405161012f9796959493929190613432565b60035481906001600160a01b0316331480159061036357506003546001600160a01b031661035782611af2565b6001600160a01b031614155b156103895760405162461bcd60e51b815260040161038090613481565b60405180910390fd5b478311156103d95760405162461bcd60e51b815260206004820152601d60248201527f496e73756666696369656e7420636f6e74726163742062616c616e63650000006044820152606401610380565b6003546040516000916001600160a01b03169085908381818185875af1925050503d8060008114610426576040519150601f19603f3d011682016040523d82523d6000602084013e61042b565b606091505b505090508061047c5760405162461bcd60e51b815260206004820152601760248201527f4f776e6572207769746864726177616c206661696c65640000000000000000006044820152606401610380565b6003546040518581526001600160a01b03909116907feaff4b37086828766ad3268786972c0cd24259d4c87a80f9d3963a3c3d999b0d9060200160405180910390a250505050565b6060600583815481106104d9576104d96134a6565b6000918252602090912060069091020154600554839082106105325760405162461bcd60e51b815260206004820152601260248201527110995d08191bd95cc81b9bdd08195e1a5cdd60721b6044820152606401610380565b600060058381548110610547576105476134a6565b60009182526020909120600160069092020101546001600160a01b031690503381148015906105905750806001600160a01b031661058483611af2565b6001600160a01b031614155b156105cd5760405162461bcd60e51b815260206004820152600d60248201526c3737ba103132ba1037bbb732b960991b6044820152606401610380565b600654861061061e5760405162461bcd60e51b815260206004820152601960248201527f4265742073656372657420646f6573206e6f74206578697374000000000000006044820152606401610380565b60068681548110610631576106316134a6565b906000526020600020018054610646906134bc565b80601f0160208091040260200160405190810160405280929190818152602001828054610672906134bc565b80156106bf5780601f10610694576101008083540402835291602001916106bf565b820191906000526020600020905b8154815290600101906020018083116106a257829003601f168201915b5050505050935050505092915050565b60035481906001600160a01b0316331480159061070857506003546001600160a01b03166106fc82611af2565b6001600160a01b031614155b156107255760405162461bcd60e51b815260040161038090613481565b600084118015610736575060045484105b6107735760405162461bcd60e51b815260206004820152600e60248201526d125b9d985b1a590818995d08125160921b6044820152606401610380565b60008060005b6005548110156107cc578660058281548110610797576107976134a6565b906000526020600020906006020160000154036107ba57809250600191506107cc565b806107c481613506565b915050610779565b508061080a5760405162461bcd60e51b815260206004820152600d60248201526c10995d081b9bdd08199bdd5b99609a1b6044820152606401610380565b60006005838154811061081f5761081f6134a6565b906000526020600020906006020160030160019054906101000a900460ff16600381111561084f5761084f6132f6565b146108935760405162461bcd60e51b815260206004820152601460248201527310995d08185b1c9958591e481c995cdbdb1d995960621b6044820152606401610380565b6000600583815481106108a8576108a86134a6565b906000526020600020906006020190506000861561091e5760038201805461ff0019166101001790556002808301546108e09161351f565b600283015460018401546001600160a01b0316600090815260086020526040812080549394509192610913908490613536565b909155506109669050565b60038201805461ff001916610200179055600282015460018301546001600160a01b031660009081526008602052604081208054909190610960908490613549565b90915550505b600382015460405189917fb4810c14f5f90d64272bdaaa79adbcd7a5593b0be3da5c9073f83a6e05169a16916109a691610100900460ff1690859061355c565b60405180910390a25050505050505050565b3360009081526008602052604090205480610a0e5760405162461bcd60e51b81526020600482015260166024820152754e6f2062616c616e636520746f20776974686472617760501b6044820152606401610380565b336000818152600860205260408082208290555190919083908381818185875af1925050503d8060008114610a5f576040519150601f19603f3d011682016040523d82523d6000602084013e610a64565b606091505b5050905080610aa95760405162461bcd60e51b815260206004820152601160248201527015da5d1a191c985dd85b0819985a5b1959607a1b6044820152606401610380565b60405182815233907feaff4b37086828766ad3268786972c0cd24259d4c87a80f9d3963a3c3d999b0d9060200160405180910390a25050565b6060610aec612e59565b6000610af785611b59565b8686604051602001610b0b93929190613577565b60408051601f19818403018152828252805160208083019190912060008086528583018086529190915260ff89850135169385019390935287356060850152870135608084015292509060019060a0016020604051602081039080840390855afa158015610b7d573d6000803e3d6000fd5b5050604051601f1901516001600160a01b0381166020860152915060009050610ba68888611beb565b9050468160a0015114610bcc5760405163362c833760e01b815260040160405180910390fd5b6001604051610bdb91906135cb565b604051809103902081600001518051906020012014610c0d5760405163283d62bd60e01b815260040160405180910390fd5b8051845260208101516001600160a01b03838116911614610c41576040516305cc02e160e01b815260040160405180910390fd5b6101208101515115801590610c635750610c5f816101200151612052565b4211155b15610c815760405163299d02f160e01b815260040160405180910390fd5b6101008101515115610ca8576000610c9d826101000151612052565b604086015250610cbb565b610cb56201518042613536565b60408501525b83604001514210610cdf57604051630b17115560e41b815260040160405180910390fd5b60408101516060850152610160810151516001600160401b03811115610d0757610d07612f8c565b604051908082528060200260200182016040528015610d3a57816020015b6060815260200190600190039081610d255790505b50608085015260005b81610160015151811015610da4578161016001518181518110610d6857610d686134a6565b602002602001015185608001518281518110610d8657610d866134a6565b60200260200101819052508080610d9c90613506565b915050610d43565b506000610de06002546000801b87604051602001610dc29190613641565b60408051601f198184030181526020830190915260008252906120c1565b955050505050505b9392505050565b60003411610e495760405162461bcd60e51b815260206004820152602160248201527f42657420616d6f756e74206d7573742062652067726561746572207468616e206044820152600360fc1b6064820152608401610380565b6004805460009182610e5a83613506565b91905055905060006040518060e00160405280838152602001336001600160a01b03168152602001348152602001886001811115610e9a57610e9a6132f6565b81526020016000815260200142815260200187878080601f016020809104026020016040519081016040528093929190818152602001838380828437600092018290525093909452505060058054600180820183559190925283517f036b6384b5eca791c62761152d0c79bb0604c104a5fb6f4eb0703f3154bb3db0600690930292830190815560208501517f036b6384b5eca791c62761152d0c79bb0604c104a5fb6f4eb0703f3154bb3db1840180546001600160a01b0319166001600160a01b0390921691909117905560408501517f036b6384b5eca791c62761152d0c79bb0604c104a5fb6f4eb0703f3154bb3db284015560608501517f036b6384b5eca791c62761152d0c79bb0604c104a5fb6f4eb0703f3154bb3db3909301805495965086959194509160ff19909116908381811115610fdb57610fdb6132f6565b021790555060808201518160030160016101000a81548160ff0219169083600381111561100a5761100a6132f6565b021790555060a0820151600482015560c0820151600582019061102d908261374a565b5050600680546001810182556000919091527ff652222313e28459528d920b65115c16c04f3efc82aaedc97be59f3f377c0d3f01905061106e848683613809565b5033600090815260076020526040902060055461108d90600190613549565b81546001810183556000928352602080842090910191909155338252600890526040812080543492906110c1908490613536565b9091555050600554339083907f7cdde6d299ea8fdc0aceb52128ad2948a1db7494031bd05ca26c6ae74b6e33b49034908b906110ff90600190613549565b60405161110e939291906138c9565b60405180910390a350505050505050565b60606001805461112e906134bc565b80601f016020809104026020016040519081016040528092919081815260200182805461115a906134bc565b80156111a75780601f1061117c576101008083540402835291602001916111a7565b820191906000526020600020905b81548152906001019060200180831161118a57829003601f168201915b5050505050905090565b60035481906001600160a01b031633148015906111ea57506003546001600160a01b03166111de82611af2565b6001600160a01b031614155b156112075760405162461bcd60e51b815260040161038090613481565b600083118015611218575060045483105b6112555760405162461bcd60e51b815260206004820152600e60248201526d125b9d985b1a590818995d08125160921b6044820152606401610380565b60008060005b6005548110156112ae578560058281548110611279576112796134a6565b9060005260206000209060060201600001540361129c57809250600191506112ae565b806112a681613506565b91505061125b565b50806112ec5760405162461bcd60e51b815260206004820152600d60248201526c10995d081b9bdd08199bdd5b99609a1b6044820152606401610380565b600060058381548110611301576113016134a6565b906000526020600020906006020160030160019054906101000a900460ff166003811115611331576113316132f6565b146113755760405162461bcd60e51b815260206004820152601460248201527310995d08185b1c9958591e481c995cdbdb1d995960621b6044820152606401610380565b60006005838154811061138a5761138a6134a6565b600091825260209091206003600690920201908101805461ff0019166103001790819055600282015460405192935088927fb4810c14f5f90d64272bdaaa79adbcd7a5593b0be3da5c9073f83a6e05169a16926113f09261010090910460ff169161355c565b60405180910390a2505050505050565b6060600061140d85611af2565b90506001600160a01b0381166114655760405162461bcd60e51b815260206004820152601c60248201527f496e76616c69642061757468656e7469636174696f6e20746f6b656e000000006044820152606401610380565b6001600160a01b0381166000908152600760209081526040808320805482518185028101850190935280835291929091908301828280156114c557602002820191906000526020600020905b8154815260200190600101908083116114b1575b505050505090508051851061150f576040805160008082526020820190925290611505565b6114f2612e91565b8152602001906001900390816114ea5790505b5092505050610de8565b600061151b8587613536565b9050815181111561152a575080515b60006115368783613549565b6001600160401b0381111561154d5761154d612f8c565b60405190808252806020026020018201604052801561158657816020015b611573612e91565b81526020019060019003908161156b5790505b509050865b828110156117645760058482815181106115a7576115a76134a6565b6020026020010151815481106115bf576115bf6134a6565b90600052602060002090600602016040518060e0016040529081600082015481526020016001820160009054906101000a90046001600160a01b03166001600160a01b03166001600160a01b03168152602001600282015481526020016003820160009054906101000a900460ff16600181111561163f5761163f6132f6565b6001811115611650576116506132f6565b81526020016003820160019054906101000a900460ff166003811115611678576116786132f6565b6003811115611689576116896132f6565b8152602001600482015481526020016005820180546116a7906134bc565b80601f01602080910402602001604051908101604052809291908181526020018280546116d3906134bc565b80156117205780601f106116f557610100808354040283529160200191611720565b820191906000526020600020905b81548152906001019060200180831161170357829003601f168201915b5050505050815250508289836117369190613549565b81518110611746576117466134a6565b6020026020010181905250808061175c90613506565b91505061158b565b50979650505050505050565b60055460609083106117b55760408051600080825260208201909252906117ad565b61179a612e91565b8152602001906001900390816117925790505b509050611a02565b60006117c18385613536565b6005549091508111156117d357506005545b60006117df8583613549565b6001600160401b038111156117f6576117f6612f8c565b60405190808252806020026020018201604052801561182f57816020015b61181c612e91565b8152602001906001900390816118145790505b509050845b828110156119fd5760056118488288613536565b81548110611858576118586134a6565b90600052602060002090600602016040518060e0016040529081600082015481526020016001820160009054906101000a90046001600160a01b03166001600160a01b03166001600160a01b03168152602001600282015481526020016003820160009054906101000a900460ff1660018111156118d8576118d86132f6565b60018111156118e9576118e96132f6565b81526020016003820160019054906101000a900460ff166003811115611911576119116132f6565b6003811115611922576119226132f6565b815260200160048201548152602001600582018054611940906134bc565b80601f016020809104026020016040519081016040528092919081815260200182805461196c906134bc565b80156119b95780601f1061198e576101008083540402835291602001916119b9565b820191906000526020600020905b81548152906001019060200180831161199c57829003601f168201915b5050505050815250508287836119cf9190613549565b815181106119df576119df6134a6565b602002602001018190525080806119f590613506565b915050611834565b509150505b92915050565b60058181548110611a1857600080fd5b60009182526020909120600690910201805460018201546002830154600384015460048501546005860180549597506001600160a01b0390941695929460ff808416956101009094041693919290611a6f906134bc565b80601f0160208091040260200160405190810160405280929190818152602001828054611a9b906134bc565b8015611ae85780601f10611abd57610100808354040283529160200191611ae8565b820191906000526020600020905b815481529060010190602001808311611acb57829003601f168201915b5050505050905087565b80516020808301919091206000908152908190526040812054829060ff1615611b2e576040516313d4cf0960e31b815260040160405180910390fd5b8251600003611b405760009150611b53565b6000611b4b84612196565b602001519250505b50919050565b60606000611b6683612240565b60010190506000816001600160401b03811115611b8557611b85612f8c565b6040519080825280601f01601f191660200182016040528015611baf576020820181803683370190505b5090508181016020015b600019016f181899199a1a9b1b9c1cb0b131b232b360811b600a86061a8153600a8504945084611bb957509392505050565b611bf3612ece565b611bfb612ece565b60005b83811015611c8c57848482818110611c1857611c186134a6565b909101356001600160f81b031916600160fd1b039050611c7a57611c7385858080601f016020809104026020016040519081016040528093929190818152602001838380828437600092018290525092508591506123189050565b8252611c8c565b80611c8481613506565b915050611bfe565b611c97603282613536565b9050611cfe611cf986868080601f016020809104026020016040519081016040528093929190818152602001838380828437600092019190915250611ce3925060029150869050613536565b935083611cf1602882613536565b945084612318565b6123ee565b6001600160a01b03166020830152611d17600282613536565b90508381108015611d515750848482818110611d3557611d356134a6565b9050013560f81c60f81b6001600160f81b031916600560f91b14155b15611dfa57805b84811015611df857858582818110611d7257611d726134a6565b909101356001600160f81b031916600560f91b039050611de657611dcf86868080601f0160208091040260200160405190810160405280939291908181526020018383808284376000920191909152508692508591506123189050565b6040840152611ddf816001613536565b9150611df8565b80611df081613506565b915050611d58565b505b80611e0481613506565b915050611e2e85856040518060400160405280600381526020016255524960e81b81525084612529565b836060018193508290525050611e658585604051806040016040528060078152602001662b32b939b4b7b760c91b81525084612529565b8360800181935082905250506060611e9f86866040518060400160405280600881526020016710da185a5b88125160c21b81525085612529565b92509050611eac81612733565b60a08401526040805180820190915260058152644e6f6e636560d81b6020820152611edb908790879085612529565b60c08501829052905190925060081115611f0857604051632d2f00c360e21b815260040160405180910390fd5b611f35868660405180604001604052806009815260200168125cdcdd595908105d60ba1b81525085612529565b8460e0018194508290525050611f7486866040518060400160405280600f81526020016e45787069726174696f6e2054696d6560881b81525085612529565b84610100018194508290525050611faf86866040518060400160405280600a8152602001694e6f74204265666f726560b01b81525085612529565b84610120018194508290525050611fea86866040518060400160405280600a81526020016914995c5d595cdd08125160b21b81525085612529565b8461014001819450829052505060006120268787604051806040016040528060098152602001685265736f757263657360b81b81525086612529565b9150508281146120475761203b878783612797565b61016086019190915292505b509195945050505050565b6000611a0261206c6120678460006004612318565b612733565b61207c6120678560056007612318565b61208c612067866008600a612318565b61209c61206787600b600d612318565b6120ac61206788600e6010612318565b6120bc6120678960116013612318565b612a87565b60606000806003600160981b016001600160a01b0316878787876040516020016120ee9493929190613901565b60408051601f19818403018152908290526121089161393d565b600060405180830381855afa9150503d8060008114612143576040519150601f19603f3d011682016040523d82523d6000602084013e612148565b606091505b50915091508161218c5760405162461bcd60e51b815260206004820152600f60248201526e195b98dc9e5c1d0e8819985a5b1959608a1b6044820152606401610380565b9695505050505050565b61219e612e59565b60006121c06002546000801b8560405180602001604052806000815250612c4b565b90506000818060200190518101906121d89190613a54565b905060016040516121e991906135cb565b60405180910390208160000151805190602001201461221b5760405163283d62bd60e01b815260040160405180910390fd5b4281604001511015610de857604051630b17115560e41b815260040160405180910390fd5b60008072184f03e93ff9f4daa797ed6e38ed64bf6a1f0160401b831061227f5772184f03e93ff9f4daa797ed6e38ed64bf6a1f0160401b830492506040015b6d04ee2d6d415b85acef810000000083106122ab576d04ee2d6d415b85acef8100000000830492506020015b662386f26fc1000083106122c957662386f26fc10000830492506010015b6305f5e10083106122e1576305f5e100830492506008015b61271083106122f557612710830492506004015b60648310612307576064830492506002015b600a8310611a025760010192915050565b606060006123268484613549565b6001600160401b0381111561233d5761233d612f8c565b6040519080825280601f01601f191660200182016040528015612367576020820181803683370190505b509050835b838110801561237b5750855181105b156123e557858181518110612392576123926134a6565b01602001516001600160f81b031916826123ac8784613549565b815181106123bc576123bc6134a6565b60200101906001600160f81b031916908160001a905350806123dd81613506565b91505061236c565b50949350505050565b600081516028146124125760405163acf8696960e01b815260040160405180910390fd5b6000600283516124229190613b23565b6001600160401b0381111561243957612439612f8c565b6040519080825280601f01601f191660200182016040528015612463576020820181803683370190505b50905060005b600284516124779190613b23565b811015612515576124b58461248d83600261351f565b612498906001613536565b815181106124a8576124a86134a6565b016020015160f81c612d16565b6124c48561249884600261351f565b6124cf906010613b37565b6124d99190613b53565b60f81b8282815181106124ee576124ee6134a6565b60200101906001600160f81b031916908160001a90535061250e81613506565b9050612469565b5061251f81613b6c565b60601c9392505050565b60606000825b8581101561264457868682818110612549576125496134a6565b909101356001600160f81b031916601d60f91b0390506126325784805190602001206125ae88888080601f0160208091040260200160405190810160405280939291908181526020018383808284376000920191909152508992508691506123189050565b80519060200120146125d357505060408051602081019091526000815290508161272a565b806125dd81613506565b915050858110801561261757508686828181106125fc576125fc6134a6565b9050013560f81c60f81b6001600160f81b031916600160fd1b145b1561262a578061262681613506565b9150505b809350612644565b8061263c81613506565b91505061252f565b858110156126e25786868281811061265e5761265e6134a6565b909101356001600160f81b031916600560f91b0390506126d0576126bb87878080601f0160208091040260200160405190810160405280939291908181526020018383808284376000920191909152508892508591506123189050565b6126c6826001613536565b925092505061272a565b806126da81613506565b915050612644565b61272587878080601f0160208091040260200160405190810160405280939291908181526020018383808284376000920191909152508892508591506123189050565b925090505b94509492505050565b600080805b8351811015612790576030848281518110612755576127556134a6565b0160200151612767919060f81c613549565b61277283600a61351f565b61277c9190613536565b91508061278881613506565b915050612738565b5092915050565b6060600082815b6127a9600187613549565b8210156128a4578686838181106127c2576127c26134a6565b9050013560f81c60f81b6001600160f81b031916602d60f81b14801561281a575086866127f0846001613536565b8181106127ff576127ff6134a6565b9050013560f81c60f81b6001600160f81b031916600160fd1b145b1561283e5761282a600283613536565b91508061283681613506565b915050612843565b6128a4565b858210801561287b575086868381811061285f5761285f6134a6565b9050013560f81c60f81b6001600160f81b031916600a60f81b14155b15612892578161288a81613506565b925050612843565b8161289c81613506565b92505061279e565b6000816001600160401b038111156128be576128be612f8c565b6040519080825280602002602001820160405280156128f157816020015b60608152602001906001900390816128dc5790505b50905085925060005b612905600189613549565b841080156129135750828114155b15612a795788888581811061292a5761292a6134a6565b9050013560f81c60f81b6001600160f81b031916602d60f81b14801561298257508888612958866001613536565b818110612967576129676134a6565b9050013560f81c60f81b6001600160f81b031916600160fd1b145b1561299557612992846002613536565b96505b87841080156129cd57508888858181106129b1576129b16134a6565b9050013560f81c60f81b6001600160f81b031916600a60f81b14155b156129e457836129dc81613506565b945050612995565b612a2789898080601f0160208091040260200160405190810160405280939291908181526020018383808284376000920191909152508b92508891506123189050565b828281518110612a3957612a396134a6565b60200260200101819052508080612a4f90613506565b915050878403612a675783612a6381613ba8565b9450505b83612a7181613506565b9450506128fa565b509791965090945050505050565b60006107b25b8761ffff168161ffff161015612ae357612aa681612dfa565b15612ac057612ab96301e2850083613536565b9150612ad1565b612ace6301e1338083613536565b91505b80612adb81613bbf565b915050612a8d565b612aeb612f38565b601f8152612af889612dfa565b15612b0957601d6020820152612b11565b601c60208201525b601f60408201819052601e606083018190526080830182905260a0830181905260c0830182905260e0830182905261010083018190526101208301829052610140830152610160820152600191505b8760ff168261ffff161015612bc55780612b7b600184613be0565b61ffff16600c8110612b8f57612b8f6134a6565b6020020151612ba19062015180613bfb565b612bb19063ffffffff1684613536565b925081612bbd81613bbf565b925050612b60565b612bd0600188613c23565b612be09060ff1662015180613bfb565b612bf09063ffffffff1684613536565b9250612c0160ff8716610e10613bfb565b612c119063ffffffff1684613536565b9250612c2160ff8616603c613c3c565b612c2f9061ffff1684613536565b9250612c3e60ff851684613536565b9998505050505050505050565b60606000806004600160981b016001600160a01b031687878787604051602001612c789493929190613901565b60408051601f1981840301815290829052612c929161393d565b600060405180830381855afa9150503d8060008114612ccd576040519150601f19603f3d011682016040523d82523d6000602084013e612cd2565b606091505b50915091508161218c5760405162461bcd60e51b815260206004820152600f60248201526e191958dc9e5c1d0e8819985a5b1959608a1b6044820152606401610380565b6000600360fc1b60f883901b6001600160f81b03191610801590612d4c5750603960f81b60f883901b6001600160f81b03191611155b15612d5c57611a02603083613c23565b606160f81b60f883901b6001600160f81b03191610801590612d905750603360f91b60f883901b6001600160f81b03191611155b15612dac576061612da283600a613b53565b611a029190613c23565b604160f81b60f883901b6001600160f81b03191610801590612de05750602360f91b60f883901b6001600160f81b03191611155b15612df2576041612da283600a613b53565b506000919050565b6000612e07600483613c5a565b61ffff1615612e1857506000919050565b612e23606483613c5a565b61ffff1615612e3457506001919050565b612e4061019083613c5a565b61ffff1615612e5157506000919050565b506001919050565b6040518060a001604052806060815260200160006001600160a01b031681526020016000815260200160608152602001606081525090565b6040805160e08101825260008082526020820181905291810182905290606082019081526020016000815260200160008152602001606081525090565b6040518061018001604052806060815260200160006001600160a01b03168152602001606081526020016060815260200160608152602001600081526020016060815260200160608152602001606081526020016060815260200160608152602001606081525090565b604051806101800160405280600c906020820280368337509192915050565b6001600160a01b0381168114612f6c57600080fd5b50565b600060208284031215612f8157600080fd5b8135610de881612f57565b634e487b7160e01b600052604160045260246000fd5b60405160a081016001600160401b0381118282101715612fc457612fc4612f8c565b60405290565b604051601f8201601f191681016001600160401b0381118282101715612ff257612ff2612f8c565b604052919050565b60006001600160401b0382111561301357613013612f8c565b50601f01601f191660200190565b600082601f83011261303257600080fd5b813561304561304082612ffa565b612fca565b81815284602083860101111561305a57600080fd5b816020850160208301376000918101602001919091529392505050565b6000806040838503121561308a57600080fd5b8235915060208301356001600160401b038111156130a757600080fd5b6130b385828601613021565b9150509250929050565b60005b838110156130d85781810151838201526020016130c0565b50506000910152565b600081518084526130f98160208601602086016130bd565b601f01601f19169290920160200192915050565b602081526000610de860208301846130e1565b60008060006060848603121561313557600080fd5b833592506020840135801515811461314c57600080fd5b915060408401356001600160401b0381111561316757600080fd5b61317386828701613021565b9150509250925092565b60008083601f84011261318f57600080fd5b5081356001600160401b038111156131a657600080fd5b6020830191508360208285010111156131be57600080fd5b9250929050565b600080600083850360808112156131db57600080fd5b84356001600160401b038111156131f157600080fd5b6131fd8782880161317d565b9095509350506060601f198201121561321557600080fd5b506020840190509250925092565b60008060008060006060868803121561323b57600080fd5b85356002811061324a57600080fd5b945060208601356001600160401b038082111561326657600080fd5b61327289838a0161317d565b9096509450604088013591508082111561328b57600080fd5b506132988882890161317d565b969995985093965092949392505050565b6000806000606084860312156132be57600080fd5b83356001600160401b038111156132d457600080fd5b6132e086828701613021565b9660208601359650604090950135949350505050565b634e487b7160e01b600052602160045260246000fd5b6002811061331c5761331c6132f6565b9052565b6004811061331c5761331c6132f6565b60006020808301818452808551808352604092508286019150828160051b87010184880160005b838110156133e957888303603f19018552815180518452878101516001600160a01b031688850152868101518785015260608082015160e0919061339d8288018261330c565b50506080808301516133b182880182613320565b505060a0828101519086015260c0918201519185018190526133d5818601836130e1565b968901969450505090860190600101613357565b509098975050505050505050565b6000806040838503121561340a57600080fd5b50508035926020909101359150565b60006020828403121561342b57600080fd5b5035919050565b8781526001600160a01b038716602082015260408101869052613458606082018661330c565b6134656080820185613320565b8260a082015260e060c08201526000612c3e60e08301846130e1565b6020808252600b908201526a1b9bdd08185b1b1bddd95960aa1b604082015260600190565b634e487b7160e01b600052603260045260246000fd5b600181811c908216806134d057607f821691505b602082108103611b5357634e487b7160e01b600052602260045260246000fd5b634e487b7160e01b600052601160045260246000fd5b600060018201613518576135186134f0565b5060010190565b8082028115828204841417611a0257611a026134f0565b80820180821115611a0257611a026134f0565b81810381811115611a0257611a026134f0565b6040810161356a8285613320565b8260208301529392505050565b7f19457468657265756d205369676e6564204d6573736167653a0a0000000000008152600084516135af81601a8501602089016130bd565b82018385601a83013760009301601a0192835250909392505050565b60008083546135d9816134bc565b600182811680156135f1576001811461360657613635565b60ff1984168752821515830287019450613635565b8760005260208060002060005b8581101561362c5781548a820152908401908201613613565b50505082870194505b50929695505050505050565b60006020808352835160a08285015261365d60c08501826130e1565b905060018060a01b0382860151166040850152604085015160608501526060850151601f198086840301608087015261369683836130e1565b6080880151878203830160a089015280518083529194508501925084840190600581901b8501860160005b828110156136ed57848783030184526136db8287516130e1565b958801959388019391506001016136c1565b509998505050505050505050565b601f82111561374557600081815260208120601f850160051c810160208610156137225750805b601f850160051c820191505b818110156137415782815560010161372e565b5050505b505050565b81516001600160401b0381111561376357613763612f8c565b6137778161377184546134bc565b846136fb565b602080601f8311600181146137ac57600084156137945750858301515b600019600386901b1c1916600185901b178555613741565b600085815260208120601f198616915b828110156137db578886015182559484019460019091019084016137bc565b50858210156137f95787850151600019600388901b60f8161c191681555b5050505050600190811b01905550565b6001600160401b0383111561382057613820612f8c565b6138348361382e83546134bc565b836136fb565b6000601f84116001811461386857600085156138505750838201355b600019600387901b1c1916600186901b1783556138c2565b600083815260209020601f19861690835b828110156138995786850135825560209485019460019092019101613879565b50868210156138b65760001960f88860031b161c19848701351681555b505060018560011b0183555b5050505050565b838152606081016138dd602083018561330c565b826040830152949350505050565b634e487b7160e01b600052601260045260246000fd5b84815283602082015260806040820152600061392060808301856130e1565b828103606084015261393281856130e1565b979650505050505050565b6000825161394f8184602087016130bd565b9190910192915050565b600082601f83011261396a57600080fd5b815161397861304082612ffa565b81815284602083860101111561398d57600080fd5b61399e8260208301602087016130bd565b949350505050565b80516139b181612f57565b919050565b600082601f8301126139c757600080fd5b815160206001600160401b03808311156139e3576139e3612f8c565b8260051b6139f2838201612fca565b9384528581018301938381019088861115613a0c57600080fd5b84880192505b85831015613a4857825184811115613a2a5760008081fd5b613a388a87838c0101613959565b8352509184019190840190613a12565b98975050505050505050565b600060208284031215613a6657600080fd5b81516001600160401b0380821115613a7d57600080fd5b9083019060a08286031215613a9157600080fd5b613a99612fa2565b825182811115613aa857600080fd5b613ab487828601613959565b825250613ac3602084016139a6565b602082015260408301516040820152606083015182811115613ae457600080fd5b613af087828601613959565b606083015250608083015182811115613b0857600080fd5b613b14878286016139b6565b60808301525095945050505050565b600082613b3257613b326138eb565b500490565b60ff8181168382160290811690818114612790576127906134f0565b60ff8181168382160190811115611a0257611a026134f0565b805160208201516bffffffffffffffffffffffff198082169291906014831015613ba05780818460140360031b1b83161693505b505050919050565b600081613bb757613bb76134f0565b506000190190565b600061ffff808316818103613bd657613bd66134f0565b6001019392505050565b61ffff828116828216039080821115612790576127906134f0565b63ffffffff818116838216028082169190828114613c1b57613c1b6134f0565b505092915050565b60ff8281168282160390811115611a0257611a026134f0565b61ffff818116838216028082169190828114613c1b57613c1b6134f0565b600061ffff80841680613c6f57613c6f6138eb565b9216919091069291505056fea264697066735822122031525acdd8e444fb4310aac5cfeb04588bf6d8f939193acc98e8a7e0b49e009d64736f6c63430008140033",
  "devdoc": {
    "details": "A simple betting smart contract with SiweAuth integration for Oasis Sapphire Users can place bets, contract acts as escrow, and owner can manage funds",
    "kind": "dev",
    "methods": {
      "cancelBet(uint256,bytes)": {
        "details": "Cancel a bet and refund (only owner)",
        "params": {
          "betId": "The bet ID to cancel",
          "token": "SIWE authentication token for owner"
        }
      },
      "domain()": {
        "returns": {
          "_0": "The domain string"
        }
      },
      "getAllBets(uint256,uint256)": {
        "details": "Get all bet metadata (paginated)",
        "params": {
          "count": "Number of bets to return",
          "offset": "Pagination offset"
        }
      },
      "getBetSecret(uint256,bytes)": {
        "details": "Get secret data for a specific bet (only bet owner can access)",
        "params": {
          "betIndex": "Index of the bet in the _betMetas array",
          "token": "SIWE authentication token"
        }
      },
      "getContractBalance()": {
        "details": "Get contract balance"
      },
      "getOwner()": {
        "details": "Get owner address"
      },
      "getTotalBets()": {
        "details": "Get total number of bets"
      },
      "getUserBetCount(address)": {
        "details": "Get user's total bet count",
        "params": {
          "user": "User address"
        }
      },
      "getUserBets(bytes,uint256,uint256)": {
        "details": "Get user's bets using SIWE authentication",
        "params": {
          "count": "Number of bets to return",
          "offset": "Pagination offset",
          "token": "SIWE authentication token"
        }
      },
      "login(string,(bytes32,bytes32,uint256))": {
        "params": {
          "sig": "The signature of the SIWE message",
          "siweMsg": "The signed SIWE message"
        },
        "returns": {
          "_0": "The encrypted authentication token"
        }
      },
      "ownerWithdraw(uint256,bytes)": {
        "details": "Owner withdraws contract funds (only owner)",
        "params": {
          "amount": "Amount to withdraw",
          "token": "SIWE authentication token for owner"
        }
      },
      "placeBet(uint8,string,bytes)": {
        "details": "Place a bet with amount and outcome",
        "params": {
          "description": "Public description of the bet",
          "outcome": "The outcome to bet on (YES/NO)",
          "secretData": "Private data associated with the bet"
        }
      },
      "resolveBet(uint256,bool,bytes)": {
        "details": "Resolve a bet (only owner)",
        "params": {
          "betId": "The bet ID to resolve",
          "token": "SIWE authentication token for owner",
          "won": "Whether the bet won or lost"
        }
      },
      "withdrawBalance()": {
        "details": "Withdraw user balance"
      }
    },
    "title": "SimpleBet",
    "version": 1
  },
  "userdoc": {
    "errors": {
      "A13e_RevokedAuthToken()": [
        {
          "notice": "The authentication token was revoked"
        }
      ],
      "SiweAuth_AddressMismatch()": [
        {
          "notice": "User address in the SIWE message does not match the message signer's address"
        }
      ],
      "SiweAuth_ChainIdMismatch()": [
        {
          "notice": "Chain ID in the SIWE message does not match the actual chain ID"
        }
      ],
      "SiweAuth_DomainMismatch()": [
        {
          "notice": "Domain in the SIWE message does not match the domain of a dApp"
        }
      ],
      "SiweAuth_Expired()": [
        {
          "notice": "Validity of the authentication token or the Expires value in the SIWE message is in the past"
        }
      ],
      "SiweAuth_NotBeforeInFuture()": [
        {
          "notice": "The Not before value in the SIWE message is still in the future"
        }
      ],
      "SiweParser_InvalidAddressLength()": [
        {
          "notice": "Invalid length of the hex-encoded address"
        }
      ],
      "SiweParser_InvalidNonce()": [
        {
          "notice": "Invalid length of the nonce"
        }
      ]
    },
    "kind": "user",
    "methods": {
      "domain()": {
        "notice": "Return the domain associated with the dApp."
      },
      "login(string,(bytes32,bytes32,uint256))": {
        "notice": "Login using a SIWE message and signature"
      }
    },
    "version": 1
  },
  "storageLayout": {
    "storage": [
      {
        "astId": 2352,
        "contract": "contracts/SimpleBet.sol:SimpleBet",
        "label": "_revokedAuthTokens",
        "offset": 0,
        "slot": "0",
        "type": "t_mapping(t_bytes32,t_bool)"
      },
      {
        "astId": 2436,
        "contract": "contracts/SimpleBet.sol:SimpleBet",
        "label": "_domain",
        "offset": 0,
        "slot": "1",
        "type": "t_string_storage"
      },
      {
        "astId": 2439,
        "contract": "contracts/SimpleBet.sol:SimpleBet",
        "label": "_authTokenEncKey",
        "offset": 0,
        "slot": "2",
        "type": "t_bytes32"
      },
      {
        "astId": 4309,
        "contract": "contracts/SimpleBet.sol:SimpleBet",
        "label": "_owner",
        "offset": 0,
        "slot": "3",
        "type": "t_address"
      },
      {
        "astId": 4312,
        "contract": "contracts/SimpleBet.sol:SimpleBet",
        "label": "_nextBetId",
        "offset": 0,
        "slot": "4",
        "type": "t_uint256"
      },
      {
        "astId": 4341,
        "contract": "contracts/SimpleBet.sol:SimpleBet",
        "label": "_betMetas",
        "offset": 0,
        "slot": "5",
        "type": "t_array(t_struct(Bet)4337_storage)dyn_storage"
      },
      {
        "astId": 4344,
        "contract": "contracts/SimpleBet.sol:SimpleBet",
        "label": "_betSecrets",
        "offset": 0,
        "slot": "6",
        "type": "t_array(t_bytes_storage)dyn_storage"
      },
      {
        "astId": 4349,
        "contract": "contracts/SimpleBet.sol:SimpleBet",
        "label": "_userBets",
        "offset": 0,
        "slot": "7",
        "type": "t_mapping(t_address,t_array(t_uint256)dyn_storage)"
      },
      {
        "astId": 4353,
        "contract": "contracts/SimpleBet.sol:SimpleBet",
        "label": "userBalances",
        "offset": 0,
        "slot": "8",
        "type": "t_mapping(t_address,t_uint256)"
      }
    ],
    "types": {
      "t_address": {
        "encoding": "inplace",
        "label": "address",
        "numberOfBytes": "20"
      },
      "t_array(t_bytes_storage)dyn_storage": {
        "base": "t_bytes_storage",
        "encoding": "dynamic_array",
        "label": "bytes[]",
        "numberOfBytes": "32"
      },
      "t_array(t_struct(Bet)4337_storage)dyn_storage": {
        "base": "t_struct(Bet)4337_storage",
        "encoding": "dynamic_array",
        "label": "struct SimpleBet.Bet[]",
        "numberOfBytes": "32"
      },
      "t_array(t_uint256)dyn_storage": {
        "base": "t_uint256",
        "encoding": "dynamic_array",
        "label": "uint256[]",
        "numberOfBytes": "32"
      },
      "t_bool": {
        "encoding": "inplace",
        "label": "bool",
        "numberOfBytes": "1"
      },
      "t_bytes32": {
        "encoding": "inplace",
        "label": "bytes32",
        "numberOfBytes": "32"
      },
      "t_bytes_storage": {
        "encoding": "bytes",
        "label": "bytes",
        "numberOfBytes": "32"
      },
      "t_enum(BetOutcome)4315": {
        "encoding": "inplace",
        "label": "enum SimpleBet.BetOutcome",
        "numberOfBytes": "1"
      },
      "t_enum(BetStatus)4320": {
        "encoding": "inplace",
        "label": "enum SimpleBet.BetStatus",
        "numberOfBytes": "1"
      },
      "t_mapping(t_address,t_array(t_uint256)dyn_storage)": {
        "encoding": "mapping",
        "key": "t_address",
        "label": "mapping(address => uint256[])",
        "numberOfBytes": "32",
        "value": "t_array(t_uint256)dyn_storage"
      },
      "t_mapping(t_address,t_uint256)": {
        "encoding": "mapping",
        "key": "t_address",
        "label": "mapping(address => uint256)",
        "numberOfBytes": "32",
        "value": "t_uint256"
      },
      "t_mapping(t_bytes32,t_bool)": {
        "encoding": "mapping",
        "key": "t_bytes32",
        "label": "mapping(bytes32 => bool)",
        "numberOfBytes": "32",
        "value": "t_bool"
      },
      "t_string_storage": {
        "encoding": "bytes",
        "label": "string",
        "numberOfBytes": "32"
      },
      "t_struct(Bet)4337_storage": {
        "encoding": "inplace",
        "label": "struct SimpleBet.Bet",
        "members": [
          {
            "astId": 4322,
            "contract": "contracts/SimpleBet.sol:SimpleBet",
            "label": "id",
            "offset": 0,
            "slot": "0",
            "type": "t_uint256"
          },
          {
            "astId": 4324,
            "contract": "contracts/SimpleBet.sol:SimpleBet",
            "label": "user",
            "offset": 0,
            "slot": "1",
            "type": "t_address"
          },
          {
            "astId": 4326,
            "contract": "contracts/SimpleBet.sol:SimpleBet",
            "label": "amount",
            "offset": 0,
            "slot": "2",
            "type": "t_uint256"
          },
          {
            "astId": 4329,
            "contract": "contracts/SimpleBet.sol:SimpleBet",
            "label": "outcome",
            "offset": 0,
            "slot": "3",
            "type": "t_enum(BetOutcome)4315"
          },
          {
            "astId": 4332,
            "contract": "contracts/SimpleBet.sol:SimpleBet",
            "label": "status",
            "offset": 1,
            "slot": "3",
            "type": "t_enum(BetStatus)4320"
          },
          {
            "astId": 4334,
            "contract": "contracts/SimpleBet.sol:SimpleBet",
            "label": "createdAt",
            "offset": 0,
            "slot": "4",
            "type": "t_uint256"
          },
          {
            "astId": 4336,
            "contract": "contracts/SimpleBet.sol:SimpleBet",
            "label": "description",
            "offset": 0,
            "slot": "5",
            "type": "t_string_storage"
          }
        ],
        "numberOfBytes": "192"
      },
      "t_uint256": {
        "encoding": "inplace",
        "label": "uint256",
        "numberOfBytes": "32"
      }
    }
  }
}